{
	"contracts/QuestManager.sol": {
		"QuestManager": {
			"abi": [
				{
					"inputs": [],
					"name": "EXP_PER_LEVEL",
					"outputs": [
						{
							"internalType": "uint256",
							"name": "",
							"type": "uint256"
						}
					],
					"stateMutability": "view",
					"type": "function"
				},
				{
					"inputs": [
						{
							"internalType": "address",
							"name": "",
							"type": "address"
						},
						{
							"internalType": "uint256",
							"name": "",
							"type": "uint256"
						}
					],
					"name": "activeQuests",
					"outputs": [
						{
							"internalType": "bool",
							"name": "",
							"type": "bool"
						}
					],
					"stateMutability": "view",
					"type": "function"
				},
				{
					"inputs": [
						{
							"internalType": "uint256",
							"name": "questId",
							"type": "uint256"
						},
						{
							"internalType": "uint256",
							"name": "reward",
							"type": "uint256"
						},
						{
							"internalType": "uint256",
							"name": "requiredLevel",
							"type": "uint256"
						}
					],
					"name": "addQuest",
					"outputs": [],
					"stateMutability": "nonpayable",
					"type": "function"
				},
				{
					"inputs": [
						{
							"internalType": "uint256",
							"name": "questId",
							"type": "uint256"
						}
					],
					"name": "completeQuest",
					"outputs": [],
					"stateMutability": "nonpayable",
					"type": "function"
				},
				{
					"inputs": [
						{
							"internalType": "address",
							"name": "",
							"type": "address"
						},
						{
							"internalType": "uint256",
							"name": "",
							"type": "uint256"
						}
					],
					"name": "completedQuests",
					"outputs": [
						{
							"internalType": "bool",
							"name": "",
							"type": "bool"
						}
					],
					"stateMutability": "view",
					"type": "function"
				},
				{
					"inputs": [
						{
							"internalType": "address",
							"name": "player",
							"type": "address"
						}
					],
					"name": "getPlayer",
					"outputs": [
						{
							"internalType": "uint256",
							"name": "level",
							"type": "uint256"
						},
						{
							"internalType": "uint256",
							"name": "experience",
							"type": "uint256"
						}
					],
					"stateMutability": "view",
					"type": "function"
				},
				{
					"inputs": [
						{
							"internalType": "uint256",
							"name": "questId",
							"type": "uint256"
						}
					],
					"name": "getReward",
					"outputs": [
						{
							"internalType": "uint256",
							"name": "",
							"type": "uint256"
						}
					],
					"stateMutability": "view",
					"type": "function"
				},
				{
					"inputs": [
						{
							"internalType": "address",
							"name": "",
							"type": "address"
						}
					],
					"name": "players",
					"outputs": [
						{
							"internalType": "uint256",
							"name": "level",
							"type": "uint256"
						},
						{
							"internalType": "uint256",
							"name": "experience",
							"type": "uint256"
						}
					],
					"stateMutability": "view",
					"type": "function"
				},
				{
					"inputs": [
						{
							"internalType": "uint256",
							"name": "",
							"type": "uint256"
						}
					],
					"name": "quests",
					"outputs": [
						{
							"internalType": "uint256",
							"name": "reward",
							"type": "uint256"
						},
						{
							"internalType": "uint256",
							"name": "requiredLevel",
							"type": "uint256"
						},
						{
							"internalType": "bool",
							"name": "exists",
							"type": "bool"
						}
					],
					"stateMutability": "view",
					"type": "function"
				},
				{
					"inputs": [
						{
							"internalType": "uint256",
							"name": "questId",
							"type": "uint256"
						}
					],
					"name": "startQuest",
					"outputs": [],
					"stateMutability": "nonpayable",
					"type": "function"
				}
			],
			"devdoc": {
				"kind": "dev",
				"methods": {},
				"version": 1
			},
			"evm": {
				"assembly": "    /* \"contracts/QuestManager.sol\":81:2167  contract QuestManager is IQuest {... */\n  mstore(0x40, 0x80)\n  callvalue\n  dup1\n  iszero\n  tag_1\n  jumpi\n  revert(0x00, 0x00)\ntag_1:\n  pop\n  dataSize(sub_0)\n  dup1\n  dataOffset(sub_0)\n  0x00\n  codecopy\n  0x00\n  return\nstop\n\nsub_0: assembly {\n        /* \"contracts/QuestManager.sol\":81:2167  contract QuestManager is IQuest {... */\n      mstore(0x40, 0x80)\n      callvalue\n      dup1\n      iszero\n      tag_1\n      jumpi\n      revert(0x00, 0x00)\n    tag_1:\n      pop\n      jumpi(tag_2, lt(calldatasize, 0x04))\n      shr(0xe0, calldataload(0x00))\n      dup1\n      0x9e563544\n      gt\n      tag_13\n      jumpi\n      dup1\n      0x9e563544\n      eq\n      tag_8\n      jumpi\n      dup1\n      0xe085f980\n      eq\n      tag_9\n      jumpi\n      dup1\n      0xe2eb41ff\n      eq\n      tag_10\n      jumpi\n      dup1\n      0xe447b0dc\n      eq\n      tag_11\n      jumpi\n      dup1\n      0xf88630c7\n      eq\n      tag_12\n      jumpi\n      jump(tag_2)\n    tag_13:\n      dup1\n      0x12e7fb29\n      eq\n      tag_3\n      jumpi\n      dup1\n      0x1c4b774b\n      eq\n      tag_4\n      jumpi\n      dup1\n      0x3e4b76cc\n      eq\n      tag_5\n      jumpi\n      dup1\n      0x528be0a9\n      eq\n      tag_6\n      jumpi\n      dup1\n      0x5c12cd4b\n      eq\n      tag_7\n      jumpi\n    tag_2:\n      revert(0x00, 0x00)\n        /* \"contracts/QuestManager.sol\":586:768  function addQuest(... */\n    tag_3:\n      tag_14\n      0x04\n      dup1\n      calldatasize\n      sub\n      dup2\n      add\n      swap1\n      tag_15\n      swap2\n      swap1\n      tag_16\n      jump\t// in\n    tag_15:\n      tag_17\n      jump\t// in\n    tag_14:\n      stop\n        /* \"contracts/QuestManager.sol\":1577:1700  function getReward(uint256 questId) external view override returns (uint256) {... */\n    tag_4:\n      tag_18\n      0x04\n      dup1\n      calldatasize\n      sub\n      dup2\n      add\n      swap1\n      tag_19\n      swap2\n      swap1\n      tag_20\n      jump\t// in\n    tag_19:\n      tag_21\n      jump\t// in\n    tag_18:\n      mload(0x40)\n      tag_22\n      swap2\n      swap1\n      tag_23\n      jump\t// in\n    tag_22:\n      mload(0x40)\n      dup1\n      swap2\n      sub\n      swap1\n      return\n        /* \"contracts/QuestManager.sol\":392:456  mapping(address => mapping(uint256 => bool)) public activeQuests */\n    tag_5:\n      tag_24\n      0x04\n      dup1\n      calldatasize\n      sub\n      dup2\n      add\n      swap1\n      tag_25\n      swap2\n      swap1\n      tag_26\n      jump\t// in\n    tag_25:\n      tag_27\n      jump\t// in\n    tag_24:\n      mload(0x40)\n      tag_28\n      swap2\n      swap1\n      tag_29\n      jump\t// in\n    tag_28:\n      mload(0x40)\n      dup1\n      swap2\n      sub\n      swap1\n      return\n        /* \"contracts/QuestManager.sol\":1235:1571  function completeQuest(uint256 questId) external override {... */\n    tag_6:\n      tag_30\n      0x04\n      dup1\n      calldatasize\n      sub\n      dup2\n      add\n      swap1\n      tag_31\n      swap2\n      swap1\n      tag_20\n      jump\t// in\n    tag_31:\n      tag_32\n      jump\t// in\n    tag_30:\n      stop\n        /* \"contracts/QuestManager.sol\":1982:2165  function getPlayer(address player) external view returns (uint256 level, uint256 experience) {... */\n    tag_7:\n      tag_33\n      0x04\n      dup1\n      calldatasize\n      sub\n      dup2\n      add\n      swap1\n      tag_34\n      swap2\n      swap1\n      tag_35\n      jump\t// in\n    tag_34:\n      tag_36\n      jump\t// in\n    tag_33:\n      mload(0x40)\n      tag_37\n      swap3\n      swap2\n      swap1\n      tag_38\n      jump\t// in\n    tag_37:\n      mload(0x40)\n      dup1\n      swap2\n      sub\n      swap1\n      return\n        /* \"contracts/QuestManager.sol\":774:1229  function startQuest(uint256 questId) external override {... */\n    tag_8:\n      tag_39\n      0x04\n      dup1\n      calldatasize\n      sub\n      dup2\n      add\n      swap1\n      tag_40\n      swap2\n      swap1\n      tag_20\n      jump\t// in\n    tag_40:\n      tag_41\n      jump\t// in\n    tag_39:\n      stop\n        /* \"contracts/QuestManager.sol\":300:339  mapping(uint256 => Quest) public quests */\n    tag_9:\n      tag_42\n      0x04\n      dup1\n      calldatasize\n      sub\n      dup2\n      add\n      swap1\n      tag_43\n      swap2\n      swap1\n      tag_20\n      jump\t// in\n    tag_43:\n      tag_44\n      jump\t// in\n    tag_42:\n      mload(0x40)\n      tag_45\n      swap4\n      swap3\n      swap2\n      swap1\n      tag_46\n      jump\t// in\n    tag_45:\n      mload(0x40)\n      dup1\n      swap2\n      sub\n      swap1\n      return\n        /* \"contracts/QuestManager.sol\":345:386  mapping(address => Player) public players */\n    tag_10:\n      tag_47\n      0x04\n      dup1\n      calldatasize\n      sub\n      dup2\n      add\n      swap1\n      tag_48\n      swap2\n      swap1\n      tag_35\n      jump\t// in\n    tag_48:\n      tag_49\n      jump\t// in\n    tag_47:\n      mload(0x40)\n      tag_50\n      swap3\n      swap2\n      swap1\n      tag_38\n      jump\t// in\n    tag_50:\n      mload(0x40)\n      dup1\n      swap2\n      sub\n      swap1\n      return\n        /* \"contracts/QuestManager.sol\":536:579  uint256 public constant EXP_PER_LEVEL = 100 */\n    tag_11:\n      tag_51\n      tag_52\n      jump\t// in\n    tag_51:\n      mload(0x40)\n      tag_53\n      swap2\n      swap1\n      tag_23\n      jump\t// in\n    tag_53:\n      mload(0x40)\n      dup1\n      swap2\n      sub\n      swap1\n      return\n        /* \"contracts/QuestManager.sol\":462:529  mapping(address => mapping(uint256 => bool)) public completedQuests */\n    tag_12:\n      tag_54\n      0x04\n      dup1\n      calldatasize\n      sub\n      dup2\n      add\n      swap1\n      tag_55\n      swap2\n      swap1\n      tag_26\n      jump\t// in\n    tag_55:\n      tag_56\n      jump\t// in\n    tag_54:\n      mload(0x40)\n      tag_57\n      swap2\n      swap1\n      tag_29\n      jump\t// in\n    tag_57:\n      mload(0x40)\n      dup1\n      swap2\n      sub\n      swap1\n      return\n        /* \"contracts/QuestManager.sol\":586:768  function addQuest(... */\n    tag_17:\n        /* \"contracts/QuestManager.sol\":727:761  Quest(reward, requiredLevel, true) */\n      mload(0x40)\n      dup1\n      0x60\n      add\n      0x40\n      mstore\n      dup1\n        /* \"contracts/QuestManager.sol\":733:739  reward */\n      dup4\n        /* \"contracts/QuestManager.sol\":727:761  Quest(reward, requiredLevel, true) */\n      dup2\n      mstore\n      0x20\n      add\n        /* \"contracts/QuestManager.sol\":741:754  requiredLevel */\n      dup3\n        /* \"contracts/QuestManager.sol\":727:761  Quest(reward, requiredLevel, true) */\n      dup2\n      mstore\n      0x20\n      add\n        /* \"contracts/QuestManager.sol\":756:760  true */\n      0x01\n        /* \"contracts/QuestManager.sol\":727:761  Quest(reward, requiredLevel, true) */\n      iszero\n      iszero\n      dup2\n      mstore\n      pop\n        /* \"contracts/QuestManager.sol\":709:715  quests */\n      0x00\n        /* \"contracts/QuestManager.sol\":709:724  quests[questId] */\n      0x00\n        /* \"contracts/QuestManager.sol\":716:723  questId */\n      dup6\n        /* \"contracts/QuestManager.sol\":709:724  quests[questId] */\n      dup2\n      mstore\n      0x20\n      add\n      swap1\n      dup2\n      mstore\n      0x20\n      add\n      0x00\n      keccak256\n        /* \"contracts/QuestManager.sol\":709:761  quests[questId] = Quest(reward, requiredLevel, true) */\n      0x00\n      dup3\n      add\n      mload\n      dup2\n      0x00\n      add\n      sstore\n      0x20\n      dup3\n      add\n      mload\n      dup2\n      0x01\n      add\n      sstore\n      0x40\n      dup3\n      add\n      mload\n      dup2\n      0x02\n      add\n      exp(0x0100, 0x00)\n      dup2\n      sload\n      dup2\n      0xff\n      mul\n      not\n      and\n      swap1\n      dup4\n      iszero\n      iszero\n      mul\n      or\n      swap1\n      sstore\n      pop\n      swap1\n      pop\n      pop\n        /* \"contracts/QuestManager.sol\":586:768  function addQuest(... */\n      pop\n      pop\n      pop\n      jump\t// out\n        /* \"contracts/QuestManager.sol\":1577:1700  function getReward(uint256 questId) external view override returns (uint256) {... */\n    tag_21:\n        /* \"contracts/QuestManager.sol\":1645:1652  uint256 */\n      0x00\n        /* \"contracts/QuestManager.sol\":1671:1677  quests */\n      0x00\n        /* \"contracts/QuestManager.sol\":1671:1686  quests[questId] */\n      0x00\n        /* \"contracts/QuestManager.sol\":1678:1685  questId */\n      dup4\n        /* \"contracts/QuestManager.sol\":1671:1686  quests[questId] */\n      dup2\n      mstore\n      0x20\n      add\n      swap1\n      dup2\n      mstore\n      0x20\n      add\n      0x00\n      keccak256\n        /* \"contracts/QuestManager.sol\":1671:1693  quests[questId].reward */\n      0x00\n      add\n      sload\n        /* \"contracts/QuestManager.sol\":1664:1693  return quests[questId].reward */\n      swap1\n      pop\n        /* \"contracts/QuestManager.sol\":1577:1700  function getReward(uint256 questId) external view override returns (uint256) {... */\n      swap2\n      swap1\n      pop\n      jump\t// out\n        /* \"contracts/QuestManager.sol\":392:456  mapping(address => mapping(uint256 => bool)) public activeQuests */\n    tag_27:\n      mstore(0x20, 0x02)\n      dup2\n      0x00\n      mstore\n      mstore(0x20, keccak256(0x00, 0x40))\n      dup1\n      0x00\n      mstore\n      keccak256(0x00, 0x40)\n      0x00\n      swap2\n      pop\n      swap2\n      pop\n      swap1\n      sload\n      swap1\n      0x0100\n      exp\n      swap1\n      div\n      0xff\n      and\n      dup2\n      jump\t// out\n        /* \"contracts/QuestManager.sol\":1235:1571  function completeQuest(uint256 questId) external override {... */\n    tag_32:\n        /* \"contracts/QuestManager.sol\":1311:1323  activeQuests */\n      0x02\n        /* \"contracts/QuestManager.sol\":1311:1335  activeQuests[msg.sender] */\n      0x00\n        /* \"contracts/QuestManager.sol\":1324:1334  msg.sender */\n      caller\n        /* \"contracts/QuestManager.sol\":1311:1335  activeQuests[msg.sender] */\n      0xffffffffffffffffffffffffffffffffffffffff\n      and\n      0xffffffffffffffffffffffffffffffffffffffff\n      and\n      dup2\n      mstore\n      0x20\n      add\n      swap1\n      dup2\n      mstore\n      0x20\n      add\n      0x00\n      keccak256\n        /* \"contracts/QuestManager.sol\":1311:1344  activeQuests[msg.sender][questId] */\n      0x00\n        /* \"contracts/QuestManager.sol\":1336:1343  questId */\n      dup3\n        /* \"contracts/QuestManager.sol\":1311:1344  activeQuests[msg.sender][questId] */\n      dup2\n      mstore\n      0x20\n      add\n      swap1\n      dup2\n      mstore\n      0x20\n      add\n      0x00\n      keccak256\n      0x00\n      swap1\n      sload\n      swap1\n      0x0100\n      exp\n      swap1\n      div\n      0xff\n      and\n        /* \"contracts/QuestManager.sol\":1303:1365  require(activeQuests[msg.sender][questId], \"Quest not active\") */\n      tag_61\n      jumpi\n      mload(0x40)\n      0x08c379a000000000000000000000000000000000000000000000000000000000\n      dup2\n      mstore\n      0x04\n      add\n      tag_62\n      swap1\n      tag_63\n      jump\t// in\n    tag_62:\n      mload(0x40)\n      dup1\n      swap2\n      sub\n      swap1\n      revert\n    tag_61:\n        /* \"contracts/QuestManager.sol\":1412:1417  false */\n      0x00\n        /* \"contracts/QuestManager.sol\":1376:1388  activeQuests */\n      0x02\n        /* \"contracts/QuestManager.sol\":1376:1400  activeQuests[msg.sender] */\n      0x00\n        /* \"contracts/QuestManager.sol\":1389:1399  msg.sender */\n      caller\n        /* \"contracts/QuestManager.sol\":1376:1400  activeQuests[msg.sender] */\n      0xffffffffffffffffffffffffffffffffffffffff\n      and\n      0xffffffffffffffffffffffffffffffffffffffff\n      and\n      dup2\n      mstore\n      0x20\n      add\n      swap1\n      dup2\n      mstore\n      0x20\n      add\n      0x00\n      keccak256\n        /* \"contracts/QuestManager.sol\":1376:1409  activeQuests[msg.sender][questId] */\n      0x00\n        /* \"contracts/QuestManager.sol\":1401:1408  questId */\n      dup4\n        /* \"contracts/QuestManager.sol\":1376:1409  activeQuests[msg.sender][questId] */\n      dup2\n      mstore\n      0x20\n      add\n      swap1\n      dup2\n      mstore\n      0x20\n      add\n      0x00\n      keccak256\n      0x00\n        /* \"contracts/QuestManager.sol\":1376:1417  activeQuests[msg.sender][questId] = false */\n      0x0100\n      exp\n      dup2\n      sload\n      dup2\n      0xff\n      mul\n      not\n      and\n      swap1\n      dup4\n      iszero\n      iszero\n      mul\n      or\n      swap1\n      sstore\n      pop\n        /* \"contracts/QuestManager.sol\":1466:1470  true */\n      0x01\n        /* \"contracts/QuestManager.sol\":1427:1442  completedQuests */\n      0x03\n        /* \"contracts/QuestManager.sol\":1427:1454  completedQuests[msg.sender] */\n      0x00\n        /* \"contracts/QuestManager.sol\":1443:1453  msg.sender */\n      caller\n        /* \"contracts/QuestManager.sol\":1427:1454  completedQuests[msg.sender] */\n      0xffffffffffffffffffffffffffffffffffffffff\n      and\n      0xffffffffffffffffffffffffffffffffffffffff\n      and\n      dup2\n      mstore\n      0x20\n      add\n      swap1\n      dup2\n      mstore\n      0x20\n      add\n      0x00\n      keccak256\n        /* \"contracts/QuestManager.sol\":1427:1463  completedQuests[msg.sender][questId] */\n      0x00\n        /* \"contracts/QuestManager.sol\":1455:1462  questId */\n      dup4\n        /* \"contracts/QuestManager.sol\":1427:1463  completedQuests[msg.sender][questId] */\n      dup2\n      mstore\n      0x20\n      add\n      swap1\n      dup2\n      mstore\n      0x20\n      add\n      0x00\n      keccak256\n      0x00\n        /* \"contracts/QuestManager.sol\":1427:1470  completedQuests[msg.sender][questId] = true */\n      0x0100\n      exp\n      dup2\n      sload\n      dup2\n      0xff\n      mul\n      not\n      and\n      swap1\n      dup4\n      iszero\n      iszero\n      mul\n      or\n      swap1\n      sstore\n      pop\n        /* \"contracts/QuestManager.sol\":1481:1495  uint256 reward */\n      0x00\n        /* \"contracts/QuestManager.sol\":1498:1504  quests */\n      0x00\n        /* \"contracts/QuestManager.sol\":1498:1513  quests[questId] */\n      0x00\n        /* \"contracts/QuestManager.sol\":1505:1512  questId */\n      dup4\n        /* \"contracts/QuestManager.sol\":1498:1513  quests[questId] */\n      dup2\n      mstore\n      0x20\n      add\n      swap1\n      dup2\n      mstore\n      0x20\n      add\n      0x00\n      keccak256\n        /* \"contracts/QuestManager.sol\":1498:1520  quests[questId].reward */\n      0x00\n      add\n      sload\n        /* \"contracts/QuestManager.sol\":1481:1520  uint256 reward = quests[questId].reward */\n      swap1\n      pop\n        /* \"contracts/QuestManager.sol\":1530:1564  _addExperience(msg.sender, reward) */\n      tag_64\n        /* \"contracts/QuestManager.sol\":1545:1555  msg.sender */\n      caller\n        /* \"contracts/QuestManager.sol\":1557:1563  reward */\n      dup3\n        /* \"contracts/QuestManager.sol\":1530:1544  _addExperience */\n      tag_65\n        /* \"contracts/QuestManager.sol\":1530:1564  _addExperience(msg.sender, reward) */\n      jump\t// in\n    tag_64:\n        /* \"contracts/QuestManager.sol\":1293:1571  {... */\n      pop\n        /* \"contracts/QuestManager.sol\":1235:1571  function completeQuest(uint256 questId) external override {... */\n      pop\n      jump\t// out\n        /* \"contracts/QuestManager.sol\":1982:2165  function getPlayer(address player) external view returns (uint256 level, uint256 experience) {... */\n    tag_36:\n        /* \"contracts/QuestManager.sol\":2040:2053  uint256 level */\n      0x00\n        /* \"contracts/QuestManager.sol\":2055:2073  uint256 experience */\n      0x00\n        /* \"contracts/QuestManager.sol\":2085:2100  Player memory p */\n      0x00\n        /* \"contracts/QuestManager.sol\":2103:2110  players */\n      0x01\n        /* \"contracts/QuestManager.sol\":2103:2118  players[player] */\n      0x00\n        /* \"contracts/QuestManager.sol\":2111:2117  player */\n      dup6\n        /* \"contracts/QuestManager.sol\":2103:2118  players[player] */\n      0xffffffffffffffffffffffffffffffffffffffff\n      and\n      0xffffffffffffffffffffffffffffffffffffffff\n      and\n      dup2\n      mstore\n      0x20\n      add\n      swap1\n      dup2\n      mstore\n      0x20\n      add\n      0x00\n      keccak256\n        /* \"contracts/QuestManager.sol\":2085:2118  Player memory p = players[player] */\n      mload(0x40)\n      dup1\n      0x40\n      add\n      0x40\n      mstore\n      swap1\n      dup2\n      0x00\n      dup3\n      add\n      sload\n      dup2\n      mstore\n      0x20\n      add\n      0x01\n      dup3\n      add\n      sload\n      dup2\n      mstore\n      pop\n      pop\n      swap1\n      pop\n        /* \"contracts/QuestManager.sol\":2136:2137  p */\n      dup1\n        /* \"contracts/QuestManager.sol\":2136:2143  p.level */\n      0x00\n      add\n      mload\n        /* \"contracts/QuestManager.sol\":2145:2146  p */\n      dup2\n        /* \"contracts/QuestManager.sol\":2145:2157  p.experience */\n      0x20\n      add\n      mload\n        /* \"contracts/QuestManager.sol\":2128:2158  return (p.level, p.experience) */\n      swap3\n      pop\n      swap3\n      pop\n      pop\n        /* \"contracts/QuestManager.sol\":1982:2165  function getPlayer(address player) external view returns (uint256 level, uint256 experience) {... */\n      swap2\n      pop\n      swap2\n      jump\t// out\n        /* \"contracts/QuestManager.sol\":774:1229  function startQuest(uint256 questId) external override {... */\n    tag_41:\n        /* \"contracts/QuestManager.sol\":839:857  Quest memory quest */\n      0x00\n        /* \"contracts/QuestManager.sol\":860:866  quests */\n      0x00\n        /* \"contracts/QuestManager.sol\":860:875  quests[questId] */\n      0x00\n        /* \"contracts/QuestManager.sol\":867:874  questId */\n      dup4\n        /* \"contracts/QuestManager.sol\":860:875  quests[questId] */\n      dup2\n      mstore\n      0x20\n      add\n      swap1\n      dup2\n      mstore\n      0x20\n      add\n      0x00\n      keccak256\n        /* \"contracts/QuestManager.sol\":839:875  Quest memory quest = quests[questId] */\n      mload(0x40)\n      dup1\n      0x60\n      add\n      0x40\n      mstore\n      swap1\n      dup2\n      0x00\n      dup3\n      add\n      sload\n      dup2\n      mstore\n      0x20\n      add\n      0x01\n      dup3\n      add\n      sload\n      dup2\n      mstore\n      0x20\n      add\n      0x02\n      dup3\n      add\n      0x00\n      swap1\n      sload\n      swap1\n      0x0100\n      exp\n      swap1\n      div\n      0xff\n      and\n      iszero\n      iszero\n      iszero\n      iszero\n      dup2\n      mstore\n      pop\n      pop\n      swap1\n      pop\n        /* \"contracts/QuestManager.sol\":894:899  quest */\n      dup1\n        /* \"contracts/QuestManager.sol\":894:906  quest.exists */\n      0x40\n      add\n      mload\n        /* \"contracts/QuestManager.sol\":886:926  require(quest.exists, \"Quest not found\") */\n      tag_68\n      jumpi\n      mload(0x40)\n      0x08c379a000000000000000000000000000000000000000000000000000000000\n      dup2\n      mstore\n      0x04\n      add\n      tag_69\n      swap1\n      tag_70\n      jump\t// in\n    tag_69:\n      mload(0x40)\n      dup1\n      swap2\n      sub\n      swap1\n      revert\n    tag_68:\n        /* \"contracts/QuestManager.sol\":973:978  quest */\n      dup1\n        /* \"contracts/QuestManager.sol\":973:992  quest.requiredLevel */\n      0x20\n      add\n      mload\n        /* \"contracts/QuestManager.sol\":944:951  players */\n      0x01\n        /* \"contracts/QuestManager.sol\":944:963  players[msg.sender] */\n      0x00\n        /* \"contracts/QuestManager.sol\":952:962  msg.sender */\n      caller\n        /* \"contracts/QuestManager.sol\":944:963  players[msg.sender] */\n      0xffffffffffffffffffffffffffffffffffffffff\n      and\n      0xffffffffffffffffffffffffffffffffffffffff\n      and\n      dup2\n      mstore\n      0x20\n      add\n      swap1\n      dup2\n      mstore\n      0x20\n      add\n      0x00\n      keccak256\n        /* \"contracts/QuestManager.sol\":944:969  players[msg.sender].level */\n      0x00\n      add\n      sload\n        /* \"contracts/QuestManager.sol\":944:992  players[msg.sender].level >= quest.requiredLevel */\n      lt\n      iszero\n        /* \"contracts/QuestManager.sol\":936:1010  require(players[msg.sender].level >= quest.requiredLevel, \"Level too low\") */\n      tag_71\n      jumpi\n      mload(0x40)\n      0x08c379a000000000000000000000000000000000000000000000000000000000\n      dup2\n      mstore\n      0x04\n      add\n      tag_72\n      swap1\n      tag_73\n      jump\t// in\n    tag_72:\n      mload(0x40)\n      dup1\n      swap2\n      sub\n      swap1\n      revert\n    tag_71:\n        /* \"contracts/QuestManager.sol\":1029:1041  activeQuests */\n      0x02\n        /* \"contracts/QuestManager.sol\":1029:1053  activeQuests[msg.sender] */\n      0x00\n        /* \"contracts/QuestManager.sol\":1042:1052  msg.sender */\n      caller\n        /* \"contracts/QuestManager.sol\":1029:1053  activeQuests[msg.sender] */\n      0xffffffffffffffffffffffffffffffffffffffff\n      and\n      0xffffffffffffffffffffffffffffffffffffffff\n      and\n      dup2\n      mstore\n      0x20\n      add\n      swap1\n      dup2\n      mstore\n      0x20\n      add\n      0x00\n      keccak256\n        /* \"contracts/QuestManager.sol\":1029:1062  activeQuests[msg.sender][questId] */\n      0x00\n        /* \"contracts/QuestManager.sol\":1054:1061  questId */\n      dup4\n        /* \"contracts/QuestManager.sol\":1029:1062  activeQuests[msg.sender][questId] */\n      dup2\n      mstore\n      0x20\n      add\n      swap1\n      dup2\n      mstore\n      0x20\n      add\n      0x00\n      keccak256\n      0x00\n      swap1\n      sload\n      swap1\n      0x0100\n      exp\n      swap1\n      div\n      0xff\n      and\n        /* \"contracts/QuestManager.sol\":1028:1062  !activeQuests[msg.sender][questId] */\n      iszero\n        /* \"contracts/QuestManager.sol\":1020:1088  require(!activeQuests[msg.sender][questId], \"Quest already started\") */\n      tag_74\n      jumpi\n      mload(0x40)\n      0x08c379a000000000000000000000000000000000000000000000000000000000\n      dup2\n      mstore\n      0x04\n      add\n      tag_75\n      swap1\n      tag_76\n      jump\t// in\n    tag_75:\n      mload(0x40)\n      dup1\n      swap2\n      sub\n      swap1\n      revert\n    tag_74:\n        /* \"contracts/QuestManager.sol\":1107:1122  completedQuests */\n      0x03\n        /* \"contracts/QuestManager.sol\":1107:1134  completedQuests[msg.sender] */\n      0x00\n        /* \"contracts/QuestManager.sol\":1123:1133  msg.sender */\n      caller\n        /* \"contracts/QuestManager.sol\":1107:1134  completedQuests[msg.sender] */\n      0xffffffffffffffffffffffffffffffffffffffff\n      and\n      0xffffffffffffffffffffffffffffffffffffffff\n      and\n      dup2\n      mstore\n      0x20\n      add\n      swap1\n      dup2\n      mstore\n      0x20\n      add\n      0x00\n      keccak256\n        /* \"contracts/QuestManager.sol\":1107:1143  completedQuests[msg.sender][questId] */\n      0x00\n        /* \"contracts/QuestManager.sol\":1135:1142  questId */\n      dup4\n        /* \"contracts/QuestManager.sol\":1107:1143  completedQuests[msg.sender][questId] */\n      dup2\n      mstore\n      0x20\n      add\n      swap1\n      dup2\n      mstore\n      0x20\n      add\n      0x00\n      keccak256\n      0x00\n      swap1\n      sload\n      swap1\n      0x0100\n      exp\n      swap1\n      div\n      0xff\n      and\n        /* \"contracts/QuestManager.sol\":1106:1143  !completedQuests[msg.sender][questId] */\n      iszero\n        /* \"contracts/QuestManager.sol\":1098:1171  require(!completedQuests[msg.sender][questId], \"Quest already completed\") */\n      tag_77\n      jumpi\n      mload(0x40)\n      0x08c379a000000000000000000000000000000000000000000000000000000000\n      dup2\n      mstore\n      0x04\n      add\n      tag_78\n      swap1\n      tag_79\n      jump\t// in\n    tag_78:\n      mload(0x40)\n      dup1\n      swap2\n      sub\n      swap1\n      revert\n    tag_77:\n        /* \"contracts/QuestManager.sol\":1218:1222  true */\n      0x01\n        /* \"contracts/QuestManager.sol\":1182:1194  activeQuests */\n      0x02\n        /* \"contracts/QuestManager.sol\":1182:1206  activeQuests[msg.sender] */\n      0x00\n        /* \"contracts/QuestManager.sol\":1195:1205  msg.sender */\n      caller\n        /* \"contracts/QuestManager.sol\":1182:1206  activeQuests[msg.sender] */\n      0xffffffffffffffffffffffffffffffffffffffff\n      and\n      0xffffffffffffffffffffffffffffffffffffffff\n      and\n      dup2\n      mstore\n      0x20\n      add\n      swap1\n      dup2\n      mstore\n      0x20\n      add\n      0x00\n      keccak256\n        /* \"contracts/QuestManager.sol\":1182:1215  activeQuests[msg.sender][questId] */\n      0x00\n        /* \"contracts/QuestManager.sol\":1207:1214  questId */\n      dup5\n        /* \"contracts/QuestManager.sol\":1182:1215  activeQuests[msg.sender][questId] */\n      dup2\n      mstore\n      0x20\n      add\n      swap1\n      dup2\n      mstore\n      0x20\n      add\n      0x00\n      keccak256\n      0x00\n        /* \"contracts/QuestManager.sol\":1182:1222  activeQuests[msg.sender][questId] = true */\n      0x0100\n      exp\n      dup2\n      sload\n      dup2\n      0xff\n      mul\n      not\n      and\n      swap1\n      dup4\n      iszero\n      iszero\n      mul\n      or\n      swap1\n      sstore\n      pop\n        /* \"contracts/QuestManager.sol\":829:1229  {... */\n      pop\n        /* \"contracts/QuestManager.sol\":774:1229  function startQuest(uint256 questId) external override {... */\n      pop\n      jump\t// out\n        /* \"contracts/QuestManager.sol\":300:339  mapping(uint256 => Quest) public quests */\n    tag_44:\n      mstore(0x20, 0x00)\n      dup1\n      0x00\n      mstore\n      keccak256(0x00, 0x40)\n      0x00\n      swap2\n      pop\n      swap1\n      pop\n      dup1\n      0x00\n      add\n      sload\n      swap1\n      dup1\n      0x01\n      add\n      sload\n      swap1\n      dup1\n      0x02\n      add\n      0x00\n      swap1\n      sload\n      swap1\n      0x0100\n      exp\n      swap1\n      div\n      0xff\n      and\n      swap1\n      pop\n      dup4\n      jump\t// out\n        /* \"contracts/QuestManager.sol\":345:386  mapping(address => Player) public players */\n    tag_49:\n      mstore(0x20, 0x01)\n      dup1\n      0x00\n      mstore\n      keccak256(0x00, 0x40)\n      0x00\n      swap2\n      pop\n      swap1\n      pop\n      dup1\n      0x00\n      add\n      sload\n      swap1\n      dup1\n      0x01\n      add\n      sload\n      swap1\n      pop\n      dup3\n      jump\t// out\n        /* \"contracts/QuestManager.sol\":536:579  uint256 public constant EXP_PER_LEVEL = 100 */\n    tag_52:\n        /* \"contracts/QuestManager.sol\":576:579  100 */\n      0x64\n        /* \"contracts/QuestManager.sol\":536:579  uint256 public constant EXP_PER_LEVEL = 100 */\n      dup2\n      jump\t// out\n        /* \"contracts/QuestManager.sol\":462:529  mapping(address => mapping(uint256 => bool)) public completedQuests */\n    tag_56:\n      mstore(0x20, 0x03)\n      dup2\n      0x00\n      mstore\n      mstore(0x20, keccak256(0x00, 0x40))\n      dup1\n      0x00\n      mstore\n      keccak256(0x00, 0x40)\n      0x00\n      swap2\n      pop\n      swap2\n      pop\n      swap1\n      sload\n      swap1\n      0x0100\n      exp\n      swap1\n      div\n      0xff\n      and\n      dup2\n      jump\t// out\n        /* \"contracts/QuestManager.sol\":1706:1976  function _addExperience(address player, uint256 exp) internal {... */\n    tag_65:\n        /* \"contracts/QuestManager.sol\":1778:1794  Player storage p */\n      0x00\n        /* \"contracts/QuestManager.sol\":1797:1804  players */\n      0x01\n        /* \"contracts/QuestManager.sol\":1797:1812  players[player] */\n      0x00\n        /* \"contracts/QuestManager.sol\":1805:1811  player */\n      dup5\n        /* \"contracts/QuestManager.sol\":1797:1812  players[player] */\n      0xffffffffffffffffffffffffffffffffffffffff\n      and\n      0xffffffffffffffffffffffffffffffffffffffff\n      and\n      dup2\n      mstore\n      0x20\n      add\n      swap1\n      dup2\n      mstore\n      0x20\n      add\n      0x00\n      keccak256\n        /* \"contracts/QuestManager.sol\":1778:1812  Player storage p = players[player] */\n      swap1\n      pop\n        /* \"contracts/QuestManager.sol\":1838:1841  exp */\n      dup2\n        /* \"contracts/QuestManager.sol\":1822:1823  p */\n      dup2\n        /* \"contracts/QuestManager.sol\":1822:1834  p.experience */\n      0x01\n      add\n      0x00\n        /* \"contracts/QuestManager.sol\":1822:1841  p.experience += exp */\n      dup3\n      dup3\n      sload\n      tag_81\n      swap2\n      swap1\n      tag_82\n      jump\t// in\n    tag_81:\n      swap3\n      pop\n      pop\n      dup2\n      swap1\n      sstore\n      pop\n        /* \"contracts/QuestManager.sol\":1852:1970  while (p.experience >= EXP_PER_LEVEL) {... */\n    tag_83:\n        /* \"contracts/QuestManager.sol\":576:579  100 */\n      0x64\n        /* \"contracts/QuestManager.sol\":1859:1860  p */\n      dup2\n        /* \"contracts/QuestManager.sol\":1859:1871  p.experience */\n      0x01\n      add\n      sload\n        /* \"contracts/QuestManager.sol\":1859:1888  p.experience >= EXP_PER_LEVEL */\n      lt\n        /* \"contracts/QuestManager.sol\":1852:1970  while (p.experience >= EXP_PER_LEVEL) {... */\n      tag_84\n      jumpi\n        /* \"contracts/QuestManager.sol\":576:579  100 */\n      0x64\n        /* \"contracts/QuestManager.sol\":1904:1905  p */\n      dup2\n        /* \"contracts/QuestManager.sol\":1904:1916  p.experience */\n      0x01\n      add\n      0x00\n        /* \"contracts/QuestManager.sol\":1904:1933  p.experience -= EXP_PER_LEVEL */\n      dup3\n      dup3\n      sload\n      tag_85\n      swap2\n      swap1\n      tag_86\n      jump\t// in\n    tag_85:\n      swap3\n      pop\n      pop\n      dup2\n      swap1\n      sstore\n      pop\n        /* \"contracts/QuestManager.sol\":1958:1959  1 */\n      0x01\n        /* \"contracts/QuestManager.sol\":1947:1948  p */\n      dup2\n        /* \"contracts/QuestManager.sol\":1947:1954  p.level */\n      0x00\n      add\n      0x00\n        /* \"contracts/QuestManager.sol\":1947:1959  p.level += 1 */\n      dup3\n      dup3\n      sload\n      tag_87\n      swap2\n      swap1\n      tag_82\n      jump\t// in\n    tag_87:\n      swap3\n      pop\n      pop\n      dup2\n      swap1\n      sstore\n      pop\n        /* \"contracts/QuestManager.sol\":1852:1970  while (p.experience >= EXP_PER_LEVEL) {... */\n      jump(tag_83)\n    tag_84:\n        /* \"contracts/QuestManager.sol\":1768:1976  {... */\n      pop\n        /* \"contracts/QuestManager.sol\":1706:1976  function _addExperience(address player, uint256 exp) internal {... */\n      pop\n      pop\n      jump\t// out\n        /* \"#utility.yul\":88:205   */\n    tag_89:\n        /* \"#utility.yul\":197:198   */\n      0x00\n        /* \"#utility.yul\":194:195   */\n      0x00\n        /* \"#utility.yul\":187:199   */\n      revert\n        /* \"#utility.yul\":334:411   */\n    tag_91:\n        /* \"#utility.yul\":371:378   */\n      0x00\n        /* \"#utility.yul\":400:405   */\n      dup2\n        /* \"#utility.yul\":389:405   */\n      swap1\n      pop\n        /* \"#utility.yul\":334:411   */\n      swap2\n      swap1\n      pop\n      jump\t// out\n        /* \"#utility.yul\":417:539   */\n    tag_92:\n        /* \"#utility.yul\":490:514   */\n      tag_119\n        /* \"#utility.yul\":508:513   */\n      dup2\n        /* \"#utility.yul\":490:514   */\n      tag_91\n      jump\t// in\n    tag_119:\n        /* \"#utility.yul\":483:488   */\n      dup2\n        /* \"#utility.yul\":480:515   */\n      eq\n        /* \"#utility.yul\":470:533   */\n      tag_120\n      jumpi\n        /* \"#utility.yul\":529:530   */\n      0x00\n        /* \"#utility.yul\":526:527   */\n      0x00\n        /* \"#utility.yul\":519:531   */\n      revert\n        /* \"#utility.yul\":470:533   */\n    tag_120:\n        /* \"#utility.yul\":417:539   */\n      pop\n      jump\t// out\n        /* \"#utility.yul\":545:684   */\n    tag_93:\n        /* \"#utility.yul\":591:596   */\n      0x00\n        /* \"#utility.yul\":629:635   */\n      dup2\n        /* \"#utility.yul\":616:636   */\n      calldataload\n        /* \"#utility.yul\":607:636   */\n      swap1\n      pop\n        /* \"#utility.yul\":645:678   */\n      tag_122\n        /* \"#utility.yul\":672:677   */\n      dup2\n        /* \"#utility.yul\":645:678   */\n      tag_92\n      jump\t// in\n    tag_122:\n        /* \"#utility.yul\":545:684   */\n      swap3\n      swap2\n      pop\n      pop\n      jump\t// out\n        /* \"#utility.yul\":690:1309   */\n    tag_16:\n        /* \"#utility.yul\":767:773   */\n      0x00\n        /* \"#utility.yul\":775:781   */\n      0x00\n        /* \"#utility.yul\":783:789   */\n      0x00\n        /* \"#utility.yul\":832:834   */\n      0x60\n        /* \"#utility.yul\":820:829   */\n      dup5\n        /* \"#utility.yul\":811:818   */\n      dup7\n        /* \"#utility.yul\":807:830   */\n      sub\n        /* \"#utility.yul\":803:835   */\n      slt\n        /* \"#utility.yul\":800:919   */\n      iszero\n      tag_124\n      jumpi\n        /* \"#utility.yul\":838:917   */\n      tag_125\n      tag_89\n      jump\t// in\n    tag_125:\n        /* \"#utility.yul\":800:919   */\n    tag_124:\n        /* \"#utility.yul\":958:959   */\n      0x00\n        /* \"#utility.yul\":983:1036   */\n      tag_126\n        /* \"#utility.yul\":1028:1035   */\n      dup7\n        /* \"#utility.yul\":1019:1025   */\n      dup3\n        /* \"#utility.yul\":1008:1017   */\n      dup8\n        /* \"#utility.yul\":1004:1026   */\n      add\n        /* \"#utility.yul\":983:1036   */\n      tag_93\n      jump\t// in\n    tag_126:\n        /* \"#utility.yul\":973:1036   */\n      swap4\n      pop\n        /* \"#utility.yul\":929:1046   */\n      pop\n        /* \"#utility.yul\":1085:1087   */\n      0x20\n        /* \"#utility.yul\":1111:1164   */\n      tag_127\n        /* \"#utility.yul\":1156:1163   */\n      dup7\n        /* \"#utility.yul\":1147:1153   */\n      dup3\n        /* \"#utility.yul\":1136:1145   */\n      dup8\n        /* \"#utility.yul\":1132:1154   */\n      add\n        /* \"#utility.yul\":1111:1164   */\n      tag_93\n      jump\t// in\n    tag_127:\n        /* \"#utility.yul\":1101:1164   */\n      swap3\n      pop\n        /* \"#utility.yul\":1056:1174   */\n      pop\n        /* \"#utility.yul\":1213:1215   */\n      0x40\n        /* \"#utility.yul\":1239:1292   */\n      tag_128\n        /* \"#utility.yul\":1284:1291   */\n      dup7\n        /* \"#utility.yul\":1275:1281   */\n      dup3\n        /* \"#utility.yul\":1264:1273   */\n      dup8\n        /* \"#utility.yul\":1260:1282   */\n      add\n        /* \"#utility.yul\":1239:1292   */\n      tag_93\n      jump\t// in\n    tag_128:\n        /* \"#utility.yul\":1229:1292   */\n      swap2\n      pop\n        /* \"#utility.yul\":1184:1302   */\n      pop\n        /* \"#utility.yul\":690:1309   */\n      swap3\n      pop\n      swap3\n      pop\n      swap3\n      jump\t// out\n        /* \"#utility.yul\":1315:1644   */\n    tag_20:\n        /* \"#utility.yul\":1374:1380   */\n      0x00\n        /* \"#utility.yul\":1423:1425   */\n      0x20\n        /* \"#utility.yul\":1411:1420   */\n      dup3\n        /* \"#utility.yul\":1402:1409   */\n      dup5\n        /* \"#utility.yul\":1398:1421   */\n      sub\n        /* \"#utility.yul\":1394:1426   */\n      slt\n        /* \"#utility.yul\":1391:1510   */\n      iszero\n      tag_130\n      jumpi\n        /* \"#utility.yul\":1429:1508   */\n      tag_131\n      tag_89\n      jump\t// in\n    tag_131:\n        /* \"#utility.yul\":1391:1510   */\n    tag_130:\n        /* \"#utility.yul\":1549:1550   */\n      0x00\n        /* \"#utility.yul\":1574:1627   */\n      tag_132\n        /* \"#utility.yul\":1619:1626   */\n      dup5\n        /* \"#utility.yul\":1610:1616   */\n      dup3\n        /* \"#utility.yul\":1599:1608   */\n      dup6\n        /* \"#utility.yul\":1595:1617   */\n      add\n        /* \"#utility.yul\":1574:1627   */\n      tag_93\n      jump\t// in\n    tag_132:\n        /* \"#utility.yul\":1564:1627   */\n      swap2\n      pop\n        /* \"#utility.yul\":1520:1637   */\n      pop\n        /* \"#utility.yul\":1315:1644   */\n      swap3\n      swap2\n      pop\n      pop\n      jump\t// out\n        /* \"#utility.yul\":1650:1768   */\n    tag_94:\n        /* \"#utility.yul\":1737:1761   */\n      tag_134\n        /* \"#utility.yul\":1755:1760   */\n      dup2\n        /* \"#utility.yul\":1737:1761   */\n      tag_91\n      jump\t// in\n    tag_134:\n        /* \"#utility.yul\":1732:1735   */\n      dup3\n        /* \"#utility.yul\":1725:1762   */\n      mstore\n        /* \"#utility.yul\":1650:1768   */\n      pop\n      pop\n      jump\t// out\n        /* \"#utility.yul\":1774:1996   */\n    tag_23:\n        /* \"#utility.yul\":1867:1871   */\n      0x00\n        /* \"#utility.yul\":1905:1907   */\n      0x20\n        /* \"#utility.yul\":1894:1903   */\n      dup3\n        /* \"#utility.yul\":1890:1908   */\n      add\n        /* \"#utility.yul\":1882:1908   */\n      swap1\n      pop\n        /* \"#utility.yul\":1918:1989   */\n      tag_136\n        /* \"#utility.yul\":1986:1987   */\n      0x00\n        /* \"#utility.yul\":1975:1984   */\n      dup4\n        /* \"#utility.yul\":1971:1988   */\n      add\n        /* \"#utility.yul\":1962:1968   */\n      dup5\n        /* \"#utility.yul\":1918:1989   */\n      tag_94\n      jump\t// in\n    tag_136:\n        /* \"#utility.yul\":1774:1996   */\n      swap3\n      swap2\n      pop\n      pop\n      jump\t// out\n        /* \"#utility.yul\":2002:2128   */\n    tag_95:\n        /* \"#utility.yul\":2039:2046   */\n      0x00\n        /* \"#utility.yul\":2079:2121   */\n      0xffffffffffffffffffffffffffffffffffffffff\n        /* \"#utility.yul\":2072:2077   */\n      dup3\n        /* \"#utility.yul\":2068:2122   */\n      and\n        /* \"#utility.yul\":2057:2122   */\n      swap1\n      pop\n        /* \"#utility.yul\":2002:2128   */\n      swap2\n      swap1\n      pop\n      jump\t// out\n        /* \"#utility.yul\":2134:2230   */\n    tag_96:\n        /* \"#utility.yul\":2171:2178   */\n      0x00\n        /* \"#utility.yul\":2200:2224   */\n      tag_139\n        /* \"#utility.yul\":2218:2223   */\n      dup3\n        /* \"#utility.yul\":2200:2224   */\n      tag_95\n      jump\t// in\n    tag_139:\n        /* \"#utility.yul\":2189:2224   */\n      swap1\n      pop\n        /* \"#utility.yul\":2134:2230   */\n      swap2\n      swap1\n      pop\n      jump\t// out\n        /* \"#utility.yul\":2236:2358   */\n    tag_97:\n        /* \"#utility.yul\":2309:2333   */\n      tag_141\n        /* \"#utility.yul\":2327:2332   */\n      dup2\n        /* \"#utility.yul\":2309:2333   */\n      tag_96\n      jump\t// in\n    tag_141:\n        /* \"#utility.yul\":2302:2307   */\n      dup2\n        /* \"#utility.yul\":2299:2334   */\n      eq\n        /* \"#utility.yul\":2289:2352   */\n      tag_142\n      jumpi\n        /* \"#utility.yul\":2348:2349   */\n      0x00\n        /* \"#utility.yul\":2345:2346   */\n      0x00\n        /* \"#utility.yul\":2338:2350   */\n      revert\n        /* \"#utility.yul\":2289:2352   */\n    tag_142:\n        /* \"#utility.yul\":2236:2358   */\n      pop\n      jump\t// out\n        /* \"#utility.yul\":2364:2503   */\n    tag_98:\n        /* \"#utility.yul\":2410:2415   */\n      0x00\n        /* \"#utility.yul\":2448:2454   */\n      dup2\n        /* \"#utility.yul\":2435:2455   */\n      calldataload\n        /* \"#utility.yul\":2426:2455   */\n      swap1\n      pop\n        /* \"#utility.yul\":2464:2497   */\n      tag_144\n        /* \"#utility.yul\":2491:2496   */\n      dup2\n        /* \"#utility.yul\":2464:2497   */\n      tag_97\n      jump\t// in\n    tag_144:\n        /* \"#utility.yul\":2364:2503   */\n      swap3\n      swap2\n      pop\n      pop\n      jump\t// out\n        /* \"#utility.yul\":2509:2983   */\n    tag_26:\n        /* \"#utility.yul\":2577:2583   */\n      0x00\n        /* \"#utility.yul\":2585:2591   */\n      0x00\n        /* \"#utility.yul\":2634:2636   */\n      0x40\n        /* \"#utility.yul\":2622:2631   */\n      dup4\n        /* \"#utility.yul\":2613:2620   */\n      dup6\n        /* \"#utility.yul\":2609:2632   */\n      sub\n        /* \"#utility.yul\":2605:2637   */\n      slt\n        /* \"#utility.yul\":2602:2721   */\n      iszero\n      tag_146\n      jumpi\n        /* \"#utility.yul\":2640:2719   */\n      tag_147\n      tag_89\n      jump\t// in\n    tag_147:\n        /* \"#utility.yul\":2602:2721   */\n    tag_146:\n        /* \"#utility.yul\":2760:2761   */\n      0x00\n        /* \"#utility.yul\":2785:2838   */\n      tag_148\n        /* \"#utility.yul\":2830:2837   */\n      dup6\n        /* \"#utility.yul\":2821:2827   */\n      dup3\n        /* \"#utility.yul\":2810:2819   */\n      dup7\n        /* \"#utility.yul\":2806:2828   */\n      add\n        /* \"#utility.yul\":2785:2838   */\n      tag_98\n      jump\t// in\n    tag_148:\n        /* \"#utility.yul\":2775:2838   */\n      swap3\n      pop\n        /* \"#utility.yul\":2731:2848   */\n      pop\n        /* \"#utility.yul\":2887:2889   */\n      0x20\n        /* \"#utility.yul\":2913:2966   */\n      tag_149\n        /* \"#utility.yul\":2958:2965   */\n      dup6\n        /* \"#utility.yul\":2949:2955   */\n      dup3\n        /* \"#utility.yul\":2938:2947   */\n      dup7\n        /* \"#utility.yul\":2934:2956   */\n      add\n        /* \"#utility.yul\":2913:2966   */\n      tag_93\n      jump\t// in\n    tag_149:\n        /* \"#utility.yul\":2903:2966   */\n      swap2\n      pop\n        /* \"#utility.yul\":2858:2976   */\n      pop\n        /* \"#utility.yul\":2509:2983   */\n      swap3\n      pop\n      swap3\n      swap1\n      pop\n      jump\t// out\n        /* \"#utility.yul\":2989:3079   */\n    tag_99:\n        /* \"#utility.yul\":3023:3030   */\n      0x00\n        /* \"#utility.yul\":3066:3071   */\n      dup2\n        /* \"#utility.yul\":3059:3072   */\n      iszero\n        /* \"#utility.yul\":3052:3073   */\n      iszero\n        /* \"#utility.yul\":3041:3073   */\n      swap1\n      pop\n        /* \"#utility.yul\":2989:3079   */\n      swap2\n      swap1\n      pop\n      jump\t// out\n        /* \"#utility.yul\":3085:3194   */\n    tag_100:\n        /* \"#utility.yul\":3166:3187   */\n      tag_152\n        /* \"#utility.yul\":3181:3186   */\n      dup2\n        /* \"#utility.yul\":3166:3187   */\n      tag_99\n      jump\t// in\n    tag_152:\n        /* \"#utility.yul\":3161:3164   */\n      dup3\n        /* \"#utility.yul\":3154:3188   */\n      mstore\n        /* \"#utility.yul\":3085:3194   */\n      pop\n      pop\n      jump\t// out\n        /* \"#utility.yul\":3200:3410   */\n    tag_29:\n        /* \"#utility.yul\":3287:3291   */\n      0x00\n        /* \"#utility.yul\":3325:3327   */\n      0x20\n        /* \"#utility.yul\":3314:3323   */\n      dup3\n        /* \"#utility.yul\":3310:3328   */\n      add\n        /* \"#utility.yul\":3302:3328   */\n      swap1\n      pop\n        /* \"#utility.yul\":3338:3403   */\n      tag_154\n        /* \"#utility.yul\":3400:3401   */\n      0x00\n        /* \"#utility.yul\":3389:3398   */\n      dup4\n        /* \"#utility.yul\":3385:3402   */\n      add\n        /* \"#utility.yul\":3376:3382   */\n      dup5\n        /* \"#utility.yul\":3338:3403   */\n      tag_100\n      jump\t// in\n    tag_154:\n        /* \"#utility.yul\":3200:3410   */\n      swap3\n      swap2\n      pop\n      pop\n      jump\t// out\n        /* \"#utility.yul\":3416:3745   */\n    tag_35:\n        /* \"#utility.yul\":3475:3481   */\n      0x00\n        /* \"#utility.yul\":3524:3526   */\n      0x20\n        /* \"#utility.yul\":3512:3521   */\n      dup3\n        /* \"#utility.yul\":3503:3510   */\n      dup5\n        /* \"#utility.yul\":3499:3522   */\n      sub\n        /* \"#utility.yul\":3495:3527   */\n      slt\n        /* \"#utility.yul\":3492:3611   */\n      iszero\n      tag_156\n      jumpi\n        /* \"#utility.yul\":3530:3609   */\n      tag_157\n      tag_89\n      jump\t// in\n    tag_157:\n        /* \"#utility.yul\":3492:3611   */\n    tag_156:\n        /* \"#utility.yul\":3650:3651   */\n      0x00\n        /* \"#utility.yul\":3675:3728   */\n      tag_158\n        /* \"#utility.yul\":3720:3727   */\n      dup5\n        /* \"#utility.yul\":3711:3717   */\n      dup3\n        /* \"#utility.yul\":3700:3709   */\n      dup6\n        /* \"#utility.yul\":3696:3718   */\n      add\n        /* \"#utility.yul\":3675:3728   */\n      tag_98\n      jump\t// in\n    tag_158:\n        /* \"#utility.yul\":3665:3728   */\n      swap2\n      pop\n        /* \"#utility.yul\":3621:3738   */\n      pop\n        /* \"#utility.yul\":3416:3745   */\n      swap3\n      swap2\n      pop\n      pop\n      jump\t// out\n        /* \"#utility.yul\":3751:4083   */\n    tag_38:\n        /* \"#utility.yul\":3872:3876   */\n      0x00\n        /* \"#utility.yul\":3910:3912   */\n      0x40\n        /* \"#utility.yul\":3899:3908   */\n      dup3\n        /* \"#utility.yul\":3895:3913   */\n      add\n        /* \"#utility.yul\":3887:3913   */\n      swap1\n      pop\n        /* \"#utility.yul\":3923:3994   */\n      tag_160\n        /* \"#utility.yul\":3991:3992   */\n      0x00\n        /* \"#utility.yul\":3980:3989   */\n      dup4\n        /* \"#utility.yul\":3976:3993   */\n      add\n        /* \"#utility.yul\":3967:3973   */\n      dup6\n        /* \"#utility.yul\":3923:3994   */\n      tag_94\n      jump\t// in\n    tag_160:\n        /* \"#utility.yul\":4004:4076   */\n      tag_161\n        /* \"#utility.yul\":4072:4074   */\n      0x20\n        /* \"#utility.yul\":4061:4070   */\n      dup4\n        /* \"#utility.yul\":4057:4075   */\n      add\n        /* \"#utility.yul\":4048:4054   */\n      dup5\n        /* \"#utility.yul\":4004:4076   */\n      tag_94\n      jump\t// in\n    tag_161:\n        /* \"#utility.yul\":3751:4083   */\n      swap4\n      swap3\n      pop\n      pop\n      pop\n      jump\t// out\n        /* \"#utility.yul\":4089:4519   */\n    tag_46:\n        /* \"#utility.yul\":4232:4236   */\n      0x00\n        /* \"#utility.yul\":4270:4272   */\n      0x60\n        /* \"#utility.yul\":4259:4268   */\n      dup3\n        /* \"#utility.yul\":4255:4273   */\n      add\n        /* \"#utility.yul\":4247:4273   */\n      swap1\n      pop\n        /* \"#utility.yul\":4283:4354   */\n      tag_163\n        /* \"#utility.yul\":4351:4352   */\n      0x00\n        /* \"#utility.yul\":4340:4349   */\n      dup4\n        /* \"#utility.yul\":4336:4353   */\n      add\n        /* \"#utility.yul\":4327:4333   */\n      dup7\n        /* \"#utility.yul\":4283:4354   */\n      tag_94\n      jump\t// in\n    tag_163:\n        /* \"#utility.yul\":4364:4436   */\n      tag_164\n        /* \"#utility.yul\":4432:4434   */\n      0x20\n        /* \"#utility.yul\":4421:4430   */\n      dup4\n        /* \"#utility.yul\":4417:4435   */\n      add\n        /* \"#utility.yul\":4408:4414   */\n      dup6\n        /* \"#utility.yul\":4364:4436   */\n      tag_94\n      jump\t// in\n    tag_164:\n        /* \"#utility.yul\":4446:4512   */\n      tag_165\n        /* \"#utility.yul\":4508:4510   */\n      0x40\n        /* \"#utility.yul\":4497:4506   */\n      dup4\n        /* \"#utility.yul\":4493:4511   */\n      add\n        /* \"#utility.yul\":4484:4490   */\n      dup5\n        /* \"#utility.yul\":4446:4512   */\n      tag_100\n      jump\t// in\n    tag_165:\n        /* \"#utility.yul\":4089:4519   */\n      swap5\n      swap4\n      pop\n      pop\n      pop\n      pop\n      jump\t// out\n        /* \"#utility.yul\":4525:4694   */\n    tag_101:\n        /* \"#utility.yul\":4609:4620   */\n      0x00\n        /* \"#utility.yul\":4643:4649   */\n      dup3\n        /* \"#utility.yul\":4638:4641   */\n      dup3\n        /* \"#utility.yul\":4631:4650   */\n      mstore\n        /* \"#utility.yul\":4683:4687   */\n      0x20\n        /* \"#utility.yul\":4678:4681   */\n      dup3\n        /* \"#utility.yul\":4674:4688   */\n      add\n        /* \"#utility.yul\":4659:4688   */\n      swap1\n      pop\n        /* \"#utility.yul\":4525:4694   */\n      swap3\n      swap2\n      pop\n      pop\n      jump\t// out\n        /* \"#utility.yul\":4700:4866   */\n    tag_102:\n        /* \"#utility.yul\":4840:4858   */\n      0x5175657374206e6f742061637469766500000000000000000000000000000000\n        /* \"#utility.yul\":4836:4837   */\n      0x00\n        /* \"#utility.yul\":4828:4834   */\n      dup3\n        /* \"#utility.yul\":4824:4838   */\n      add\n        /* \"#utility.yul\":4817:4859   */\n      mstore\n        /* \"#utility.yul\":4700:4866   */\n      pop\n      jump\t// out\n        /* \"#utility.yul\":4872:5238   */\n    tag_103:\n        /* \"#utility.yul\":5014:5017   */\n      0x00\n        /* \"#utility.yul\":5035:5102   */\n      tag_169\n        /* \"#utility.yul\":5099:5101   */\n      0x10\n        /* \"#utility.yul\":5094:5097   */\n      dup4\n        /* \"#utility.yul\":5035:5102   */\n      tag_101\n      jump\t// in\n    tag_169:\n        /* \"#utility.yul\":5028:5102   */\n      swap2\n      pop\n        /* \"#utility.yul\":5111:5204   */\n      tag_170\n        /* \"#utility.yul\":5200:5203   */\n      dup3\n        /* \"#utility.yul\":5111:5204   */\n      tag_102\n      jump\t// in\n    tag_170:\n        /* \"#utility.yul\":5229:5231   */\n      0x20\n        /* \"#utility.yul\":5224:5227   */\n      dup3\n        /* \"#utility.yul\":5220:5232   */\n      add\n        /* \"#utility.yul\":5213:5232   */\n      swap1\n      pop\n        /* \"#utility.yul\":4872:5238   */\n      swap2\n      swap1\n      pop\n      jump\t// out\n        /* \"#utility.yul\":5244:5663   */\n    tag_63:\n        /* \"#utility.yul\":5410:5414   */\n      0x00\n        /* \"#utility.yul\":5448:5450   */\n      0x20\n        /* \"#utility.yul\":5437:5446   */\n      dup3\n        /* \"#utility.yul\":5433:5451   */\n      add\n        /* \"#utility.yul\":5425:5451   */\n      swap1\n      pop\n        /* \"#utility.yul\":5497:5506   */\n      dup2\n        /* \"#utility.yul\":5491:5495   */\n      dup2\n        /* \"#utility.yul\":5487:5507   */\n      sub\n        /* \"#utility.yul\":5483:5484   */\n      0x00\n        /* \"#utility.yul\":5472:5481   */\n      dup4\n        /* \"#utility.yul\":5468:5485   */\n      add\n        /* \"#utility.yul\":5461:5508   */\n      mstore\n        /* \"#utility.yul\":5525:5656   */\n      tag_172\n        /* \"#utility.yul\":5651:5655   */\n      dup2\n        /* \"#utility.yul\":5525:5656   */\n      tag_103\n      jump\t// in\n    tag_172:\n        /* \"#utility.yul\":5517:5656   */\n      swap1\n      pop\n        /* \"#utility.yul\":5244:5663   */\n      swap2\n      swap1\n      pop\n      jump\t// out\n        /* \"#utility.yul\":5669:5834   */\n    tag_104:\n        /* \"#utility.yul\":5809:5826   */\n      0x5175657374206e6f7420666f756e640000000000000000000000000000000000\n        /* \"#utility.yul\":5805:5806   */\n      0x00\n        /* \"#utility.yul\":5797:5803   */\n      dup3\n        /* \"#utility.yul\":5793:5807   */\n      add\n        /* \"#utility.yul\":5786:5827   */\n      mstore\n        /* \"#utility.yul\":5669:5834   */\n      pop\n      jump\t// out\n        /* \"#utility.yul\":5840:6206   */\n    tag_105:\n        /* \"#utility.yul\":5982:5985   */\n      0x00\n        /* \"#utility.yul\":6003:6070   */\n      tag_175\n        /* \"#utility.yul\":6067:6069   */\n      0x0f\n        /* \"#utility.yul\":6062:6065   */\n      dup4\n        /* \"#utility.yul\":6003:6070   */\n      tag_101\n      jump\t// in\n    tag_175:\n        /* \"#utility.yul\":5996:6070   */\n      swap2\n      pop\n        /* \"#utility.yul\":6079:6172   */\n      tag_176\n        /* \"#utility.yul\":6168:6171   */\n      dup3\n        /* \"#utility.yul\":6079:6172   */\n      tag_104\n      jump\t// in\n    tag_176:\n        /* \"#utility.yul\":6197:6199   */\n      0x20\n        /* \"#utility.yul\":6192:6195   */\n      dup3\n        /* \"#utility.yul\":6188:6200   */\n      add\n        /* \"#utility.yul\":6181:6200   */\n      swap1\n      pop\n        /* \"#utility.yul\":5840:6206   */\n      swap2\n      swap1\n      pop\n      jump\t// out\n        /* \"#utility.yul\":6212:6631   */\n    tag_70:\n        /* \"#utility.yul\":6378:6382   */\n      0x00\n        /* \"#utility.yul\":6416:6418   */\n      0x20\n        /* \"#utility.yul\":6405:6414   */\n      dup3\n        /* \"#utility.yul\":6401:6419   */\n      add\n        /* \"#utility.yul\":6393:6419   */\n      swap1\n      pop\n        /* \"#utility.yul\":6465:6474   */\n      dup2\n        /* \"#utility.yul\":6459:6463   */\n      dup2\n        /* \"#utility.yul\":6455:6475   */\n      sub\n        /* \"#utility.yul\":6451:6452   */\n      0x00\n        /* \"#utility.yul\":6440:6449   */\n      dup4\n        /* \"#utility.yul\":6436:6453   */\n      add\n        /* \"#utility.yul\":6429:6476   */\n      mstore\n        /* \"#utility.yul\":6493:6624   */\n      tag_178\n        /* \"#utility.yul\":6619:6623   */\n      dup2\n        /* \"#utility.yul\":6493:6624   */\n      tag_105\n      jump\t// in\n    tag_178:\n        /* \"#utility.yul\":6485:6624   */\n      swap1\n      pop\n        /* \"#utility.yul\":6212:6631   */\n      swap2\n      swap1\n      pop\n      jump\t// out\n        /* \"#utility.yul\":6637:6800   */\n    tag_106:\n        /* \"#utility.yul\":6777:6792   */\n      0x4c6576656c20746f6f206c6f7700000000000000000000000000000000000000\n        /* \"#utility.yul\":6773:6774   */\n      0x00\n        /* \"#utility.yul\":6765:6771   */\n      dup3\n        /* \"#utility.yul\":6761:6775   */\n      add\n        /* \"#utility.yul\":6754:6793   */\n      mstore\n        /* \"#utility.yul\":6637:6800   */\n      pop\n      jump\t// out\n        /* \"#utility.yul\":6806:7172   */\n    tag_107:\n        /* \"#utility.yul\":6948:6951   */\n      0x00\n        /* \"#utility.yul\":6969:7036   */\n      tag_181\n        /* \"#utility.yul\":7033:7035   */\n      0x0d\n        /* \"#utility.yul\":7028:7031   */\n      dup4\n        /* \"#utility.yul\":6969:7036   */\n      tag_101\n      jump\t// in\n    tag_181:\n        /* \"#utility.yul\":6962:7036   */\n      swap2\n      pop\n        /* \"#utility.yul\":7045:7138   */\n      tag_182\n        /* \"#utility.yul\":7134:7137   */\n      dup3\n        /* \"#utility.yul\":7045:7138   */\n      tag_106\n      jump\t// in\n    tag_182:\n        /* \"#utility.yul\":7163:7165   */\n      0x20\n        /* \"#utility.yul\":7158:7161   */\n      dup3\n        /* \"#utility.yul\":7154:7166   */\n      add\n        /* \"#utility.yul\":7147:7166   */\n      swap1\n      pop\n        /* \"#utility.yul\":6806:7172   */\n      swap2\n      swap1\n      pop\n      jump\t// out\n        /* \"#utility.yul\":7178:7597   */\n    tag_73:\n        /* \"#utility.yul\":7344:7348   */\n      0x00\n        /* \"#utility.yul\":7382:7384   */\n      0x20\n        /* \"#utility.yul\":7371:7380   */\n      dup3\n        /* \"#utility.yul\":7367:7385   */\n      add\n        /* \"#utility.yul\":7359:7385   */\n      swap1\n      pop\n        /* \"#utility.yul\":7431:7440   */\n      dup2\n        /* \"#utility.yul\":7425:7429   */\n      dup2\n        /* \"#utility.yul\":7421:7441   */\n      sub\n        /* \"#utility.yul\":7417:7418   */\n      0x00\n        /* \"#utility.yul\":7406:7415   */\n      dup4\n        /* \"#utility.yul\":7402:7419   */\n      add\n        /* \"#utility.yul\":7395:7442   */\n      mstore\n        /* \"#utility.yul\":7459:7590   */\n      tag_184\n        /* \"#utility.yul\":7585:7589   */\n      dup2\n        /* \"#utility.yul\":7459:7590   */\n      tag_107\n      jump\t// in\n    tag_184:\n        /* \"#utility.yul\":7451:7590   */\n      swap1\n      pop\n        /* \"#utility.yul\":7178:7597   */\n      swap2\n      swap1\n      pop\n      jump\t// out\n        /* \"#utility.yul\":7603:7774   */\n    tag_108:\n        /* \"#utility.yul\":7743:7766   */\n      0x517565737420616c726561647920737461727465640000000000000000000000\n        /* \"#utility.yul\":7739:7740   */\n      0x00\n        /* \"#utility.yul\":7731:7737   */\n      dup3\n        /* \"#utility.yul\":7727:7741   */\n      add\n        /* \"#utility.yul\":7720:7767   */\n      mstore\n        /* \"#utility.yul\":7603:7774   */\n      pop\n      jump\t// out\n        /* \"#utility.yul\":7780:8146   */\n    tag_109:\n        /* \"#utility.yul\":7922:7925   */\n      0x00\n        /* \"#utility.yul\":7943:8010   */\n      tag_187\n        /* \"#utility.yul\":8007:8009   */\n      0x15\n        /* \"#utility.yul\":8002:8005   */\n      dup4\n        /* \"#utility.yul\":7943:8010   */\n      tag_101\n      jump\t// in\n    tag_187:\n        /* \"#utility.yul\":7936:8010   */\n      swap2\n      pop\n        /* \"#utility.yul\":8019:8112   */\n      tag_188\n        /* \"#utility.yul\":8108:8111   */\n      dup3\n        /* \"#utility.yul\":8019:8112   */\n      tag_108\n      jump\t// in\n    tag_188:\n        /* \"#utility.yul\":8137:8139   */\n      0x20\n        /* \"#utility.yul\":8132:8135   */\n      dup3\n        /* \"#utility.yul\":8128:8140   */\n      add\n        /* \"#utility.yul\":8121:8140   */\n      swap1\n      pop\n        /* \"#utility.yul\":7780:8146   */\n      swap2\n      swap1\n      pop\n      jump\t// out\n        /* \"#utility.yul\":8152:8571   */\n    tag_76:\n        /* \"#utility.yul\":8318:8322   */\n      0x00\n        /* \"#utility.yul\":8356:8358   */\n      0x20\n        /* \"#utility.yul\":8345:8354   */\n      dup3\n        /* \"#utility.yul\":8341:8359   */\n      add\n        /* \"#utility.yul\":8333:8359   */\n      swap1\n      pop\n        /* \"#utility.yul\":8405:8414   */\n      dup2\n        /* \"#utility.yul\":8399:8403   */\n      dup2\n        /* \"#utility.yul\":8395:8415   */\n      sub\n        /* \"#utility.yul\":8391:8392   */\n      0x00\n        /* \"#utility.yul\":8380:8389   */\n      dup4\n        /* \"#utility.yul\":8376:8393   */\n      add\n        /* \"#utility.yul\":8369:8416   */\n      mstore\n        /* \"#utility.yul\":8433:8564   */\n      tag_190\n        /* \"#utility.yul\":8559:8563   */\n      dup2\n        /* \"#utility.yul\":8433:8564   */\n      tag_109\n      jump\t// in\n    tag_190:\n        /* \"#utility.yul\":8425:8564   */\n      swap1\n      pop\n        /* \"#utility.yul\":8152:8571   */\n      swap2\n      swap1\n      pop\n      jump\t// out\n        /* \"#utility.yul\":8577:8750   */\n    tag_110:\n        /* \"#utility.yul\":8717:8742   */\n      0x517565737420616c726561647920636f6d706c65746564000000000000000000\n        /* \"#utility.yul\":8713:8714   */\n      0x00\n        /* \"#utility.yul\":8705:8711   */\n      dup3\n        /* \"#utility.yul\":8701:8715   */\n      add\n        /* \"#utility.yul\":8694:8743   */\n      mstore\n        /* \"#utility.yul\":8577:8750   */\n      pop\n      jump\t// out\n        /* \"#utility.yul\":8756:9122   */\n    tag_111:\n        /* \"#utility.yul\":8898:8901   */\n      0x00\n        /* \"#utility.yul\":8919:8986   */\n      tag_193\n        /* \"#utility.yul\":8983:8985   */\n      0x17\n        /* \"#utility.yul\":8978:8981   */\n      dup4\n        /* \"#utility.yul\":8919:8986   */\n      tag_101\n      jump\t// in\n    tag_193:\n        /* \"#utility.yul\":8912:8986   */\n      swap2\n      pop\n        /* \"#utility.yul\":8995:9088   */\n      tag_194\n        /* \"#utility.yul\":9084:9087   */\n      dup3\n        /* \"#utility.yul\":8995:9088   */\n      tag_110\n      jump\t// in\n    tag_194:\n        /* \"#utility.yul\":9113:9115   */\n      0x20\n        /* \"#utility.yul\":9108:9111   */\n      dup3\n        /* \"#utility.yul\":9104:9116   */\n      add\n        /* \"#utility.yul\":9097:9116   */\n      swap1\n      pop\n        /* \"#utility.yul\":8756:9122   */\n      swap2\n      swap1\n      pop\n      jump\t// out\n        /* \"#utility.yul\":9128:9547   */\n    tag_79:\n        /* \"#utility.yul\":9294:9298   */\n      0x00\n        /* \"#utility.yul\":9332:9334   */\n      0x20\n        /* \"#utility.yul\":9321:9330   */\n      dup3\n        /* \"#utility.yul\":9317:9335   */\n      add\n        /* \"#utility.yul\":9309:9335   */\n      swap1\n      pop\n        /* \"#utility.yul\":9381:9390   */\n      dup2\n        /* \"#utility.yul\":9375:9379   */\n      dup2\n        /* \"#utility.yul\":9371:9391   */\n      sub\n        /* \"#utility.yul\":9367:9368   */\n      0x00\n        /* \"#utility.yul\":9356:9365   */\n      dup4\n        /* \"#utility.yul\":9352:9369   */\n      add\n        /* \"#utility.yul\":9345:9392   */\n      mstore\n        /* \"#utility.yul\":9409:9540   */\n      tag_196\n        /* \"#utility.yul\":9535:9539   */\n      dup2\n        /* \"#utility.yul\":9409:9540   */\n      tag_111\n      jump\t// in\n    tag_196:\n        /* \"#utility.yul\":9401:9540   */\n      swap1\n      pop\n        /* \"#utility.yul\":9128:9547   */\n      swap2\n      swap1\n      pop\n      jump\t// out\n        /* \"#utility.yul\":9553:9733   */\n    tag_112:\n        /* \"#utility.yul\":9601:9678   */\n      0x4e487b7100000000000000000000000000000000000000000000000000000000\n        /* \"#utility.yul\":9598:9599   */\n      0x00\n        /* \"#utility.yul\":9591:9679   */\n      mstore\n        /* \"#utility.yul\":9698:9702   */\n      0x11\n        /* \"#utility.yul\":9695:9696   */\n      0x04\n        /* \"#utility.yul\":9688:9703   */\n      mstore\n        /* \"#utility.yul\":9722:9726   */\n      0x24\n        /* \"#utility.yul\":9719:9720   */\n      0x00\n        /* \"#utility.yul\":9712:9727   */\n      revert\n        /* \"#utility.yul\":9739:9930   */\n    tag_82:\n        /* \"#utility.yul\":9779:9782   */\n      0x00\n        /* \"#utility.yul\":9798:9818   */\n      tag_199\n        /* \"#utility.yul\":9816:9817   */\n      dup3\n        /* \"#utility.yul\":9798:9818   */\n      tag_91\n      jump\t// in\n    tag_199:\n        /* \"#utility.yul\":9793:9818   */\n      swap2\n      pop\n        /* \"#utility.yul\":9832:9852   */\n      tag_200\n        /* \"#utility.yul\":9850:9851   */\n      dup4\n        /* \"#utility.yul\":9832:9852   */\n      tag_91\n      jump\t// in\n    tag_200:\n        /* \"#utility.yul\":9827:9852   */\n      swap3\n      pop\n        /* \"#utility.yul\":9875:9876   */\n      dup3\n        /* \"#utility.yul\":9872:9873   */\n      dup3\n        /* \"#utility.yul\":9868:9877   */\n      add\n        /* \"#utility.yul\":9861:9877   */\n      swap1\n      pop\n        /* \"#utility.yul\":9896:9899   */\n      dup1\n        /* \"#utility.yul\":9893:9894   */\n      dup3\n        /* \"#utility.yul\":9890:9900   */\n      gt\n        /* \"#utility.yul\":9887:9923   */\n      iszero\n      tag_201\n      jumpi\n        /* \"#utility.yul\":9903:9921   */\n      tag_202\n      tag_112\n      jump\t// in\n    tag_202:\n        /* \"#utility.yul\":9887:9923   */\n    tag_201:\n        /* \"#utility.yul\":9739:9930   */\n      swap3\n      swap2\n      pop\n      pop\n      jump\t// out\n        /* \"#utility.yul\":9936:10130   */\n    tag_86:\n        /* \"#utility.yul\":9976:9980   */\n      0x00\n        /* \"#utility.yul\":9996:10016   */\n      tag_204\n        /* \"#utility.yul\":10014:10015   */\n      dup3\n        /* \"#utility.yul\":9996:10016   */\n      tag_91\n      jump\t// in\n    tag_204:\n        /* \"#utility.yul\":9991:10016   */\n      swap2\n      pop\n        /* \"#utility.yul\":10030:10050   */\n      tag_205\n        /* \"#utility.yul\":10048:10049   */\n      dup4\n        /* \"#utility.yul\":10030:10050   */\n      tag_91\n      jump\t// in\n    tag_205:\n        /* \"#utility.yul\":10025:10050   */\n      swap3\n      pop\n        /* \"#utility.yul\":10074:10075   */\n      dup3\n        /* \"#utility.yul\":10071:10072   */\n      dup3\n        /* \"#utility.yul\":10067:10076   */\n      sub\n        /* \"#utility.yul\":10059:10076   */\n      swap1\n      pop\n        /* \"#utility.yul\":10098:10099   */\n      dup2\n        /* \"#utility.yul\":10092:10096   */\n      dup2\n        /* \"#utility.yul\":10089:10100   */\n      gt\n        /* \"#utility.yul\":10086:10123   */\n      iszero\n      tag_206\n      jumpi\n        /* \"#utility.yul\":10103:10121   */\n      tag_207\n      tag_112\n      jump\t// in\n    tag_207:\n        /* \"#utility.yul\":10086:10123   */\n    tag_206:\n        /* \"#utility.yul\":9936:10130   */\n      swap3\n      swap2\n      pop\n      pop\n      jump\t// out\n\n    auxdata: 0xa2646970667358221220e1bcaa8071cc1e9b70a02c8e32643dc339505858e5f69e711c1bc20cead611a064736f6c634300081e0033\n}\n",
				"bytecode": {
					"linkReferences": {},
					"object": "6080604052348015600e575f5ffd5b50610dba8061001c5f395ff3fe608060405234801561000f575f5ffd5b506004361061009c575f3560e01c80639e563544116100645780639e56354414610169578063e085f98014610185578063e2eb41ff146101b7578063e447b0dc146101e8578063f88630c7146102065761009c565b806312e7fb29146100a05780631c4b774b146100bc5780633e4b76cc146100ec578063528be0a91461011c5780635c12cd4b14610138575b5f5ffd5b6100ba60048036038101906100b591906108e4565b610236565b005b6100d660048036038101906100d19190610934565b61029d565b6040516100e3919061096e565b60405180910390f35b610106600480360381019061010191906109e1565b6102b8565b6040516101139190610a39565b60405180910390f35b61013660048036038101906101319190610934565b6102e2565b005b610152600480360381019061014d9190610a52565b610465565b604051610160929190610a7d565b60405180910390f35b610183600480360381019061017e9190610934565b6104d8565b005b61019f600480360381019061019a9190610934565b610787565b6040516101ae93929190610aa4565b60405180910390f35b6101d160048036038101906101cc9190610a52565b6107b8565b6040516101df929190610a7d565b60405180910390f35b6101f06107d8565b6040516101fd919061096e565b60405180910390f35b610220600480360381019061021b91906109e1565b6107dd565b60405161022d9190610a39565b60405180910390f35b6040518060600160405280838152602001828152602001600115158152505f5f8581526020019081526020015f205f820151815f0155602082015181600101556040820151816002015f6101000a81548160ff021916908315150217905550905050505050565b5f5f5f8381526020019081526020015f205f01549050919050565b6002602052815f5260405f20602052805f5260405f205f915091509054906101000a900460ff1681565b60025f3373ffffffffffffffffffffffffffffffffffffffff1673ffffffffffffffffffffffffffffffffffffffff1681526020019081526020015f205f8281526020019081526020015f205f9054906101000a900460ff1661037a576040517f08c379a000000000000000000000000000000000000000000000000000000000815260040161037190610b33565b60405180910390fd5b5f60025f3373ffffffffffffffffffffffffffffffffffffffff1673ffffffffffffffffffffffffffffffffffffffff1681526020019081526020015f205f8381526020019081526020015f205f6101000a81548160ff021916908315150217905550600160035f3373ffffffffffffffffffffffffffffffffffffffff1673ffffffffffffffffffffffffffffffffffffffff1681526020019081526020015f205f8381526020019081526020015f205f6101000a81548160ff0219169083151502179055505f5f5f8381526020019081526020015f205f015490506104613382610807565b5050565b5f5f5f60015f8573ffffffffffffffffffffffffffffffffffffffff1673ffffffffffffffffffffffffffffffffffffffff1681526020019081526020015f206040518060400160405290815f82015481526020016001820154815250509050805f015181602001519250925050915091565b5f5f5f8381526020019081526020015f206040518060600160405290815f820154815260200160018201548152602001600282015f9054906101000a900460ff16151515158152505090508060400151610567576040517f08c379a000000000000000000000000000000000000000000000000000000000815260040161055e90610b9b565b60405180910390fd5b806020015160015f3373ffffffffffffffffffffffffffffffffffffffff1673ffffffffffffffffffffffffffffffffffffffff1681526020019081526020015f205f015410156105ed576040517f08c379a00000000000000000000000000000000000000000000000000000000081526004016105e490610c03565b60405180910390fd5b60025f3373ffffffffffffffffffffffffffffffffffffffff1673ffffffffffffffffffffffffffffffffffffffff1681526020019081526020015f205f8381526020019081526020015f205f9054906101000a900460ff1615610686576040517f08c379a000000000000000000000000000000000000000000000000000000000815260040161067d90610c6b565b60405180910390fd5b60035f3373ffffffffffffffffffffffffffffffffffffffff1673ffffffffffffffffffffffffffffffffffffffff1681526020019081526020015f205f8381526020019081526020015f205f9054906101000a900460ff161561071f576040517f08c379a000000000000000000000000000000000000000000000000000000000815260040161071690610cd3565b60405180910390fd5b600160025f3373ffffffffffffffffffffffffffffffffffffffff1673ffffffffffffffffffffffffffffffffffffffff1681526020019081526020015f205f8481526020019081526020015f205f6101000a81548160ff0219169083151502179055505050565b5f602052805f5260405f205f91509050805f015490806001015490806002015f9054906101000a900460ff16905083565b6001602052805f5260405f205f91509050805f0154908060010154905082565b606481565b6003602052815f5260405f20602052805f5260405f205f915091509054906101000a900460ff1681565b5f60015f8473ffffffffffffffffffffffffffffffffffffffff1673ffffffffffffffffffffffffffffffffffffffff1681526020019081526020015f20905081816001015f82825461085a9190610d1e565b925050819055505b60648160010154106108a8576064816001015f8282546108829190610d51565b925050819055506001815f015f82825461089c9190610d1e565b92505081905550610862565b505050565b5f5ffd5b5f819050919050565b6108c3816108b1565b81146108cd575f5ffd5b50565b5f813590506108de816108ba565b92915050565b5f5f5f606084860312156108fb576108fa6108ad565b5b5f610908868287016108d0565b9350506020610919868287016108d0565b925050604061092a868287016108d0565b9150509250925092565b5f60208284031215610949576109486108ad565b5b5f610956848285016108d0565b91505092915050565b610968816108b1565b82525050565b5f6020820190506109815f83018461095f565b92915050565b5f73ffffffffffffffffffffffffffffffffffffffff82169050919050565b5f6109b082610987565b9050919050565b6109c0816109a6565b81146109ca575f5ffd5b50565b5f813590506109db816109b7565b92915050565b5f5f604083850312156109f7576109f66108ad565b5b5f610a04858286016109cd565b9250506020610a15858286016108d0565b9150509250929050565b5f8115159050919050565b610a3381610a1f565b82525050565b5f602082019050610a4c5f830184610a2a565b92915050565b5f60208284031215610a6757610a666108ad565b5b5f610a74848285016109cd565b91505092915050565b5f604082019050610a905f83018561095f565b610a9d602083018461095f565b9392505050565b5f606082019050610ab75f83018661095f565b610ac4602083018561095f565b610ad16040830184610a2a565b949350505050565b5f82825260208201905092915050565b7f5175657374206e6f7420616374697665000000000000000000000000000000005f82015250565b5f610b1d601083610ad9565b9150610b2882610ae9565b602082019050919050565b5f6020820190508181035f830152610b4a81610b11565b9050919050565b7f5175657374206e6f7420666f756e6400000000000000000000000000000000005f82015250565b5f610b85600f83610ad9565b9150610b9082610b51565b602082019050919050565b5f6020820190508181035f830152610bb281610b79565b9050919050565b7f4c6576656c20746f6f206c6f77000000000000000000000000000000000000005f82015250565b5f610bed600d83610ad9565b9150610bf882610bb9565b602082019050919050565b5f6020820190508181035f830152610c1a81610be1565b9050919050565b7f517565737420616c7265616479207374617274656400000000000000000000005f82015250565b5f610c55601583610ad9565b9150610c6082610c21565b602082019050919050565b5f6020820190508181035f830152610c8281610c49565b9050919050565b7f517565737420616c726561647920636f6d706c657465640000000000000000005f82015250565b5f610cbd601783610ad9565b9150610cc882610c89565b602082019050919050565b5f6020820190508181035f830152610cea81610cb1565b9050919050565b7f4e487b71000000000000000000000000000000000000000000000000000000005f52601160045260245ffd5b5f610d28826108b1565b9150610d33836108b1565b9250828201905080821115610d4b57610d4a610cf1565b5b92915050565b5f610d5b826108b1565b9150610d66836108b1565b9250828203905081811115610d7e57610d7d610cf1565b5b9291505056fea2646970667358221220e1bcaa8071cc1e9b70a02c8e32643dc339505858e5f69e711c1bc20cead611a064736f6c634300081e0033",
					"opcodes": "PUSH1 0x80 PUSH1 0x40 MSTORE CALLVALUE DUP1 ISZERO PUSH1 0xE JUMPI PUSH0 PUSH0 REVERT JUMPDEST POP PUSH2 0xDBA DUP1 PUSH2 0x1C PUSH0 CODECOPY PUSH0 RETURN INVALID PUSH1 0x80 PUSH1 0x40 MSTORE CALLVALUE DUP1 ISZERO PUSH2 0xF JUMPI PUSH0 PUSH0 REVERT JUMPDEST POP PUSH1 0x4 CALLDATASIZE LT PUSH2 0x9C JUMPI PUSH0 CALLDATALOAD PUSH1 0xE0 SHR DUP1 PUSH4 0x9E563544 GT PUSH2 0x64 JUMPI DUP1 PUSH4 0x9E563544 EQ PUSH2 0x169 JUMPI DUP1 PUSH4 0xE085F980 EQ PUSH2 0x185 JUMPI DUP1 PUSH4 0xE2EB41FF EQ PUSH2 0x1B7 JUMPI DUP1 PUSH4 0xE447B0DC EQ PUSH2 0x1E8 JUMPI DUP1 PUSH4 0xF88630C7 EQ PUSH2 0x206 JUMPI PUSH2 0x9C JUMP JUMPDEST DUP1 PUSH4 0x12E7FB29 EQ PUSH2 0xA0 JUMPI DUP1 PUSH4 0x1C4B774B EQ PUSH2 0xBC JUMPI DUP1 PUSH4 0x3E4B76CC EQ PUSH2 0xEC JUMPI DUP1 PUSH4 0x528BE0A9 EQ PUSH2 0x11C JUMPI DUP1 PUSH4 0x5C12CD4B EQ PUSH2 0x138 JUMPI JUMPDEST PUSH0 PUSH0 REVERT JUMPDEST PUSH2 0xBA PUSH1 0x4 DUP1 CALLDATASIZE SUB DUP2 ADD SWAP1 PUSH2 0xB5 SWAP2 SWAP1 PUSH2 0x8E4 JUMP JUMPDEST PUSH2 0x236 JUMP JUMPDEST STOP JUMPDEST PUSH2 0xD6 PUSH1 0x4 DUP1 CALLDATASIZE SUB DUP2 ADD SWAP1 PUSH2 0xD1 SWAP2 SWAP1 PUSH2 0x934 JUMP JUMPDEST PUSH2 0x29D JUMP JUMPDEST PUSH1 0x40 MLOAD PUSH2 0xE3 SWAP2 SWAP1 PUSH2 0x96E JUMP JUMPDEST PUSH1 0x40 MLOAD DUP1 SWAP2 SUB SWAP1 RETURN JUMPDEST PUSH2 0x106 PUSH1 0x4 DUP1 CALLDATASIZE SUB DUP2 ADD SWAP1 PUSH2 0x101 SWAP2 SWAP1 PUSH2 0x9E1 JUMP JUMPDEST PUSH2 0x2B8 JUMP JUMPDEST PUSH1 0x40 MLOAD PUSH2 0x113 SWAP2 SWAP1 PUSH2 0xA39 JUMP JUMPDEST PUSH1 0x40 MLOAD DUP1 SWAP2 SUB SWAP1 RETURN JUMPDEST PUSH2 0x136 PUSH1 0x4 DUP1 CALLDATASIZE SUB DUP2 ADD SWAP1 PUSH2 0x131 SWAP2 SWAP1 PUSH2 0x934 JUMP JUMPDEST PUSH2 0x2E2 JUMP JUMPDEST STOP JUMPDEST PUSH2 0x152 PUSH1 0x4 DUP1 CALLDATASIZE SUB DUP2 ADD SWAP1 PUSH2 0x14D SWAP2 SWAP1 PUSH2 0xA52 JUMP JUMPDEST PUSH2 0x465 JUMP JUMPDEST PUSH1 0x40 MLOAD PUSH2 0x160 SWAP3 SWAP2 SWAP1 PUSH2 0xA7D JUMP JUMPDEST PUSH1 0x40 MLOAD DUP1 SWAP2 SUB SWAP1 RETURN JUMPDEST PUSH2 0x183 PUSH1 0x4 DUP1 CALLDATASIZE SUB DUP2 ADD SWAP1 PUSH2 0x17E SWAP2 SWAP1 PUSH2 0x934 JUMP JUMPDEST PUSH2 0x4D8 JUMP JUMPDEST STOP JUMPDEST PUSH2 0x19F PUSH1 0x4 DUP1 CALLDATASIZE SUB DUP2 ADD SWAP1 PUSH2 0x19A SWAP2 SWAP1 PUSH2 0x934 JUMP JUMPDEST PUSH2 0x787 JUMP JUMPDEST PUSH1 0x40 MLOAD PUSH2 0x1AE SWAP4 SWAP3 SWAP2 SWAP1 PUSH2 0xAA4 JUMP JUMPDEST PUSH1 0x40 MLOAD DUP1 SWAP2 SUB SWAP1 RETURN JUMPDEST PUSH2 0x1D1 PUSH1 0x4 DUP1 CALLDATASIZE SUB DUP2 ADD SWAP1 PUSH2 0x1CC SWAP2 SWAP1 PUSH2 0xA52 JUMP JUMPDEST PUSH2 0x7B8 JUMP JUMPDEST PUSH1 0x40 MLOAD PUSH2 0x1DF SWAP3 SWAP2 SWAP1 PUSH2 0xA7D JUMP JUMPDEST PUSH1 0x40 MLOAD DUP1 SWAP2 SUB SWAP1 RETURN JUMPDEST PUSH2 0x1F0 PUSH2 0x7D8 JUMP JUMPDEST PUSH1 0x40 MLOAD PUSH2 0x1FD SWAP2 SWAP1 PUSH2 0x96E JUMP JUMPDEST PUSH1 0x40 MLOAD DUP1 SWAP2 SUB SWAP1 RETURN JUMPDEST PUSH2 0x220 PUSH1 0x4 DUP1 CALLDATASIZE SUB DUP2 ADD SWAP1 PUSH2 0x21B SWAP2 SWAP1 PUSH2 0x9E1 JUMP JUMPDEST PUSH2 0x7DD JUMP JUMPDEST PUSH1 0x40 MLOAD PUSH2 0x22D SWAP2 SWAP1 PUSH2 0xA39 JUMP JUMPDEST PUSH1 0x40 MLOAD DUP1 SWAP2 SUB SWAP1 RETURN JUMPDEST PUSH1 0x40 MLOAD DUP1 PUSH1 0x60 ADD PUSH1 0x40 MSTORE DUP1 DUP4 DUP2 MSTORE PUSH1 0x20 ADD DUP3 DUP2 MSTORE PUSH1 0x20 ADD PUSH1 0x1 ISZERO ISZERO DUP2 MSTORE POP PUSH0 PUSH0 DUP6 DUP2 MSTORE PUSH1 0x20 ADD SWAP1 DUP2 MSTORE PUSH1 0x20 ADD PUSH0 KECCAK256 PUSH0 DUP3 ADD MLOAD DUP2 PUSH0 ADD SSTORE PUSH1 0x20 DUP3 ADD MLOAD DUP2 PUSH1 0x1 ADD SSTORE PUSH1 0x40 DUP3 ADD MLOAD DUP2 PUSH1 0x2 ADD PUSH0 PUSH2 0x100 EXP DUP2 SLOAD DUP2 PUSH1 0xFF MUL NOT AND SWAP1 DUP4 ISZERO ISZERO MUL OR SWAP1 SSTORE POP SWAP1 POP POP POP POP POP JUMP JUMPDEST PUSH0 PUSH0 PUSH0 DUP4 DUP2 MSTORE PUSH1 0x20 ADD SWAP1 DUP2 MSTORE PUSH1 0x20 ADD PUSH0 KECCAK256 PUSH0 ADD SLOAD SWAP1 POP SWAP2 SWAP1 POP JUMP JUMPDEST PUSH1 0x2 PUSH1 0x20 MSTORE DUP2 PUSH0 MSTORE PUSH1 0x40 PUSH0 KECCAK256 PUSH1 0x20 MSTORE DUP1 PUSH0 MSTORE PUSH1 0x40 PUSH0 KECCAK256 PUSH0 SWAP2 POP SWAP2 POP SWAP1 SLOAD SWAP1 PUSH2 0x100 EXP SWAP1 DIV PUSH1 0xFF AND DUP2 JUMP JUMPDEST PUSH1 0x2 PUSH0 CALLER PUSH20 0xFFFFFFFFFFFFFFFFFFFFFFFFFFFFFFFFFFFFFFFF AND PUSH20 0xFFFFFFFFFFFFFFFFFFFFFFFFFFFFFFFFFFFFFFFF AND DUP2 MSTORE PUSH1 0x20 ADD SWAP1 DUP2 MSTORE PUSH1 0x20 ADD PUSH0 KECCAK256 PUSH0 DUP3 DUP2 MSTORE PUSH1 0x20 ADD SWAP1 DUP2 MSTORE PUSH1 0x20 ADD PUSH0 KECCAK256 PUSH0 SWAP1 SLOAD SWAP1 PUSH2 0x100 EXP SWAP1 DIV PUSH1 0xFF AND PUSH2 0x37A JUMPI PUSH1 0x40 MLOAD PUSH32 0x8C379A000000000000000000000000000000000000000000000000000000000 DUP2 MSTORE PUSH1 0x4 ADD PUSH2 0x371 SWAP1 PUSH2 0xB33 JUMP JUMPDEST PUSH1 0x40 MLOAD DUP1 SWAP2 SUB SWAP1 REVERT JUMPDEST PUSH0 PUSH1 0x2 PUSH0 CALLER PUSH20 0xFFFFFFFFFFFFFFFFFFFFFFFFFFFFFFFFFFFFFFFF AND PUSH20 0xFFFFFFFFFFFFFFFFFFFFFFFFFFFFFFFFFFFFFFFF AND DUP2 MSTORE PUSH1 0x20 ADD SWAP1 DUP2 MSTORE PUSH1 0x20 ADD PUSH0 KECCAK256 PUSH0 DUP4 DUP2 MSTORE PUSH1 0x20 ADD SWAP1 DUP2 MSTORE PUSH1 0x20 ADD PUSH0 KECCAK256 PUSH0 PUSH2 0x100 EXP DUP2 SLOAD DUP2 PUSH1 0xFF MUL NOT AND SWAP1 DUP4 ISZERO ISZERO MUL OR SWAP1 SSTORE POP PUSH1 0x1 PUSH1 0x3 PUSH0 CALLER PUSH20 0xFFFFFFFFFFFFFFFFFFFFFFFFFFFFFFFFFFFFFFFF AND PUSH20 0xFFFFFFFFFFFFFFFFFFFFFFFFFFFFFFFFFFFFFFFF AND DUP2 MSTORE PUSH1 0x20 ADD SWAP1 DUP2 MSTORE PUSH1 0x20 ADD PUSH0 KECCAK256 PUSH0 DUP4 DUP2 MSTORE PUSH1 0x20 ADD SWAP1 DUP2 MSTORE PUSH1 0x20 ADD PUSH0 KECCAK256 PUSH0 PUSH2 0x100 EXP DUP2 SLOAD DUP2 PUSH1 0xFF MUL NOT AND SWAP1 DUP4 ISZERO ISZERO MUL OR SWAP1 SSTORE POP PUSH0 PUSH0 PUSH0 DUP4 DUP2 MSTORE PUSH1 0x20 ADD SWAP1 DUP2 MSTORE PUSH1 0x20 ADD PUSH0 KECCAK256 PUSH0 ADD SLOAD SWAP1 POP PUSH2 0x461 CALLER DUP3 PUSH2 0x807 JUMP JUMPDEST POP POP JUMP JUMPDEST PUSH0 PUSH0 PUSH0 PUSH1 0x1 PUSH0 DUP6 PUSH20 0xFFFFFFFFFFFFFFFFFFFFFFFFFFFFFFFFFFFFFFFF AND PUSH20 0xFFFFFFFFFFFFFFFFFFFFFFFFFFFFFFFFFFFFFFFF AND DUP2 MSTORE PUSH1 0x20 ADD SWAP1 DUP2 MSTORE PUSH1 0x20 ADD PUSH0 KECCAK256 PUSH1 0x40 MLOAD DUP1 PUSH1 0x40 ADD PUSH1 0x40 MSTORE SWAP1 DUP2 PUSH0 DUP3 ADD SLOAD DUP2 MSTORE PUSH1 0x20 ADD PUSH1 0x1 DUP3 ADD SLOAD DUP2 MSTORE POP POP SWAP1 POP DUP1 PUSH0 ADD MLOAD DUP2 PUSH1 0x20 ADD MLOAD SWAP3 POP SWAP3 POP POP SWAP2 POP SWAP2 JUMP JUMPDEST PUSH0 PUSH0 PUSH0 DUP4 DUP2 MSTORE PUSH1 0x20 ADD SWAP1 DUP2 MSTORE PUSH1 0x20 ADD PUSH0 KECCAK256 PUSH1 0x40 MLOAD DUP1 PUSH1 0x60 ADD PUSH1 0x40 MSTORE SWAP1 DUP2 PUSH0 DUP3 ADD SLOAD DUP2 MSTORE PUSH1 0x20 ADD PUSH1 0x1 DUP3 ADD SLOAD DUP2 MSTORE PUSH1 0x20 ADD PUSH1 0x2 DUP3 ADD PUSH0 SWAP1 SLOAD SWAP1 PUSH2 0x100 EXP SWAP1 DIV PUSH1 0xFF AND ISZERO ISZERO ISZERO ISZERO DUP2 MSTORE POP POP SWAP1 POP DUP1 PUSH1 0x40 ADD MLOAD PUSH2 0x567 JUMPI PUSH1 0x40 MLOAD PUSH32 0x8C379A000000000000000000000000000000000000000000000000000000000 DUP2 MSTORE PUSH1 0x4 ADD PUSH2 0x55E SWAP1 PUSH2 0xB9B JUMP JUMPDEST PUSH1 0x40 MLOAD DUP1 SWAP2 SUB SWAP1 REVERT JUMPDEST DUP1 PUSH1 0x20 ADD MLOAD PUSH1 0x1 PUSH0 CALLER PUSH20 0xFFFFFFFFFFFFFFFFFFFFFFFFFFFFFFFFFFFFFFFF AND PUSH20 0xFFFFFFFFFFFFFFFFFFFFFFFFFFFFFFFFFFFFFFFF AND DUP2 MSTORE PUSH1 0x20 ADD SWAP1 DUP2 MSTORE PUSH1 0x20 ADD PUSH0 KECCAK256 PUSH0 ADD SLOAD LT ISZERO PUSH2 0x5ED JUMPI PUSH1 0x40 MLOAD PUSH32 0x8C379A000000000000000000000000000000000000000000000000000000000 DUP2 MSTORE PUSH1 0x4 ADD PUSH2 0x5E4 SWAP1 PUSH2 0xC03 JUMP JUMPDEST PUSH1 0x40 MLOAD DUP1 SWAP2 SUB SWAP1 REVERT JUMPDEST PUSH1 0x2 PUSH0 CALLER PUSH20 0xFFFFFFFFFFFFFFFFFFFFFFFFFFFFFFFFFFFFFFFF AND PUSH20 0xFFFFFFFFFFFFFFFFFFFFFFFFFFFFFFFFFFFFFFFF AND DUP2 MSTORE PUSH1 0x20 ADD SWAP1 DUP2 MSTORE PUSH1 0x20 ADD PUSH0 KECCAK256 PUSH0 DUP4 DUP2 MSTORE PUSH1 0x20 ADD SWAP1 DUP2 MSTORE PUSH1 0x20 ADD PUSH0 KECCAK256 PUSH0 SWAP1 SLOAD SWAP1 PUSH2 0x100 EXP SWAP1 DIV PUSH1 0xFF AND ISZERO PUSH2 0x686 JUMPI PUSH1 0x40 MLOAD PUSH32 0x8C379A000000000000000000000000000000000000000000000000000000000 DUP2 MSTORE PUSH1 0x4 ADD PUSH2 0x67D SWAP1 PUSH2 0xC6B JUMP JUMPDEST PUSH1 0x40 MLOAD DUP1 SWAP2 SUB SWAP1 REVERT JUMPDEST PUSH1 0x3 PUSH0 CALLER PUSH20 0xFFFFFFFFFFFFFFFFFFFFFFFFFFFFFFFFFFFFFFFF AND PUSH20 0xFFFFFFFFFFFFFFFFFFFFFFFFFFFFFFFFFFFFFFFF AND DUP2 MSTORE PUSH1 0x20 ADD SWAP1 DUP2 MSTORE PUSH1 0x20 ADD PUSH0 KECCAK256 PUSH0 DUP4 DUP2 MSTORE PUSH1 0x20 ADD SWAP1 DUP2 MSTORE PUSH1 0x20 ADD PUSH0 KECCAK256 PUSH0 SWAP1 SLOAD SWAP1 PUSH2 0x100 EXP SWAP1 DIV PUSH1 0xFF AND ISZERO PUSH2 0x71F JUMPI PUSH1 0x40 MLOAD PUSH32 0x8C379A000000000000000000000000000000000000000000000000000000000 DUP2 MSTORE PUSH1 0x4 ADD PUSH2 0x716 SWAP1 PUSH2 0xCD3 JUMP JUMPDEST PUSH1 0x40 MLOAD DUP1 SWAP2 SUB SWAP1 REVERT JUMPDEST PUSH1 0x1 PUSH1 0x2 PUSH0 CALLER PUSH20 0xFFFFFFFFFFFFFFFFFFFFFFFFFFFFFFFFFFFFFFFF AND PUSH20 0xFFFFFFFFFFFFFFFFFFFFFFFFFFFFFFFFFFFFFFFF AND DUP2 MSTORE PUSH1 0x20 ADD SWAP1 DUP2 MSTORE PUSH1 0x20 ADD PUSH0 KECCAK256 PUSH0 DUP5 DUP2 MSTORE PUSH1 0x20 ADD SWAP1 DUP2 MSTORE PUSH1 0x20 ADD PUSH0 KECCAK256 PUSH0 PUSH2 0x100 EXP DUP2 SLOAD DUP2 PUSH1 0xFF MUL NOT AND SWAP1 DUP4 ISZERO ISZERO MUL OR SWAP1 SSTORE POP POP POP JUMP JUMPDEST PUSH0 PUSH1 0x20 MSTORE DUP1 PUSH0 MSTORE PUSH1 0x40 PUSH0 KECCAK256 PUSH0 SWAP2 POP SWAP1 POP DUP1 PUSH0 ADD SLOAD SWAP1 DUP1 PUSH1 0x1 ADD SLOAD SWAP1 DUP1 PUSH1 0x2 ADD PUSH0 SWAP1 SLOAD SWAP1 PUSH2 0x100 EXP SWAP1 DIV PUSH1 0xFF AND SWAP1 POP DUP4 JUMP JUMPDEST PUSH1 0x1 PUSH1 0x20 MSTORE DUP1 PUSH0 MSTORE PUSH1 0x40 PUSH0 KECCAK256 PUSH0 SWAP2 POP SWAP1 POP DUP1 PUSH0 ADD SLOAD SWAP1 DUP1 PUSH1 0x1 ADD SLOAD SWAP1 POP DUP3 JUMP JUMPDEST PUSH1 0x64 DUP2 JUMP JUMPDEST PUSH1 0x3 PUSH1 0x20 MSTORE DUP2 PUSH0 MSTORE PUSH1 0x40 PUSH0 KECCAK256 PUSH1 0x20 MSTORE DUP1 PUSH0 MSTORE PUSH1 0x40 PUSH0 KECCAK256 PUSH0 SWAP2 POP SWAP2 POP SWAP1 SLOAD SWAP1 PUSH2 0x100 EXP SWAP1 DIV PUSH1 0xFF AND DUP2 JUMP JUMPDEST PUSH0 PUSH1 0x1 PUSH0 DUP5 PUSH20 0xFFFFFFFFFFFFFFFFFFFFFFFFFFFFFFFFFFFFFFFF AND PUSH20 0xFFFFFFFFFFFFFFFFFFFFFFFFFFFFFFFFFFFFFFFF AND DUP2 MSTORE PUSH1 0x20 ADD SWAP1 DUP2 MSTORE PUSH1 0x20 ADD PUSH0 KECCAK256 SWAP1 POP DUP2 DUP2 PUSH1 0x1 ADD PUSH0 DUP3 DUP3 SLOAD PUSH2 0x85A SWAP2 SWAP1 PUSH2 0xD1E JUMP JUMPDEST SWAP3 POP POP DUP2 SWAP1 SSTORE POP JUMPDEST PUSH1 0x64 DUP2 PUSH1 0x1 ADD SLOAD LT PUSH2 0x8A8 JUMPI PUSH1 0x64 DUP2 PUSH1 0x1 ADD PUSH0 DUP3 DUP3 SLOAD PUSH2 0x882 SWAP2 SWAP1 PUSH2 0xD51 JUMP JUMPDEST SWAP3 POP POP DUP2 SWAP1 SSTORE POP PUSH1 0x1 DUP2 PUSH0 ADD PUSH0 DUP3 DUP3 SLOAD PUSH2 0x89C SWAP2 SWAP1 PUSH2 0xD1E JUMP JUMPDEST SWAP3 POP POP DUP2 SWAP1 SSTORE POP PUSH2 0x862 JUMP JUMPDEST POP POP POP JUMP JUMPDEST PUSH0 PUSH0 REVERT JUMPDEST PUSH0 DUP2 SWAP1 POP SWAP2 SWAP1 POP JUMP JUMPDEST PUSH2 0x8C3 DUP2 PUSH2 0x8B1 JUMP JUMPDEST DUP2 EQ PUSH2 0x8CD JUMPI PUSH0 PUSH0 REVERT JUMPDEST POP JUMP JUMPDEST PUSH0 DUP2 CALLDATALOAD SWAP1 POP PUSH2 0x8DE DUP2 PUSH2 0x8BA JUMP JUMPDEST SWAP3 SWAP2 POP POP JUMP JUMPDEST PUSH0 PUSH0 PUSH0 PUSH1 0x60 DUP5 DUP7 SUB SLT ISZERO PUSH2 0x8FB JUMPI PUSH2 0x8FA PUSH2 0x8AD JUMP JUMPDEST JUMPDEST PUSH0 PUSH2 0x908 DUP7 DUP3 DUP8 ADD PUSH2 0x8D0 JUMP JUMPDEST SWAP4 POP POP PUSH1 0x20 PUSH2 0x919 DUP7 DUP3 DUP8 ADD PUSH2 0x8D0 JUMP JUMPDEST SWAP3 POP POP PUSH1 0x40 PUSH2 0x92A DUP7 DUP3 DUP8 ADD PUSH2 0x8D0 JUMP JUMPDEST SWAP2 POP POP SWAP3 POP SWAP3 POP SWAP3 JUMP JUMPDEST PUSH0 PUSH1 0x20 DUP3 DUP5 SUB SLT ISZERO PUSH2 0x949 JUMPI PUSH2 0x948 PUSH2 0x8AD JUMP JUMPDEST JUMPDEST PUSH0 PUSH2 0x956 DUP5 DUP3 DUP6 ADD PUSH2 0x8D0 JUMP JUMPDEST SWAP2 POP POP SWAP3 SWAP2 POP POP JUMP JUMPDEST PUSH2 0x968 DUP2 PUSH2 0x8B1 JUMP JUMPDEST DUP3 MSTORE POP POP JUMP JUMPDEST PUSH0 PUSH1 0x20 DUP3 ADD SWAP1 POP PUSH2 0x981 PUSH0 DUP4 ADD DUP5 PUSH2 0x95F JUMP JUMPDEST SWAP3 SWAP2 POP POP JUMP JUMPDEST PUSH0 PUSH20 0xFFFFFFFFFFFFFFFFFFFFFFFFFFFFFFFFFFFFFFFF DUP3 AND SWAP1 POP SWAP2 SWAP1 POP JUMP JUMPDEST PUSH0 PUSH2 0x9B0 DUP3 PUSH2 0x987 JUMP JUMPDEST SWAP1 POP SWAP2 SWAP1 POP JUMP JUMPDEST PUSH2 0x9C0 DUP2 PUSH2 0x9A6 JUMP JUMPDEST DUP2 EQ PUSH2 0x9CA JUMPI PUSH0 PUSH0 REVERT JUMPDEST POP JUMP JUMPDEST PUSH0 DUP2 CALLDATALOAD SWAP1 POP PUSH2 0x9DB DUP2 PUSH2 0x9B7 JUMP JUMPDEST SWAP3 SWAP2 POP POP JUMP JUMPDEST PUSH0 PUSH0 PUSH1 0x40 DUP4 DUP6 SUB SLT ISZERO PUSH2 0x9F7 JUMPI PUSH2 0x9F6 PUSH2 0x8AD JUMP JUMPDEST JUMPDEST PUSH0 PUSH2 0xA04 DUP6 DUP3 DUP7 ADD PUSH2 0x9CD JUMP JUMPDEST SWAP3 POP POP PUSH1 0x20 PUSH2 0xA15 DUP6 DUP3 DUP7 ADD PUSH2 0x8D0 JUMP JUMPDEST SWAP2 POP POP SWAP3 POP SWAP3 SWAP1 POP JUMP JUMPDEST PUSH0 DUP2 ISZERO ISZERO SWAP1 POP SWAP2 SWAP1 POP JUMP JUMPDEST PUSH2 0xA33 DUP2 PUSH2 0xA1F JUMP JUMPDEST DUP3 MSTORE POP POP JUMP JUMPDEST PUSH0 PUSH1 0x20 DUP3 ADD SWAP1 POP PUSH2 0xA4C PUSH0 DUP4 ADD DUP5 PUSH2 0xA2A JUMP JUMPDEST SWAP3 SWAP2 POP POP JUMP JUMPDEST PUSH0 PUSH1 0x20 DUP3 DUP5 SUB SLT ISZERO PUSH2 0xA67 JUMPI PUSH2 0xA66 PUSH2 0x8AD JUMP JUMPDEST JUMPDEST PUSH0 PUSH2 0xA74 DUP5 DUP3 DUP6 ADD PUSH2 0x9CD JUMP JUMPDEST SWAP2 POP POP SWAP3 SWAP2 POP POP JUMP JUMPDEST PUSH0 PUSH1 0x40 DUP3 ADD SWAP1 POP PUSH2 0xA90 PUSH0 DUP4 ADD DUP6 PUSH2 0x95F JUMP JUMPDEST PUSH2 0xA9D PUSH1 0x20 DUP4 ADD DUP5 PUSH2 0x95F JUMP JUMPDEST SWAP4 SWAP3 POP POP POP JUMP JUMPDEST PUSH0 PUSH1 0x60 DUP3 ADD SWAP1 POP PUSH2 0xAB7 PUSH0 DUP4 ADD DUP7 PUSH2 0x95F JUMP JUMPDEST PUSH2 0xAC4 PUSH1 0x20 DUP4 ADD DUP6 PUSH2 0x95F JUMP JUMPDEST PUSH2 0xAD1 PUSH1 0x40 DUP4 ADD DUP5 PUSH2 0xA2A JUMP JUMPDEST SWAP5 SWAP4 POP POP POP POP JUMP JUMPDEST PUSH0 DUP3 DUP3 MSTORE PUSH1 0x20 DUP3 ADD SWAP1 POP SWAP3 SWAP2 POP POP JUMP JUMPDEST PUSH32 0x5175657374206E6F742061637469766500000000000000000000000000000000 PUSH0 DUP3 ADD MSTORE POP JUMP JUMPDEST PUSH0 PUSH2 0xB1D PUSH1 0x10 DUP4 PUSH2 0xAD9 JUMP JUMPDEST SWAP2 POP PUSH2 0xB28 DUP3 PUSH2 0xAE9 JUMP JUMPDEST PUSH1 0x20 DUP3 ADD SWAP1 POP SWAP2 SWAP1 POP JUMP JUMPDEST PUSH0 PUSH1 0x20 DUP3 ADD SWAP1 POP DUP2 DUP2 SUB PUSH0 DUP4 ADD MSTORE PUSH2 0xB4A DUP2 PUSH2 0xB11 JUMP JUMPDEST SWAP1 POP SWAP2 SWAP1 POP JUMP JUMPDEST PUSH32 0x5175657374206E6F7420666F756E640000000000000000000000000000000000 PUSH0 DUP3 ADD MSTORE POP JUMP JUMPDEST PUSH0 PUSH2 0xB85 PUSH1 0xF DUP4 PUSH2 0xAD9 JUMP JUMPDEST SWAP2 POP PUSH2 0xB90 DUP3 PUSH2 0xB51 JUMP JUMPDEST PUSH1 0x20 DUP3 ADD SWAP1 POP SWAP2 SWAP1 POP JUMP JUMPDEST PUSH0 PUSH1 0x20 DUP3 ADD SWAP1 POP DUP2 DUP2 SUB PUSH0 DUP4 ADD MSTORE PUSH2 0xBB2 DUP2 PUSH2 0xB79 JUMP JUMPDEST SWAP1 POP SWAP2 SWAP1 POP JUMP JUMPDEST PUSH32 0x4C6576656C20746F6F206C6F7700000000000000000000000000000000000000 PUSH0 DUP3 ADD MSTORE POP JUMP JUMPDEST PUSH0 PUSH2 0xBED PUSH1 0xD DUP4 PUSH2 0xAD9 JUMP JUMPDEST SWAP2 POP PUSH2 0xBF8 DUP3 PUSH2 0xBB9 JUMP JUMPDEST PUSH1 0x20 DUP3 ADD SWAP1 POP SWAP2 SWAP1 POP JUMP JUMPDEST PUSH0 PUSH1 0x20 DUP3 ADD SWAP1 POP DUP2 DUP2 SUB PUSH0 DUP4 ADD MSTORE PUSH2 0xC1A DUP2 PUSH2 0xBE1 JUMP JUMPDEST SWAP1 POP SWAP2 SWAP1 POP JUMP JUMPDEST PUSH32 0x517565737420616C726561647920737461727465640000000000000000000000 PUSH0 DUP3 ADD MSTORE POP JUMP JUMPDEST PUSH0 PUSH2 0xC55 PUSH1 0x15 DUP4 PUSH2 0xAD9 JUMP JUMPDEST SWAP2 POP PUSH2 0xC60 DUP3 PUSH2 0xC21 JUMP JUMPDEST PUSH1 0x20 DUP3 ADD SWAP1 POP SWAP2 SWAP1 POP JUMP JUMPDEST PUSH0 PUSH1 0x20 DUP3 ADD SWAP1 POP DUP2 DUP2 SUB PUSH0 DUP4 ADD MSTORE PUSH2 0xC82 DUP2 PUSH2 0xC49 JUMP JUMPDEST SWAP1 POP SWAP2 SWAP1 POP JUMP JUMPDEST PUSH32 0x517565737420616C726561647920636F6D706C65746564000000000000000000 PUSH0 DUP3 ADD MSTORE POP JUMP JUMPDEST PUSH0 PUSH2 0xCBD PUSH1 0x17 DUP4 PUSH2 0xAD9 JUMP JUMPDEST SWAP2 POP PUSH2 0xCC8 DUP3 PUSH2 0xC89 JUMP JUMPDEST PUSH1 0x20 DUP3 ADD SWAP1 POP SWAP2 SWAP1 POP JUMP JUMPDEST PUSH0 PUSH1 0x20 DUP3 ADD SWAP1 POP DUP2 DUP2 SUB PUSH0 DUP4 ADD MSTORE PUSH2 0xCEA DUP2 PUSH2 0xCB1 JUMP JUMPDEST SWAP1 POP SWAP2 SWAP1 POP JUMP JUMPDEST PUSH32 0x4E487B7100000000000000000000000000000000000000000000000000000000 PUSH0 MSTORE PUSH1 0x11 PUSH1 0x4 MSTORE PUSH1 0x24 PUSH0 REVERT JUMPDEST PUSH0 PUSH2 0xD28 DUP3 PUSH2 0x8B1 JUMP JUMPDEST SWAP2 POP PUSH2 0xD33 DUP4 PUSH2 0x8B1 JUMP JUMPDEST SWAP3 POP DUP3 DUP3 ADD SWAP1 POP DUP1 DUP3 GT ISZERO PUSH2 0xD4B JUMPI PUSH2 0xD4A PUSH2 0xCF1 JUMP JUMPDEST JUMPDEST SWAP3 SWAP2 POP POP JUMP JUMPDEST PUSH0 PUSH2 0xD5B DUP3 PUSH2 0x8B1 JUMP JUMPDEST SWAP2 POP PUSH2 0xD66 DUP4 PUSH2 0x8B1 JUMP JUMPDEST SWAP3 POP DUP3 DUP3 SUB SWAP1 POP DUP2 DUP2 GT ISZERO PUSH2 0xD7E JUMPI PUSH2 0xD7D PUSH2 0xCF1 JUMP JUMPDEST JUMPDEST SWAP3 SWAP2 POP POP JUMP INVALID LOG2 PUSH5 0x6970667358 0x22 SLT KECCAK256 RJUMPI 0xBCAA DUP1 PUSH18 0xCC1E9B70A02C8E32643DC339505858E5F69E PUSH18 0x1C1BC20CEAD611A064736F6C634300081E00 CALLER "
				},
				"gasEstimates": {
					"creation": {
						"codeDepositCost": "702800",
						"executionCost": "732",
						"totalCost": "703532"
					},
					"external": {
						"EXP_PER_LEVEL()": "391",
						"activeQuests(address,uint256)": "3115",
						"addQuest(uint256,uint256,uint256)": "infinite",
						"completeQuest(uint256)": "infinite",
						"completedQuests(address,uint256)": "3158",
						"getPlayer(address)": "infinite",
						"getReward(uint256)": "infinite",
						"players(address)": "infinite",
						"quests(uint256)": "infinite",
						"startQuest(uint256)": "38252"
					},
					"internal": {
						"_addExperience(address,uint256)": "infinite"
					}
				},
				"methodIdentifiers": {
					"EXP_PER_LEVEL()": "e447b0dc",
					"activeQuests(address,uint256)": "3e4b76cc",
					"addQuest(uint256,uint256,uint256)": "12e7fb29",
					"completeQuest(uint256)": "528be0a9",
					"completedQuests(address,uint256)": "f88630c7",
					"getPlayer(address)": "5c12cd4b",
					"getReward(uint256)": "1c4b774b",
					"players(address)": "e2eb41ff",
					"quests(uint256)": "e085f980",
					"startQuest(uint256)": "9e563544"
				}
			},
			"storageLayout": {
				"storage": [
					{
						"astId": 41,
						"contract": "contracts/QuestManager.sol:QuestManager",
						"label": "quests",
						"offset": 0,
						"slot": "0",
						"type": "t_mapping(t_uint256,t_struct(Quest)31_storage)"
					},
					{
						"astId": 46,
						"contract": "contracts/QuestManager.sol:QuestManager",
						"label": "players",
						"offset": 0,
						"slot": "1",
						"type": "t_mapping(t_address,t_struct(Player)36_storage)"
					},
					{
						"astId": 52,
						"contract": "contracts/QuestManager.sol:QuestManager",
						"label": "activeQuests",
						"offset": 0,
						"slot": "2",
						"type": "t_mapping(t_address,t_mapping(t_uint256,t_bool))"
					},
					{
						"astId": 58,
						"contract": "contracts/QuestManager.sol:QuestManager",
						"label": "completedQuests",
						"offset": 0,
						"slot": "3",
						"type": "t_mapping(t_address,t_mapping(t_uint256,t_bool))"
					}
				],
				"types": {
					"t_address": {
						"encoding": "inplace",
						"label": "address",
						"numberOfBytes": "20"
					},
					"t_bool": {
						"encoding": "inplace",
						"label": "bool",
						"numberOfBytes": "1"
					},
					"t_mapping(t_address,t_mapping(t_uint256,t_bool))": {
						"encoding": "mapping",
						"key": "t_address",
						"label": "mapping(address => mapping(uint256 => bool))",
						"numberOfBytes": "32",
						"value": "t_mapping(t_uint256,t_bool)"
					},
					"t_mapping(t_address,t_struct(Player)36_storage)": {
						"encoding": "mapping",
						"key": "t_address",
						"label": "mapping(address => struct QuestManager.Player)",
						"numberOfBytes": "32",
						"value": "t_struct(Player)36_storage"
					},
					"t_mapping(t_uint256,t_bool)": {
						"encoding": "mapping",
						"key": "t_uint256",
						"label": "mapping(uint256 => bool)",
						"numberOfBytes": "32",
						"value": "t_bool"
					},
					"t_mapping(t_uint256,t_struct(Quest)31_storage)": {
						"encoding": "mapping",
						"key": "t_uint256",
						"label": "mapping(uint256 => struct QuestManager.Quest)",
						"numberOfBytes": "32",
						"value": "t_struct(Quest)31_storage"
					},
					"t_struct(Player)36_storage": {
						"encoding": "inplace",
						"label": "struct QuestManager.Player",
						"members": [
							{
								"astId": 33,
								"contract": "contracts/QuestManager.sol:QuestManager",
								"label": "level",
								"offset": 0,
								"slot": "0",
								"type": "t_uint256"
							},
							{
								"astId": 35,
								"contract": "contracts/QuestManager.sol:QuestManager",
								"label": "experience",
								"offset": 0,
								"slot": "1",
								"type": "t_uint256"
							}
						],
						"numberOfBytes": "64"
					},
					"t_struct(Quest)31_storage": {
						"encoding": "inplace",
						"label": "struct QuestManager.Quest",
						"members": [
							{
								"astId": 26,
								"contract": "contracts/QuestManager.sol:QuestManager",
								"label": "reward",
								"offset": 0,
								"slot": "0",
								"type": "t_uint256"
							},
							{
								"astId": 28,
								"contract": "contracts/QuestManager.sol:QuestManager",
								"label": "requiredLevel",
								"offset": 0,
								"slot": "1",
								"type": "t_uint256"
							},
							{
								"astId": 30,
								"contract": "contracts/QuestManager.sol:QuestManager",
								"label": "exists",
								"offset": 0,
								"slot": "2",
								"type": "t_bool"
							}
						],
						"numberOfBytes": "96"
					},
					"t_uint256": {
						"encoding": "inplace",
						"label": "uint256",
						"numberOfBytes": "32"
					}
				}
			},
			"userdoc": {
				"kind": "user",
				"methods": {},
				"version": 1
			}
		}
	}
}