{
	"contracts/ResourceManager.sol": {
		"ResourceManager": {
			"abi": [
				{
					"inputs": [
						{
							"internalType": "uint256",
							"name": "energy",
							"type": "uint256"
						},
						{
							"internalType": "uint256",
							"name": "gold",
							"type": "uint256"
						}
					],
					"name": "addResources",
					"outputs": [],
					"stateMutability": "nonpayable",
					"type": "function"
				},
				{
					"inputs": [
						{
							"internalType": "uint256",
							"name": "percent",
							"type": "uint256"
						}
					],
					"name": "distributePlayerEnergy",
					"outputs": [],
					"stateMutability": "nonpayable",
					"type": "function"
				},
				{
					"inputs": [
						{
							"internalType": "address",
							"name": "player",
							"type": "address"
						}
					],
					"name": "getPlayerResources",
					"outputs": [
						{
							"internalType": "uint256",
							"name": "energy",
							"type": "uint256"
						},
						{
							"internalType": "uint256",
							"name": "gold",
							"type": "uint256"
						},
						{
							"internalType": "uint256",
							"name": "level",
							"type": "uint256"
						}
					],
					"stateMutability": "view",
					"type": "function"
				},
				{
					"inputs": [
						{
							"internalType": "address",
							"name": "",
							"type": "address"
						}
					],
					"name": "players",
					"outputs": [
						{
							"internalType": "uint256",
							"name": "energy",
							"type": "uint256"
						},
						{
							"internalType": "uint256",
							"name": "gold",
							"type": "uint256"
						},
						{
							"internalType": "uint256",
							"name": "level",
							"type": "uint256"
						}
					],
					"stateMutability": "view",
					"type": "function"
				},
				{
					"inputs": [
						{
							"internalType": "uint256",
							"name": "baseCost",
							"type": "uint256"
						}
					],
					"name": "upgrade",
					"outputs": [],
					"stateMutability": "nonpayable",
					"type": "function"
				}
			],
			"devdoc": {
				"kind": "dev",
				"methods": {},
				"version": 1
			},
			"evm": {
				"assembly": "    /* \"contracts/ResourceManager.sol\":88:1258  contract ResourceManager {... */\n  mstore(0x40, 0x80)\n  callvalue\n  dup1\n  iszero\n  tag_1\n  jumpi\n  revert(0x00, 0x00)\ntag_1:\n  pop\n  dataSize(sub_0)\n  dup1\n  dataOffset(sub_0)\n  0x00\n  codecopy\n  0x00\n  return\nstop\n\nsub_0: assembly {\n        /* \"contracts/ResourceManager.sol\":88:1258  contract ResourceManager {... */\n      mstore(0x40, 0x80)\n      callvalue\n      dup1\n      iszero\n      tag_1\n      jumpi\n      revert(0x00, 0x00)\n    tag_1:\n      pop\n      jumpi(tag_2, lt(calldatasize, 0x04))\n      shr(0xe0, calldataload(0x00))\n      dup1\n      0x45977d03\n      eq\n      tag_3\n      jumpi\n      dup1\n      0x4c07f0b3\n      eq\n      tag_4\n      jumpi\n      dup1\n      0x6554fc26\n      eq\n      tag_5\n      jumpi\n      dup1\n      0x788c5917\n      eq\n      tag_6\n      jumpi\n      dup1\n      0xe2eb41ff\n      eq\n      tag_7\n      jumpi\n    tag_2:\n      revert(0x00, 0x00)\n        /* \"contracts/ResourceManager.sol\":710:1007  function upgrade(uint256 baseCost) external {... */\n    tag_3:\n      tag_8\n      0x04\n      dup1\n      calldatasize\n      sub\n      dup2\n      add\n      swap1\n      tag_9\n      swap2\n      swap1\n      tag_10\n      jump\t// in\n    tag_9:\n      tag_11\n      jump\t// in\n    tag_8:\n      stop\n        /* \"contracts/ResourceManager.sol\":504:704  function distributePlayerEnergy(uint256 percent) external {... */\n    tag_4:\n      tag_12\n      0x04\n      dup1\n      calldatasize\n      sub\n      dup2\n      add\n      swap1\n      tag_13\n      swap2\n      swap1\n      tag_10\n      jump\t// in\n    tag_13:\n      tag_14\n      jump\t// in\n    tag_12:\n      stop\n        /* \"contracts/ResourceManager.sol\":320:498  function addResources(... */\n    tag_5:\n      tag_15\n      0x04\n      dup1\n      calldatasize\n      sub\n      dup2\n      add\n      swap1\n      tag_16\n      swap2\n      swap1\n      tag_17\n      jump\t// in\n    tag_16:\n      tag_18\n      jump\t// in\n    tag_15:\n      stop\n        /* \"contracts/ResourceManager.sol\":1013:1256  function getPlayerResources(address player)... */\n    tag_6:\n      tag_19\n      0x04\n      dup1\n      calldatasize\n      sub\n      dup2\n      add\n      swap1\n      tag_20\n      swap2\n      swap1\n      tag_21\n      jump\t// in\n    tag_20:\n      tag_22\n      jump\t// in\n    tag_19:\n      mload(0x40)\n      tag_23\n      swap4\n      swap3\n      swap2\n      swap1\n      tag_24\n      jump\t// in\n    tag_23:\n      mload(0x40)\n      dup1\n      swap2\n      sub\n      swap1\n      return\n        /* \"contracts/ResourceManager.sol\":263:313  mapping(address => PlayerResources) public players */\n    tag_7:\n      tag_25\n      0x04\n      dup1\n      calldatasize\n      sub\n      dup2\n      add\n      swap1\n      tag_26\n      swap2\n      swap1\n      tag_21\n      jump\t// in\n    tag_26:\n      tag_27\n      jump\t// in\n    tag_25:\n      mload(0x40)\n      tag_28\n      swap4\n      swap3\n      swap2\n      swap1\n      tag_24\n      jump\t// in\n    tag_28:\n      mload(0x40)\n      dup1\n      swap2\n      sub\n      swap1\n      return\n        /* \"contracts/ResourceManager.sol\":710:1007  function upgrade(uint256 baseCost) external {... */\n    tag_11:\n        /* \"contracts/ResourceManager.sol\":764:789  PlayerResources storage p */\n      0x00\n        /* \"contracts/ResourceManager.sol\":792:799  players */\n      0x00\n        /* \"contracts/ResourceManager.sol\":792:811  players[msg.sender] */\n      0x00\n        /* \"contracts/ResourceManager.sol\":800:810  msg.sender */\n      caller\n        /* \"contracts/ResourceManager.sol\":792:811  players[msg.sender] */\n      0xffffffffffffffffffffffffffffffffffffffff\n      and\n      0xffffffffffffffffffffffffffffffffffffffff\n      and\n      dup2\n      mstore\n      0x20\n      add\n      swap1\n      dup2\n      mstore\n      0x20\n      add\n      0x00\n      keccak256\n        /* \"contracts/ResourceManager.sol\":764:811  PlayerResources storage p = players[msg.sender] */\n      swap1\n      pop\n        /* \"contracts/ResourceManager.sol\":822:834  uint256 cost */\n      0x00\n        /* \"contracts/ResourceManager.sol\":837:881  ResourceUtils.upgradeCost(baseCost, p.level) */\n      tag_30\n        /* \"contracts/ResourceManager.sol\":863:871  baseCost */\n      dup4\n        /* \"contracts/ResourceManager.sol\":873:874  p */\n      dup4\n        /* \"contracts/ResourceManager.sol\":873:880  p.level */\n      0x02\n      add\n      sload\n        /* \"contracts/ResourceManager.sol\":837:862  ResourceUtils.upgradeCost */\n      tag_31\n        /* \"contracts/ResourceManager.sol\":837:881  ResourceUtils.upgradeCost(baseCost, p.level) */\n      jump\t// in\n    tag_30:\n        /* \"contracts/ResourceManager.sol\":822:881  uint256 cost = ResourceUtils.upgradeCost(baseCost, p.level) */\n      swap1\n      pop\n        /* \"contracts/ResourceManager.sol\":891:904  uint256 spend */\n      0x00\n        /* \"contracts/ResourceManager.sol\":907:952  ResourceUtils.optimizeGoldSpend(p.gold, cost) */\n      tag_32\n        /* \"contracts/ResourceManager.sol\":939:940  p */\n      dup4\n        /* \"contracts/ResourceManager.sol\":939:945  p.gold */\n      0x01\n      add\n      sload\n        /* \"contracts/ResourceManager.sol\":947:951  cost */\n      dup4\n        /* \"contracts/ResourceManager.sol\":907:938  ResourceUtils.optimizeGoldSpend */\n      tag_33\n        /* \"contracts/ResourceManager.sol\":907:952  ResourceUtils.optimizeGoldSpend(p.gold, cost) */\n      jump\t// in\n    tag_32:\n        /* \"contracts/ResourceManager.sol\":891:952  uint256 spend = ResourceUtils.optimizeGoldSpend(p.gold, cost) */\n      swap1\n      pop\n        /* \"contracts/ResourceManager.sol\":973:978  spend */\n      dup1\n        /* \"contracts/ResourceManager.sol\":963:964  p */\n      dup4\n        /* \"contracts/ResourceManager.sol\":963:969  p.gold */\n      0x01\n      add\n      0x00\n        /* \"contracts/ResourceManager.sol\":963:978  p.gold -= spend */\n      dup3\n      dup3\n      sload\n      tag_34\n      swap2\n      swap1\n      tag_35\n      jump\t// in\n    tag_34:\n      swap3\n      pop\n      pop\n      dup2\n      swap1\n      sstore\n      pop\n        /* \"contracts/ResourceManager.sol\":999:1000  1 */\n      0x01\n        /* \"contracts/ResourceManager.sol\":988:989  p */\n      dup4\n        /* \"contracts/ResourceManager.sol\":988:995  p.level */\n      0x02\n      add\n      0x00\n        /* \"contracts/ResourceManager.sol\":988:1000  p.level += 1 */\n      dup3\n      dup3\n      sload\n      tag_36\n      swap2\n      swap1\n      tag_37\n      jump\t// in\n    tag_36:\n      swap3\n      pop\n      pop\n      dup2\n      swap1\n      sstore\n      pop\n        /* \"contracts/ResourceManager.sol\":754:1007  {... */\n      pop\n      pop\n      pop\n        /* \"contracts/ResourceManager.sol\":710:1007  function upgrade(uint256 baseCost) external {... */\n      pop\n      jump\t// out\n        /* \"contracts/ResourceManager.sol\":504:704  function distributePlayerEnergy(uint256 percent) external {... */\n    tag_14:\n        /* \"contracts/ResourceManager.sol\":572:591  uint256 distributed */\n      0x00\n        /* \"contracts/ResourceManager.sol\":594:646  players[msg.sender].energy.distributeEnergy(percent) */\n      tag_39\n        /* \"contracts/ResourceManager.sol\":638:645  percent */\n      dup3\n        /* \"contracts/ResourceManager.sol\":594:601  players */\n      0x00\n        /* \"contracts/ResourceManager.sol\":594:613  players[msg.sender] */\n      0x00\n        /* \"contracts/ResourceManager.sol\":602:612  msg.sender */\n      caller\n        /* \"contracts/ResourceManager.sol\":594:613  players[msg.sender] */\n      0xffffffffffffffffffffffffffffffffffffffff\n      and\n      0xffffffffffffffffffffffffffffffffffffffff\n      and\n      dup2\n      mstore\n      0x20\n      add\n      swap1\n      dup2\n      mstore\n      0x20\n      add\n      0x00\n      keccak256\n        /* \"contracts/ResourceManager.sol\":594:620  players[msg.sender].energy */\n      0x00\n      add\n      sload\n        /* \"contracts/ResourceManager.sol\":594:637  players[msg.sender].energy.distributeEnergy */\n      tag_40\n      swap1\n        /* \"contracts/ResourceManager.sol\":594:646  players[msg.sender].energy.distributeEnergy(percent) */\n      swap2\n      swap1\n      0xffffffff\n      and\n      jump\t// in\n    tag_39:\n        /* \"contracts/ResourceManager.sol\":572:646  uint256 distributed = players[msg.sender].energy.distributeEnergy(percent) */\n      swap1\n      pop\n        /* \"contracts/ResourceManager.sol\":686:697  distributed */\n      dup1\n        /* \"contracts/ResourceManager.sol\":656:663  players */\n      0x00\n        /* \"contracts/ResourceManager.sol\":656:675  players[msg.sender] */\n      0x00\n        /* \"contracts/ResourceManager.sol\":664:674  msg.sender */\n      caller\n        /* \"contracts/ResourceManager.sol\":656:675  players[msg.sender] */\n      0xffffffffffffffffffffffffffffffffffffffff\n      and\n      0xffffffffffffffffffffffffffffffffffffffff\n      and\n      dup2\n      mstore\n      0x20\n      add\n      swap1\n      dup2\n      mstore\n      0x20\n      add\n      0x00\n      keccak256\n        /* \"contracts/ResourceManager.sol\":656:682  players[msg.sender].energy */\n      0x00\n      add\n      0x00\n        /* \"contracts/ResourceManager.sol\":656:697  players[msg.sender].energy -= distributed */\n      dup3\n      dup3\n      sload\n      tag_41\n      swap2\n      swap1\n      tag_35\n      jump\t// in\n    tag_41:\n      swap3\n      pop\n      pop\n      dup2\n      swap1\n      sstore\n      pop\n        /* \"contracts/ResourceManager.sol\":562:704  {... */\n      pop\n        /* \"contracts/ResourceManager.sol\":504:704  function distributePlayerEnergy(uint256 percent) external {... */\n      pop\n      jump\t// out\n        /* \"contracts/ResourceManager.sol\":320:498  function addResources(... */\n    tag_18:\n        /* \"contracts/ResourceManager.sol\":443:449  energy */\n      dup2\n        /* \"contracts/ResourceManager.sol\":413:420  players */\n      0x00\n        /* \"contracts/ResourceManager.sol\":413:432  players[msg.sender] */\n      0x00\n        /* \"contracts/ResourceManager.sol\":421:431  msg.sender */\n      caller\n        /* \"contracts/ResourceManager.sol\":413:432  players[msg.sender] */\n      0xffffffffffffffffffffffffffffffffffffffff\n      and\n      0xffffffffffffffffffffffffffffffffffffffff\n      and\n      dup2\n      mstore\n      0x20\n      add\n      swap1\n      dup2\n      mstore\n      0x20\n      add\n      0x00\n      keccak256\n        /* \"contracts/ResourceManager.sol\":413:439  players[msg.sender].energy */\n      0x00\n      add\n      0x00\n        /* \"contracts/ResourceManager.sol\":413:449  players[msg.sender].energy += energy */\n      dup3\n      dup3\n      sload\n      tag_43\n      swap2\n      swap1\n      tag_37\n      jump\t// in\n    tag_43:\n      swap3\n      pop\n      pop\n      dup2\n      swap1\n      sstore\n      pop\n        /* \"contracts/ResourceManager.sol\":487:491  gold */\n      dup1\n        /* \"contracts/ResourceManager.sol\":459:466  players */\n      0x00\n        /* \"contracts/ResourceManager.sol\":459:478  players[msg.sender] */\n      0x00\n        /* \"contracts/ResourceManager.sol\":467:477  msg.sender */\n      caller\n        /* \"contracts/ResourceManager.sol\":459:478  players[msg.sender] */\n      0xffffffffffffffffffffffffffffffffffffffff\n      and\n      0xffffffffffffffffffffffffffffffffffffffff\n      and\n      dup2\n      mstore\n      0x20\n      add\n      swap1\n      dup2\n      mstore\n      0x20\n      add\n      0x00\n      keccak256\n        /* \"contracts/ResourceManager.sol\":459:483  players[msg.sender].gold */\n      0x01\n      add\n      0x00\n        /* \"contracts/ResourceManager.sol\":459:491  players[msg.sender].gold += gold */\n      dup3\n      dup3\n      sload\n      tag_44\n      swap2\n      swap1\n      tag_37\n      jump\t// in\n    tag_44:\n      swap3\n      pop\n      pop\n      dup2\n      swap1\n      sstore\n      pop\n        /* \"contracts/ResourceManager.sol\":320:498  function addResources(... */\n      pop\n      pop\n      jump\t// out\n        /* \"contracts/ResourceManager.sol\":1013:1256  function getPlayerResources(address player)... */\n    tag_22:\n        /* \"contracts/ResourceManager.sol\":1104:1118  uint256 energy */\n      0x00\n        /* \"contracts/ResourceManager.sol\":1120:1132  uint256 gold */\n      0x00\n        /* \"contracts/ResourceManager.sol\":1134:1147  uint256 level */\n      0x00\n        /* \"contracts/ResourceManager.sol\":1163:1187  PlayerResources memory p */\n      0x00\n        /* \"contracts/ResourceManager.sol\":1190:1197  players */\n      0x00\n        /* \"contracts/ResourceManager.sol\":1190:1205  players[player] */\n      0x00\n        /* \"contracts/ResourceManager.sol\":1198:1204  player */\n      dup7\n        /* \"contracts/ResourceManager.sol\":1190:1205  players[player] */\n      0xffffffffffffffffffffffffffffffffffffffff\n      and\n      0xffffffffffffffffffffffffffffffffffffffff\n      and\n      dup2\n      mstore\n      0x20\n      add\n      swap1\n      dup2\n      mstore\n      0x20\n      add\n      0x00\n      keccak256\n        /* \"contracts/ResourceManager.sol\":1163:1205  PlayerResources memory p = players[player] */\n      mload(0x40)\n      dup1\n      0x60\n      add\n      0x40\n      mstore\n      swap1\n      dup2\n      0x00\n      dup3\n      add\n      sload\n      dup2\n      mstore\n      0x20\n      add\n      0x01\n      dup3\n      add\n      sload\n      dup2\n      mstore\n      0x20\n      add\n      0x02\n      dup3\n      add\n      sload\n      dup2\n      mstore\n      pop\n      pop\n      swap1\n      pop\n        /* \"contracts/ResourceManager.sol\":1223:1224  p */\n      dup1\n        /* \"contracts/ResourceManager.sol\":1223:1231  p.energy */\n      0x00\n      add\n      mload\n        /* \"contracts/ResourceManager.sol\":1233:1234  p */\n      dup2\n        /* \"contracts/ResourceManager.sol\":1233:1239  p.gold */\n      0x20\n      add\n      mload\n        /* \"contracts/ResourceManager.sol\":1241:1242  p */\n      dup3\n        /* \"contracts/ResourceManager.sol\":1241:1248  p.level */\n      0x40\n      add\n      mload\n        /* \"contracts/ResourceManager.sol\":1215:1249  return (p.energy, p.gold, p.level) */\n      swap4\n      pop\n      swap4\n      pop\n      swap4\n      pop\n      pop\n        /* \"contracts/ResourceManager.sol\":1013:1256  function getPlayerResources(address player)... */\n      swap2\n      swap4\n      swap1\n      swap3\n      pop\n      jump\t// out\n        /* \"contracts/ResourceManager.sol\":263:313  mapping(address => PlayerResources) public players */\n    tag_27:\n      mstore(0x20, 0x00)\n      dup1\n      0x00\n      mstore\n      keccak256(0x00, 0x40)\n      0x00\n      swap2\n      pop\n      swap1\n      pop\n      dup1\n      0x00\n      add\n      sload\n      swap1\n      dup1\n      0x01\n      add\n      sload\n      swap1\n      dup1\n      0x02\n      add\n      sload\n      swap1\n      pop\n      dup4\n      jump\t// out\n        /* \"contracts/ResourceUtils.sol\":263:417  function upgradeCost(... */\n    tag_31:\n        /* \"contracts/ResourceUtils.sol\":362:369  uint256 */\n      0x00\n        /* \"contracts/ResourceUtils.sol\":408:409  1 */\n      0x01\n        /* \"contracts/ResourceUtils.sol\":400:405  level */\n      dup3\n        /* \"contracts/ResourceUtils.sol\":400:409  level + 1 */\n      tag_47\n      swap2\n      swap1\n      tag_37\n      jump\t// in\n    tag_47:\n        /* \"contracts/ResourceUtils.sol\":388:396  baseCost */\n      dup4\n        /* \"contracts/ResourceUtils.sol\":388:410  baseCost * (level + 1) */\n      tag_48\n      swap2\n      swap1\n      tag_49\n      jump\t// in\n    tag_48:\n        /* \"contracts/ResourceUtils.sol\":381:410  return baseCost * (level + 1) */\n      swap1\n      pop\n        /* \"contracts/ResourceUtils.sol\":263:417  function upgradeCost(... */\n      swap3\n      swap2\n      pop\n      pop\n      jump\t// out\n        /* \"contracts/ResourceUtils.sol\":423:634  function optimizeGoldSpend(... */\n    tag_33:\n        /* \"contracts/ResourceUtils.sol\":527:534  uint256 */\n      0x00\n        /* \"contracts/ResourceUtils.sol\":557:565  maxSpend */\n      dup2\n        /* \"contracts/ResourceUtils.sol\":550:554  gold */\n      dup4\n        /* \"contracts/ResourceUtils.sol\":550:565  gold > maxSpend */\n      gt\n        /* \"contracts/ResourceUtils.sol\":546:607  if (gold > maxSpend) {... */\n      iszero\n      tag_51\n      jumpi\n        /* \"contracts/ResourceUtils.sol\":588:596  maxSpend */\n      dup2\n        /* \"contracts/ResourceUtils.sol\":581:596  return maxSpend */\n      swap1\n      pop\n      jump(tag_50)\n        /* \"contracts/ResourceUtils.sol\":546:607  if (gold > maxSpend) {... */\n    tag_51:\n        /* \"contracts/ResourceUtils.sol\":623:627  gold */\n      dup3\n        /* \"contracts/ResourceUtils.sol\":616:627  return gold */\n      swap1\n      pop\n        /* \"contracts/ResourceUtils.sol\":423:634  function optimizeGoldSpend(... */\n    tag_50:\n      swap3\n      swap2\n      pop\n      pop\n      jump\t// out\n        /* \"contracts/ResourceUtils.sol\":86:257  function distributeEnergy(... */\n    tag_40:\n        /* \"contracts/ResourceUtils.sol\":195:202  uint256 */\n      0x00\n        /* \"contracts/ResourceUtils.sol\":247:250  100 */\n      0x64\n        /* \"contracts/ResourceUtils.sol\":236:243  percent */\n      dup3\n        /* \"contracts/ResourceUtils.sol\":222:233  totalEnergy */\n      dup5\n        /* \"contracts/ResourceUtils.sol\":222:243  totalEnergy * percent */\n      tag_53\n      swap2\n      swap1\n      tag_49\n      jump\t// in\n    tag_53:\n        /* \"contracts/ResourceUtils.sol\":221:250  (totalEnergy * percent) / 100 */\n      tag_54\n      swap2\n      swap1\n      tag_55\n      jump\t// in\n    tag_54:\n        /* \"contracts/ResourceUtils.sol\":214:250  return (totalEnergy * percent) / 100 */\n      swap1\n      pop\n        /* \"contracts/ResourceUtils.sol\":86:257  function distributeEnergy(... */\n      swap3\n      swap2\n      pop\n      pop\n      jump\t// out\n        /* \"#utility.yul\":88:205   */\n    tag_57:\n        /* \"#utility.yul\":197:198   */\n      0x00\n        /* \"#utility.yul\":194:195   */\n      0x00\n        /* \"#utility.yul\":187:199   */\n      revert\n        /* \"#utility.yul\":334:411   */\n    tag_59:\n        /* \"#utility.yul\":371:378   */\n      0x00\n        /* \"#utility.yul\":400:405   */\n      dup2\n        /* \"#utility.yul\":389:405   */\n      swap1\n      pop\n        /* \"#utility.yul\":334:411   */\n      swap2\n      swap1\n      pop\n      jump\t// out\n        /* \"#utility.yul\":417:539   */\n    tag_60:\n        /* \"#utility.yul\":490:514   */\n      tag_75\n        /* \"#utility.yul\":508:513   */\n      dup2\n        /* \"#utility.yul\":490:514   */\n      tag_59\n      jump\t// in\n    tag_75:\n        /* \"#utility.yul\":483:488   */\n      dup2\n        /* \"#utility.yul\":480:515   */\n      eq\n        /* \"#utility.yul\":470:533   */\n      tag_76\n      jumpi\n        /* \"#utility.yul\":529:530   */\n      0x00\n        /* \"#utility.yul\":526:527   */\n      0x00\n        /* \"#utility.yul\":519:531   */\n      revert\n        /* \"#utility.yul\":470:533   */\n    tag_76:\n        /* \"#utility.yul\":417:539   */\n      pop\n      jump\t// out\n        /* \"#utility.yul\":545:684   */\n    tag_61:\n        /* \"#utility.yul\":591:596   */\n      0x00\n        /* \"#utility.yul\":629:635   */\n      dup2\n        /* \"#utility.yul\":616:636   */\n      calldataload\n        /* \"#utility.yul\":607:636   */\n      swap1\n      pop\n        /* \"#utility.yul\":645:678   */\n      tag_78\n        /* \"#utility.yul\":672:677   */\n      dup2\n        /* \"#utility.yul\":645:678   */\n      tag_60\n      jump\t// in\n    tag_78:\n        /* \"#utility.yul\":545:684   */\n      swap3\n      swap2\n      pop\n      pop\n      jump\t// out\n        /* \"#utility.yul\":690:1019   */\n    tag_10:\n        /* \"#utility.yul\":749:755   */\n      0x00\n        /* \"#utility.yul\":798:800   */\n      0x20\n        /* \"#utility.yul\":786:795   */\n      dup3\n        /* \"#utility.yul\":777:784   */\n      dup5\n        /* \"#utility.yul\":773:796   */\n      sub\n        /* \"#utility.yul\":769:801   */\n      slt\n        /* \"#utility.yul\":766:885   */\n      iszero\n      tag_80\n      jumpi\n        /* \"#utility.yul\":804:883   */\n      tag_81\n      tag_57\n      jump\t// in\n    tag_81:\n        /* \"#utility.yul\":766:885   */\n    tag_80:\n        /* \"#utility.yul\":924:925   */\n      0x00\n        /* \"#utility.yul\":949:1002   */\n      tag_82\n        /* \"#utility.yul\":994:1001   */\n      dup5\n        /* \"#utility.yul\":985:991   */\n      dup3\n        /* \"#utility.yul\":974:983   */\n      dup6\n        /* \"#utility.yul\":970:992   */\n      add\n        /* \"#utility.yul\":949:1002   */\n      tag_61\n      jump\t// in\n    tag_82:\n        /* \"#utility.yul\":939:1002   */\n      swap2\n      pop\n        /* \"#utility.yul\":895:1012   */\n      pop\n        /* \"#utility.yul\":690:1019   */\n      swap3\n      swap2\n      pop\n      pop\n      jump\t// out\n        /* \"#utility.yul\":1025:1499   */\n    tag_17:\n        /* \"#utility.yul\":1093:1099   */\n      0x00\n        /* \"#utility.yul\":1101:1107   */\n      0x00\n        /* \"#utility.yul\":1150:1152   */\n      0x40\n        /* \"#utility.yul\":1138:1147   */\n      dup4\n        /* \"#utility.yul\":1129:1136   */\n      dup6\n        /* \"#utility.yul\":1125:1148   */\n      sub\n        /* \"#utility.yul\":1121:1153   */\n      slt\n        /* \"#utility.yul\":1118:1237   */\n      iszero\n      tag_84\n      jumpi\n        /* \"#utility.yul\":1156:1235   */\n      tag_85\n      tag_57\n      jump\t// in\n    tag_85:\n        /* \"#utility.yul\":1118:1237   */\n    tag_84:\n        /* \"#utility.yul\":1276:1277   */\n      0x00\n        /* \"#utility.yul\":1301:1354   */\n      tag_86\n        /* \"#utility.yul\":1346:1353   */\n      dup6\n        /* \"#utility.yul\":1337:1343   */\n      dup3\n        /* \"#utility.yul\":1326:1335   */\n      dup7\n        /* \"#utility.yul\":1322:1344   */\n      add\n        /* \"#utility.yul\":1301:1354   */\n      tag_61\n      jump\t// in\n    tag_86:\n        /* \"#utility.yul\":1291:1354   */\n      swap3\n      pop\n        /* \"#utility.yul\":1247:1364   */\n      pop\n        /* \"#utility.yul\":1403:1405   */\n      0x20\n        /* \"#utility.yul\":1429:1482   */\n      tag_87\n        /* \"#utility.yul\":1474:1481   */\n      dup6\n        /* \"#utility.yul\":1465:1471   */\n      dup3\n        /* \"#utility.yul\":1454:1463   */\n      dup7\n        /* \"#utility.yul\":1450:1472   */\n      add\n        /* \"#utility.yul\":1429:1482   */\n      tag_61\n      jump\t// in\n    tag_87:\n        /* \"#utility.yul\":1419:1482   */\n      swap2\n      pop\n        /* \"#utility.yul\":1374:1492   */\n      pop\n        /* \"#utility.yul\":1025:1499   */\n      swap3\n      pop\n      swap3\n      swap1\n      pop\n      jump\t// out\n        /* \"#utility.yul\":1505:1631   */\n    tag_62:\n        /* \"#utility.yul\":1542:1549   */\n      0x00\n        /* \"#utility.yul\":1582:1624   */\n      0xffffffffffffffffffffffffffffffffffffffff\n        /* \"#utility.yul\":1575:1580   */\n      dup3\n        /* \"#utility.yul\":1571:1625   */\n      and\n        /* \"#utility.yul\":1560:1625   */\n      swap1\n      pop\n        /* \"#utility.yul\":1505:1631   */\n      swap2\n      swap1\n      pop\n      jump\t// out\n        /* \"#utility.yul\":1637:1733   */\n    tag_63:\n        /* \"#utility.yul\":1674:1681   */\n      0x00\n        /* \"#utility.yul\":1703:1727   */\n      tag_90\n        /* \"#utility.yul\":1721:1726   */\n      dup3\n        /* \"#utility.yul\":1703:1727   */\n      tag_62\n      jump\t// in\n    tag_90:\n        /* \"#utility.yul\":1692:1727   */\n      swap1\n      pop\n        /* \"#utility.yul\":1637:1733   */\n      swap2\n      swap1\n      pop\n      jump\t// out\n        /* \"#utility.yul\":1739:1861   */\n    tag_64:\n        /* \"#utility.yul\":1812:1836   */\n      tag_92\n        /* \"#utility.yul\":1830:1835   */\n      dup2\n        /* \"#utility.yul\":1812:1836   */\n      tag_63\n      jump\t// in\n    tag_92:\n        /* \"#utility.yul\":1805:1810   */\n      dup2\n        /* \"#utility.yul\":1802:1837   */\n      eq\n        /* \"#utility.yul\":1792:1855   */\n      tag_93\n      jumpi\n        /* \"#utility.yul\":1851:1852   */\n      0x00\n        /* \"#utility.yul\":1848:1849   */\n      0x00\n        /* \"#utility.yul\":1841:1853   */\n      revert\n        /* \"#utility.yul\":1792:1855   */\n    tag_93:\n        /* \"#utility.yul\":1739:1861   */\n      pop\n      jump\t// out\n        /* \"#utility.yul\":1867:2006   */\n    tag_65:\n        /* \"#utility.yul\":1913:1918   */\n      0x00\n        /* \"#utility.yul\":1951:1957   */\n      dup2\n        /* \"#utility.yul\":1938:1958   */\n      calldataload\n        /* \"#utility.yul\":1929:1958   */\n      swap1\n      pop\n        /* \"#utility.yul\":1967:2000   */\n      tag_95\n        /* \"#utility.yul\":1994:1999   */\n      dup2\n        /* \"#utility.yul\":1967:2000   */\n      tag_64\n      jump\t// in\n    tag_95:\n        /* \"#utility.yul\":1867:2006   */\n      swap3\n      swap2\n      pop\n      pop\n      jump\t// out\n        /* \"#utility.yul\":2012:2341   */\n    tag_21:\n        /* \"#utility.yul\":2071:2077   */\n      0x00\n        /* \"#utility.yul\":2120:2122   */\n      0x20\n        /* \"#utility.yul\":2108:2117   */\n      dup3\n        /* \"#utility.yul\":2099:2106   */\n      dup5\n        /* \"#utility.yul\":2095:2118   */\n      sub\n        /* \"#utility.yul\":2091:2123   */\n      slt\n        /* \"#utility.yul\":2088:2207   */\n      iszero\n      tag_97\n      jumpi\n        /* \"#utility.yul\":2126:2205   */\n      tag_98\n      tag_57\n      jump\t// in\n    tag_98:\n        /* \"#utility.yul\":2088:2207   */\n    tag_97:\n        /* \"#utility.yul\":2246:2247   */\n      0x00\n        /* \"#utility.yul\":2271:2324   */\n      tag_99\n        /* \"#utility.yul\":2316:2323   */\n      dup5\n        /* \"#utility.yul\":2307:2313   */\n      dup3\n        /* \"#utility.yul\":2296:2305   */\n      dup6\n        /* \"#utility.yul\":2292:2314   */\n      add\n        /* \"#utility.yul\":2271:2324   */\n      tag_65\n      jump\t// in\n    tag_99:\n        /* \"#utility.yul\":2261:2324   */\n      swap2\n      pop\n        /* \"#utility.yul\":2217:2334   */\n      pop\n        /* \"#utility.yul\":2012:2341   */\n      swap3\n      swap2\n      pop\n      pop\n      jump\t// out\n        /* \"#utility.yul\":2347:2465   */\n    tag_66:\n        /* \"#utility.yul\":2434:2458   */\n      tag_101\n        /* \"#utility.yul\":2452:2457   */\n      dup2\n        /* \"#utility.yul\":2434:2458   */\n      tag_59\n      jump\t// in\n    tag_101:\n        /* \"#utility.yul\":2429:2432   */\n      dup3\n        /* \"#utility.yul\":2422:2459   */\n      mstore\n        /* \"#utility.yul\":2347:2465   */\n      pop\n      pop\n      jump\t// out\n        /* \"#utility.yul\":2471:2913   */\n    tag_24:\n        /* \"#utility.yul\":2620:2624   */\n      0x00\n        /* \"#utility.yul\":2658:2660   */\n      0x60\n        /* \"#utility.yul\":2647:2656   */\n      dup3\n        /* \"#utility.yul\":2643:2661   */\n      add\n        /* \"#utility.yul\":2635:2661   */\n      swap1\n      pop\n        /* \"#utility.yul\":2671:2742   */\n      tag_103\n        /* \"#utility.yul\":2739:2740   */\n      0x00\n        /* \"#utility.yul\":2728:2737   */\n      dup4\n        /* \"#utility.yul\":2724:2741   */\n      add\n        /* \"#utility.yul\":2715:2721   */\n      dup7\n        /* \"#utility.yul\":2671:2742   */\n      tag_66\n      jump\t// in\n    tag_103:\n        /* \"#utility.yul\":2752:2824   */\n      tag_104\n        /* \"#utility.yul\":2820:2822   */\n      0x20\n        /* \"#utility.yul\":2809:2818   */\n      dup4\n        /* \"#utility.yul\":2805:2823   */\n      add\n        /* \"#utility.yul\":2796:2802   */\n      dup6\n        /* \"#utility.yul\":2752:2824   */\n      tag_66\n      jump\t// in\n    tag_104:\n        /* \"#utility.yul\":2834:2906   */\n      tag_105\n        /* \"#utility.yul\":2902:2904   */\n      0x40\n        /* \"#utility.yul\":2891:2900   */\n      dup4\n        /* \"#utility.yul\":2887:2905   */\n      add\n        /* \"#utility.yul\":2878:2884   */\n      dup5\n        /* \"#utility.yul\":2834:2906   */\n      tag_66\n      jump\t// in\n    tag_105:\n        /* \"#utility.yul\":2471:2913   */\n      swap5\n      swap4\n      pop\n      pop\n      pop\n      pop\n      jump\t// out\n        /* \"#utility.yul\":2919:3099   */\n    tag_67:\n        /* \"#utility.yul\":2967:3044   */\n      0x4e487b7100000000000000000000000000000000000000000000000000000000\n        /* \"#utility.yul\":2964:2965   */\n      0x00\n        /* \"#utility.yul\":2957:3045   */\n      mstore\n        /* \"#utility.yul\":3064:3068   */\n      0x11\n        /* \"#utility.yul\":3061:3062   */\n      0x04\n        /* \"#utility.yul\":3054:3069   */\n      mstore\n        /* \"#utility.yul\":3088:3092   */\n      0x24\n        /* \"#utility.yul\":3085:3086   */\n      0x00\n        /* \"#utility.yul\":3078:3093   */\n      revert\n        /* \"#utility.yul\":3105:3299   */\n    tag_35:\n        /* \"#utility.yul\":3145:3149   */\n      0x00\n        /* \"#utility.yul\":3165:3185   */\n      tag_108\n        /* \"#utility.yul\":3183:3184   */\n      dup3\n        /* \"#utility.yul\":3165:3185   */\n      tag_59\n      jump\t// in\n    tag_108:\n        /* \"#utility.yul\":3160:3185   */\n      swap2\n      pop\n        /* \"#utility.yul\":3199:3219   */\n      tag_109\n        /* \"#utility.yul\":3217:3218   */\n      dup4\n        /* \"#utility.yul\":3199:3219   */\n      tag_59\n      jump\t// in\n    tag_109:\n        /* \"#utility.yul\":3194:3219   */\n      swap3\n      pop\n        /* \"#utility.yul\":3243:3244   */\n      dup3\n        /* \"#utility.yul\":3240:3241   */\n      dup3\n        /* \"#utility.yul\":3236:3245   */\n      sub\n        /* \"#utility.yul\":3228:3245   */\n      swap1\n      pop\n        /* \"#utility.yul\":3267:3268   */\n      dup2\n        /* \"#utility.yul\":3261:3265   */\n      dup2\n        /* \"#utility.yul\":3258:3269   */\n      gt\n        /* \"#utility.yul\":3255:3292   */\n      iszero\n      tag_110\n      jumpi\n        /* \"#utility.yul\":3272:3290   */\n      tag_111\n      tag_67\n      jump\t// in\n    tag_111:\n        /* \"#utility.yul\":3255:3292   */\n    tag_110:\n        /* \"#utility.yul\":3105:3299   */\n      swap3\n      swap2\n      pop\n      pop\n      jump\t// out\n        /* \"#utility.yul\":3305:3496   */\n    tag_37:\n        /* \"#utility.yul\":3345:3348   */\n      0x00\n        /* \"#utility.yul\":3364:3384   */\n      tag_113\n        /* \"#utility.yul\":3382:3383   */\n      dup3\n        /* \"#utility.yul\":3364:3384   */\n      tag_59\n      jump\t// in\n    tag_113:\n        /* \"#utility.yul\":3359:3384   */\n      swap2\n      pop\n        /* \"#utility.yul\":3398:3418   */\n      tag_114\n        /* \"#utility.yul\":3416:3417   */\n      dup4\n        /* \"#utility.yul\":3398:3418   */\n      tag_59\n      jump\t// in\n    tag_114:\n        /* \"#utility.yul\":3393:3418   */\n      swap3\n      pop\n        /* \"#utility.yul\":3441:3442   */\n      dup3\n        /* \"#utility.yul\":3438:3439   */\n      dup3\n        /* \"#utility.yul\":3434:3443   */\n      add\n        /* \"#utility.yul\":3427:3443   */\n      swap1\n      pop\n        /* \"#utility.yul\":3462:3465   */\n      dup1\n        /* \"#utility.yul\":3459:3460   */\n      dup3\n        /* \"#utility.yul\":3456:3466   */\n      gt\n        /* \"#utility.yul\":3453:3489   */\n      iszero\n      tag_115\n      jumpi\n        /* \"#utility.yul\":3469:3487   */\n      tag_116\n      tag_67\n      jump\t// in\n    tag_116:\n        /* \"#utility.yul\":3453:3489   */\n    tag_115:\n        /* \"#utility.yul\":3305:3496   */\n      swap3\n      swap2\n      pop\n      pop\n      jump\t// out\n        /* \"#utility.yul\":3502:3912   */\n    tag_49:\n        /* \"#utility.yul\":3542:3549   */\n      0x00\n        /* \"#utility.yul\":3565:3585   */\n      tag_118\n        /* \"#utility.yul\":3583:3584   */\n      dup3\n        /* \"#utility.yul\":3565:3585   */\n      tag_59\n      jump\t// in\n    tag_118:\n        /* \"#utility.yul\":3560:3585   */\n      swap2\n      pop\n        /* \"#utility.yul\":3599:3619   */\n      tag_119\n        /* \"#utility.yul\":3617:3618   */\n      dup4\n        /* \"#utility.yul\":3599:3619   */\n      tag_59\n      jump\t// in\n    tag_119:\n        /* \"#utility.yul\":3594:3619   */\n      swap3\n      pop\n        /* \"#utility.yul\":3654:3655   */\n      dup3\n        /* \"#utility.yul\":3651:3652   */\n      dup3\n        /* \"#utility.yul\":3647:3656   */\n      mul\n        /* \"#utility.yul\":3676:3706   */\n      tag_120\n        /* \"#utility.yul\":3694:3705   */\n      dup2\n        /* \"#utility.yul\":3676:3706   */\n      tag_59\n      jump\t// in\n    tag_120:\n        /* \"#utility.yul\":3665:3706   */\n      swap2\n      pop\n        /* \"#utility.yul\":3855:3856   */\n      dup3\n        /* \"#utility.yul\":3846:3853   */\n      dup3\n        /* \"#utility.yul\":3842:3857   */\n      div\n        /* \"#utility.yul\":3839:3840   */\n      dup5\n        /* \"#utility.yul\":3836:3858   */\n      eq\n        /* \"#utility.yul\":3816:3817   */\n      dup4\n        /* \"#utility.yul\":3809:3818   */\n      iszero\n        /* \"#utility.yul\":3789:3872   */\n      or\n        /* \"#utility.yul\":3766:3905   */\n      tag_121\n      jumpi\n        /* \"#utility.yul\":3885:3903   */\n      tag_122\n      tag_67\n      jump\t// in\n    tag_122:\n        /* \"#utility.yul\":3766:3905   */\n    tag_121:\n        /* \"#utility.yul\":3550:3912   */\n      pop\n        /* \"#utility.yul\":3502:3912   */\n      swap3\n      swap2\n      pop\n      pop\n      jump\t// out\n        /* \"#utility.yul\":3918:4098   */\n    tag_68:\n        /* \"#utility.yul\":3966:4043   */\n      0x4e487b7100000000000000000000000000000000000000000000000000000000\n        /* \"#utility.yul\":3963:3964   */\n      0x00\n        /* \"#utility.yul\":3956:4044   */\n      mstore\n        /* \"#utility.yul\":4063:4067   */\n      0x12\n        /* \"#utility.yul\":4060:4061   */\n      0x04\n        /* \"#utility.yul\":4053:4068   */\n      mstore\n        /* \"#utility.yul\":4087:4091   */\n      0x24\n        /* \"#utility.yul\":4084:4085   */\n      0x00\n        /* \"#utility.yul\":4077:4092   */\n      revert\n        /* \"#utility.yul\":4104:4289   */\n    tag_55:\n        /* \"#utility.yul\":4144:4145   */\n      0x00\n        /* \"#utility.yul\":4161:4181   */\n      tag_125\n        /* \"#utility.yul\":4179:4180   */\n      dup3\n        /* \"#utility.yul\":4161:4181   */\n      tag_59\n      jump\t// in\n    tag_125:\n        /* \"#utility.yul\":4156:4181   */\n      swap2\n      pop\n        /* \"#utility.yul\":4195:4215   */\n      tag_126\n        /* \"#utility.yul\":4213:4214   */\n      dup4\n        /* \"#utility.yul\":4195:4215   */\n      tag_59\n      jump\t// in\n    tag_126:\n        /* \"#utility.yul\":4190:4215   */\n      swap3\n      pop\n        /* \"#utility.yul\":4234:4235   */\n      dup3\n        /* \"#utility.yul\":4224:4259   */\n      tag_127\n      jumpi\n        /* \"#utility.yul\":4239:4257   */\n      tag_128\n      tag_68\n      jump\t// in\n    tag_128:\n        /* \"#utility.yul\":4224:4259   */\n    tag_127:\n        /* \"#utility.yul\":4281:4282   */\n      dup3\n        /* \"#utility.yul\":4278:4279   */\n      dup3\n        /* \"#utility.yul\":4274:4283   */\n      div\n        /* \"#utility.yul\":4269:4283   */\n      swap1\n      pop\n        /* \"#utility.yul\":4104:4289   */\n      swap3\n      swap2\n      pop\n      pop\n      jump\t// out\n\n    auxdata: 0xa2646970667358221220ba6d422e9245bf908c06bc340ff7378b4daed67f478cdc7a4ca036df9e6135c664736f6c634300081e0033\n}\n",
				"bytecode": {
					"linkReferences": {},
					"object": "6080604052348015600e575f5ffd5b506106de8061001c5f395ff3fe608060405234801561000f575f5ffd5b5060043610610055575f3560e01c806345977d03146100595780634c07f0b3146100755780636554fc2614610091578063788c5917146100ad578063e2eb41ff146100df575b5f5ffd5b610073600480360381019061006e9190610445565b610111565b005b61008f600480360381019061008a9190610445565b6101ad565b005b6100ab60048036038101906100a69190610470565b610259565b005b6100c760048036038101906100c29190610508565b610306565b6040516100d693929190610542565b60405180910390f35b6100f960048036038101906100f49190610508565b61038c565b60405161010893929190610542565b60405180910390f35b5f5f5f3373ffffffffffffffffffffffffffffffffffffffff1673ffffffffffffffffffffffffffffffffffffffff1681526020019081526020015f2090505f61015f8383600201546103b1565b90505f6101708360010154836103d2565b905080836001015f82825461018591906105a4565b925050819055506001836002015f8282546101a091906105d7565b9250508190555050505050565b5f6101ff825f5f3373ffffffffffffffffffffffffffffffffffffffff1673ffffffffffffffffffffffffffffffffffffffff1681526020019081526020015f205f01546103ed90919063ffffffff16565b9050805f5f3373ffffffffffffffffffffffffffffffffffffffff1673ffffffffffffffffffffffffffffffffffffffff1681526020019081526020015f205f015f82825461024e91906105a4565b925050819055505050565b815f5f3373ffffffffffffffffffffffffffffffffffffffff1673ffffffffffffffffffffffffffffffffffffffff1681526020019081526020015f205f015f8282546102a691906105d7565b92505081905550805f5f3373ffffffffffffffffffffffffffffffffffffffff1673ffffffffffffffffffffffffffffffffffffffff1681526020019081526020015f206001015f8282546102fb91906105d7565b925050819055505050565b5f5f5f5f5f5f8673ffffffffffffffffffffffffffffffffffffffff1673ffffffffffffffffffffffffffffffffffffffff1681526020019081526020015f206040518060600160405290815f8201548152602001600182015481526020016002820154815250509050805f015181602001518260400151935093509350509193909250565b5f602052805f5260405f205f91509050805f0154908060010154908060020154905083565b5f6001826103bf91906105d7565b836103ca919061060a565b905092915050565b5f818311156103e3578190506103e7565b8290505b92915050565b5f606482846103fc919061060a565b6104069190610678565b905092915050565b5f5ffd5b5f819050919050565b61042481610412565b811461042e575f5ffd5b50565b5f8135905061043f8161041b565b92915050565b5f6020828403121561045a5761045961040e565b5b5f61046784828501610431565b91505092915050565b5f5f604083850312156104865761048561040e565b5b5f61049385828601610431565b92505060206104a485828601610431565b9150509250929050565b5f73ffffffffffffffffffffffffffffffffffffffff82169050919050565b5f6104d7826104ae565b9050919050565b6104e7816104cd565b81146104f1575f5ffd5b50565b5f81359050610502816104de565b92915050565b5f6020828403121561051d5761051c61040e565b5b5f61052a848285016104f4565b91505092915050565b61053c81610412565b82525050565b5f6060820190506105555f830186610533565b6105626020830185610533565b61056f6040830184610533565b949350505050565b7f4e487b71000000000000000000000000000000000000000000000000000000005f52601160045260245ffd5b5f6105ae82610412565b91506105b983610412565b92508282039050818111156105d1576105d0610577565b5b92915050565b5f6105e182610412565b91506105ec83610412565b925082820190508082111561060457610603610577565b5b92915050565b5f61061482610412565b915061061f83610412565b925082820261062d81610412565b9150828204841483151761064457610643610577565b5b5092915050565b7f4e487b71000000000000000000000000000000000000000000000000000000005f52601260045260245ffd5b5f61068282610412565b915061068d83610412565b92508261069d5761069c61064b565b5b82820490509291505056fea2646970667358221220ba6d422e9245bf908c06bc340ff7378b4daed67f478cdc7a4ca036df9e6135c664736f6c634300081e0033",
					"opcodes": "PUSH1 0x80 PUSH1 0x40 MSTORE CALLVALUE DUP1 ISZERO PUSH1 0xE JUMPI PUSH0 PUSH0 REVERT JUMPDEST POP PUSH2 0x6DE DUP1 PUSH2 0x1C PUSH0 CODECOPY PUSH0 RETURN INVALID PUSH1 0x80 PUSH1 0x40 MSTORE CALLVALUE DUP1 ISZERO PUSH2 0xF JUMPI PUSH0 PUSH0 REVERT JUMPDEST POP PUSH1 0x4 CALLDATASIZE LT PUSH2 0x55 JUMPI PUSH0 CALLDATALOAD PUSH1 0xE0 SHR DUP1 PUSH4 0x45977D03 EQ PUSH2 0x59 JUMPI DUP1 PUSH4 0x4C07F0B3 EQ PUSH2 0x75 JUMPI DUP1 PUSH4 0x6554FC26 EQ PUSH2 0x91 JUMPI DUP1 PUSH4 0x788C5917 EQ PUSH2 0xAD JUMPI DUP1 PUSH4 0xE2EB41FF EQ PUSH2 0xDF JUMPI JUMPDEST PUSH0 PUSH0 REVERT JUMPDEST PUSH2 0x73 PUSH1 0x4 DUP1 CALLDATASIZE SUB DUP2 ADD SWAP1 PUSH2 0x6E SWAP2 SWAP1 PUSH2 0x445 JUMP JUMPDEST PUSH2 0x111 JUMP JUMPDEST STOP JUMPDEST PUSH2 0x8F PUSH1 0x4 DUP1 CALLDATASIZE SUB DUP2 ADD SWAP1 PUSH2 0x8A SWAP2 SWAP1 PUSH2 0x445 JUMP JUMPDEST PUSH2 0x1AD JUMP JUMPDEST STOP JUMPDEST PUSH2 0xAB PUSH1 0x4 DUP1 CALLDATASIZE SUB DUP2 ADD SWAP1 PUSH2 0xA6 SWAP2 SWAP1 PUSH2 0x470 JUMP JUMPDEST PUSH2 0x259 JUMP JUMPDEST STOP JUMPDEST PUSH2 0xC7 PUSH1 0x4 DUP1 CALLDATASIZE SUB DUP2 ADD SWAP1 PUSH2 0xC2 SWAP2 SWAP1 PUSH2 0x508 JUMP JUMPDEST PUSH2 0x306 JUMP JUMPDEST PUSH1 0x40 MLOAD PUSH2 0xD6 SWAP4 SWAP3 SWAP2 SWAP1 PUSH2 0x542 JUMP JUMPDEST PUSH1 0x40 MLOAD DUP1 SWAP2 SUB SWAP1 RETURN JUMPDEST PUSH2 0xF9 PUSH1 0x4 DUP1 CALLDATASIZE SUB DUP2 ADD SWAP1 PUSH2 0xF4 SWAP2 SWAP1 PUSH2 0x508 JUMP JUMPDEST PUSH2 0x38C JUMP JUMPDEST PUSH1 0x40 MLOAD PUSH2 0x108 SWAP4 SWAP3 SWAP2 SWAP1 PUSH2 0x542 JUMP JUMPDEST PUSH1 0x40 MLOAD DUP1 SWAP2 SUB SWAP1 RETURN JUMPDEST PUSH0 PUSH0 PUSH0 CALLER PUSH20 0xFFFFFFFFFFFFFFFFFFFFFFFFFFFFFFFFFFFFFFFF AND PUSH20 0xFFFFFFFFFFFFFFFFFFFFFFFFFFFFFFFFFFFFFFFF AND DUP2 MSTORE PUSH1 0x20 ADD SWAP1 DUP2 MSTORE PUSH1 0x20 ADD PUSH0 KECCAK256 SWAP1 POP PUSH0 PUSH2 0x15F DUP4 DUP4 PUSH1 0x2 ADD SLOAD PUSH2 0x3B1 JUMP JUMPDEST SWAP1 POP PUSH0 PUSH2 0x170 DUP4 PUSH1 0x1 ADD SLOAD DUP4 PUSH2 0x3D2 JUMP JUMPDEST SWAP1 POP DUP1 DUP4 PUSH1 0x1 ADD PUSH0 DUP3 DUP3 SLOAD PUSH2 0x185 SWAP2 SWAP1 PUSH2 0x5A4 JUMP JUMPDEST SWAP3 POP POP DUP2 SWAP1 SSTORE POP PUSH1 0x1 DUP4 PUSH1 0x2 ADD PUSH0 DUP3 DUP3 SLOAD PUSH2 0x1A0 SWAP2 SWAP1 PUSH2 0x5D7 JUMP JUMPDEST SWAP3 POP POP DUP2 SWAP1 SSTORE POP POP POP POP POP JUMP JUMPDEST PUSH0 PUSH2 0x1FF DUP3 PUSH0 PUSH0 CALLER PUSH20 0xFFFFFFFFFFFFFFFFFFFFFFFFFFFFFFFFFFFFFFFF AND PUSH20 0xFFFFFFFFFFFFFFFFFFFFFFFFFFFFFFFFFFFFFFFF AND DUP2 MSTORE PUSH1 0x20 ADD SWAP1 DUP2 MSTORE PUSH1 0x20 ADD PUSH0 KECCAK256 PUSH0 ADD SLOAD PUSH2 0x3ED SWAP1 SWAP2 SWAP1 PUSH4 0xFFFFFFFF AND JUMP JUMPDEST SWAP1 POP DUP1 PUSH0 PUSH0 CALLER PUSH20 0xFFFFFFFFFFFFFFFFFFFFFFFFFFFFFFFFFFFFFFFF AND PUSH20 0xFFFFFFFFFFFFFFFFFFFFFFFFFFFFFFFFFFFFFFFF AND DUP2 MSTORE PUSH1 0x20 ADD SWAP1 DUP2 MSTORE PUSH1 0x20 ADD PUSH0 KECCAK256 PUSH0 ADD PUSH0 DUP3 DUP3 SLOAD PUSH2 0x24E SWAP2 SWAP1 PUSH2 0x5A4 JUMP JUMPDEST SWAP3 POP POP DUP2 SWAP1 SSTORE POP POP POP JUMP JUMPDEST DUP2 PUSH0 PUSH0 CALLER PUSH20 0xFFFFFFFFFFFFFFFFFFFFFFFFFFFFFFFFFFFFFFFF AND PUSH20 0xFFFFFFFFFFFFFFFFFFFFFFFFFFFFFFFFFFFFFFFF AND DUP2 MSTORE PUSH1 0x20 ADD SWAP1 DUP2 MSTORE PUSH1 0x20 ADD PUSH0 KECCAK256 PUSH0 ADD PUSH0 DUP3 DUP3 SLOAD PUSH2 0x2A6 SWAP2 SWAP1 PUSH2 0x5D7 JUMP JUMPDEST SWAP3 POP POP DUP2 SWAP1 SSTORE POP DUP1 PUSH0 PUSH0 CALLER PUSH20 0xFFFFFFFFFFFFFFFFFFFFFFFFFFFFFFFFFFFFFFFF AND PUSH20 0xFFFFFFFFFFFFFFFFFFFFFFFFFFFFFFFFFFFFFFFF AND DUP2 MSTORE PUSH1 0x20 ADD SWAP1 DUP2 MSTORE PUSH1 0x20 ADD PUSH0 KECCAK256 PUSH1 0x1 ADD PUSH0 DUP3 DUP3 SLOAD PUSH2 0x2FB SWAP2 SWAP1 PUSH2 0x5D7 JUMP JUMPDEST SWAP3 POP POP DUP2 SWAP1 SSTORE POP POP POP JUMP JUMPDEST PUSH0 PUSH0 PUSH0 PUSH0 PUSH0 PUSH0 DUP7 PUSH20 0xFFFFFFFFFFFFFFFFFFFFFFFFFFFFFFFFFFFFFFFF AND PUSH20 0xFFFFFFFFFFFFFFFFFFFFFFFFFFFFFFFFFFFFFFFF AND DUP2 MSTORE PUSH1 0x20 ADD SWAP1 DUP2 MSTORE PUSH1 0x20 ADD PUSH0 KECCAK256 PUSH1 0x40 MLOAD DUP1 PUSH1 0x60 ADD PUSH1 0x40 MSTORE SWAP1 DUP2 PUSH0 DUP3 ADD SLOAD DUP2 MSTORE PUSH1 0x20 ADD PUSH1 0x1 DUP3 ADD SLOAD DUP2 MSTORE PUSH1 0x20 ADD PUSH1 0x2 DUP3 ADD SLOAD DUP2 MSTORE POP POP SWAP1 POP DUP1 PUSH0 ADD MLOAD DUP2 PUSH1 0x20 ADD MLOAD DUP3 PUSH1 0x40 ADD MLOAD SWAP4 POP SWAP4 POP SWAP4 POP POP SWAP2 SWAP4 SWAP1 SWAP3 POP JUMP JUMPDEST PUSH0 PUSH1 0x20 MSTORE DUP1 PUSH0 MSTORE PUSH1 0x40 PUSH0 KECCAK256 PUSH0 SWAP2 POP SWAP1 POP DUP1 PUSH0 ADD SLOAD SWAP1 DUP1 PUSH1 0x1 ADD SLOAD SWAP1 DUP1 PUSH1 0x2 ADD SLOAD SWAP1 POP DUP4 JUMP JUMPDEST PUSH0 PUSH1 0x1 DUP3 PUSH2 0x3BF SWAP2 SWAP1 PUSH2 0x5D7 JUMP JUMPDEST DUP4 PUSH2 0x3CA SWAP2 SWAP1 PUSH2 0x60A JUMP JUMPDEST SWAP1 POP SWAP3 SWAP2 POP POP JUMP JUMPDEST PUSH0 DUP2 DUP4 GT ISZERO PUSH2 0x3E3 JUMPI DUP2 SWAP1 POP PUSH2 0x3E7 JUMP JUMPDEST DUP3 SWAP1 POP JUMPDEST SWAP3 SWAP2 POP POP JUMP JUMPDEST PUSH0 PUSH1 0x64 DUP3 DUP5 PUSH2 0x3FC SWAP2 SWAP1 PUSH2 0x60A JUMP JUMPDEST PUSH2 0x406 SWAP2 SWAP1 PUSH2 0x678 JUMP JUMPDEST SWAP1 POP SWAP3 SWAP2 POP POP JUMP JUMPDEST PUSH0 PUSH0 REVERT JUMPDEST PUSH0 DUP2 SWAP1 POP SWAP2 SWAP1 POP JUMP JUMPDEST PUSH2 0x424 DUP2 PUSH2 0x412 JUMP JUMPDEST DUP2 EQ PUSH2 0x42E JUMPI PUSH0 PUSH0 REVERT JUMPDEST POP JUMP JUMPDEST PUSH0 DUP2 CALLDATALOAD SWAP1 POP PUSH2 0x43F DUP2 PUSH2 0x41B JUMP JUMPDEST SWAP3 SWAP2 POP POP JUMP JUMPDEST PUSH0 PUSH1 0x20 DUP3 DUP5 SUB SLT ISZERO PUSH2 0x45A JUMPI PUSH2 0x459 PUSH2 0x40E JUMP JUMPDEST JUMPDEST PUSH0 PUSH2 0x467 DUP5 DUP3 DUP6 ADD PUSH2 0x431 JUMP JUMPDEST SWAP2 POP POP SWAP3 SWAP2 POP POP JUMP JUMPDEST PUSH0 PUSH0 PUSH1 0x40 DUP4 DUP6 SUB SLT ISZERO PUSH2 0x486 JUMPI PUSH2 0x485 PUSH2 0x40E JUMP JUMPDEST JUMPDEST PUSH0 PUSH2 0x493 DUP6 DUP3 DUP7 ADD PUSH2 0x431 JUMP JUMPDEST SWAP3 POP POP PUSH1 0x20 PUSH2 0x4A4 DUP6 DUP3 DUP7 ADD PUSH2 0x431 JUMP JUMPDEST SWAP2 POP POP SWAP3 POP SWAP3 SWAP1 POP JUMP JUMPDEST PUSH0 PUSH20 0xFFFFFFFFFFFFFFFFFFFFFFFFFFFFFFFFFFFFFFFF DUP3 AND SWAP1 POP SWAP2 SWAP1 POP JUMP JUMPDEST PUSH0 PUSH2 0x4D7 DUP3 PUSH2 0x4AE JUMP JUMPDEST SWAP1 POP SWAP2 SWAP1 POP JUMP JUMPDEST PUSH2 0x4E7 DUP2 PUSH2 0x4CD JUMP JUMPDEST DUP2 EQ PUSH2 0x4F1 JUMPI PUSH0 PUSH0 REVERT JUMPDEST POP JUMP JUMPDEST PUSH0 DUP2 CALLDATALOAD SWAP1 POP PUSH2 0x502 DUP2 PUSH2 0x4DE JUMP JUMPDEST SWAP3 SWAP2 POP POP JUMP JUMPDEST PUSH0 PUSH1 0x20 DUP3 DUP5 SUB SLT ISZERO PUSH2 0x51D JUMPI PUSH2 0x51C PUSH2 0x40E JUMP JUMPDEST JUMPDEST PUSH0 PUSH2 0x52A DUP5 DUP3 DUP6 ADD PUSH2 0x4F4 JUMP JUMPDEST SWAP2 POP POP SWAP3 SWAP2 POP POP JUMP JUMPDEST PUSH2 0x53C DUP2 PUSH2 0x412 JUMP JUMPDEST DUP3 MSTORE POP POP JUMP JUMPDEST PUSH0 PUSH1 0x60 DUP3 ADD SWAP1 POP PUSH2 0x555 PUSH0 DUP4 ADD DUP7 PUSH2 0x533 JUMP JUMPDEST PUSH2 0x562 PUSH1 0x20 DUP4 ADD DUP6 PUSH2 0x533 JUMP JUMPDEST PUSH2 0x56F PUSH1 0x40 DUP4 ADD DUP5 PUSH2 0x533 JUMP JUMPDEST SWAP5 SWAP4 POP POP POP POP JUMP JUMPDEST PUSH32 0x4E487B7100000000000000000000000000000000000000000000000000000000 PUSH0 MSTORE PUSH1 0x11 PUSH1 0x4 MSTORE PUSH1 0x24 PUSH0 REVERT JUMPDEST PUSH0 PUSH2 0x5AE DUP3 PUSH2 0x412 JUMP JUMPDEST SWAP2 POP PUSH2 0x5B9 DUP4 PUSH2 0x412 JUMP JUMPDEST SWAP3 POP DUP3 DUP3 SUB SWAP1 POP DUP2 DUP2 GT ISZERO PUSH2 0x5D1 JUMPI PUSH2 0x5D0 PUSH2 0x577 JUMP JUMPDEST JUMPDEST SWAP3 SWAP2 POP POP JUMP JUMPDEST PUSH0 PUSH2 0x5E1 DUP3 PUSH2 0x412 JUMP JUMPDEST SWAP2 POP PUSH2 0x5EC DUP4 PUSH2 0x412 JUMP JUMPDEST SWAP3 POP DUP3 DUP3 ADD SWAP1 POP DUP1 DUP3 GT ISZERO PUSH2 0x604 JUMPI PUSH2 0x603 PUSH2 0x577 JUMP JUMPDEST JUMPDEST SWAP3 SWAP2 POP POP JUMP JUMPDEST PUSH0 PUSH2 0x614 DUP3 PUSH2 0x412 JUMP JUMPDEST SWAP2 POP PUSH2 0x61F DUP4 PUSH2 0x412 JUMP JUMPDEST SWAP3 POP DUP3 DUP3 MUL PUSH2 0x62D DUP2 PUSH2 0x412 JUMP JUMPDEST SWAP2 POP DUP3 DUP3 DIV DUP5 EQ DUP4 ISZERO OR PUSH2 0x644 JUMPI PUSH2 0x643 PUSH2 0x577 JUMP JUMPDEST JUMPDEST POP SWAP3 SWAP2 POP POP JUMP JUMPDEST PUSH32 0x4E487B7100000000000000000000000000000000000000000000000000000000 PUSH0 MSTORE PUSH1 0x12 PUSH1 0x4 MSTORE PUSH1 0x24 PUSH0 REVERT JUMPDEST PUSH0 PUSH2 0x682 DUP3 PUSH2 0x412 JUMP JUMPDEST SWAP2 POP PUSH2 0x68D DUP4 PUSH2 0x412 JUMP JUMPDEST SWAP3 POP DUP3 PUSH2 0x69D JUMPI PUSH2 0x69C PUSH2 0x64B JUMP JUMPDEST JUMPDEST DUP3 DUP3 DIV SWAP1 POP SWAP3 SWAP2 POP POP JUMP INVALID LOG2 PUSH5 0x6970667358 0x22 SLT KECCAK256 0xBA PUSH14 0x422E9245BF908C06BC340FF7378B 0x4D 0xAE 0xD6 PUSH32 0x478CDC7A4CA036DF9E6135C664736F6C634300081E0033000000000000000000 "
				},
				"gasEstimates": {
					"creation": {
						"codeDepositCost": "351600",
						"executionCost": "384",
						"totalCost": "351984"
					},
					"external": {
						"addResources(uint256,uint256)": "infinite",
						"distributePlayerEnergy(uint256)": "infinite",
						"getPlayerResources(address)": "infinite",
						"players(address)": "infinite",
						"upgrade(uint256)": "infinite"
					}
				},
				"methodIdentifiers": {
					"addResources(uint256,uint256)": "6554fc26",
					"distributePlayerEnergy(uint256)": "4c07f0b3",
					"getPlayerResources(address)": "788c5917",
					"players(address)": "e2eb41ff",
					"upgrade(uint256)": "45977d03"
				}
			},
			"storageLayout": {
				"storage": [
					{
						"astId": 17,
						"contract": "contracts/ResourceManager.sol:ResourceManager",
						"label": "players",
						"offset": 0,
						"slot": "0",
						"type": "t_mapping(t_address,t_struct(PlayerResources)12_storage)"
					}
				],
				"types": {
					"t_address": {
						"encoding": "inplace",
						"label": "address",
						"numberOfBytes": "20"
					},
					"t_mapping(t_address,t_struct(PlayerResources)12_storage)": {
						"encoding": "mapping",
						"key": "t_address",
						"label": "mapping(address => struct ResourceManager.PlayerResources)",
						"numberOfBytes": "32",
						"value": "t_struct(PlayerResources)12_storage"
					},
					"t_struct(PlayerResources)12_storage": {
						"encoding": "inplace",
						"label": "struct ResourceManager.PlayerResources",
						"members": [
							{
								"astId": 7,
								"contract": "contracts/ResourceManager.sol:ResourceManager",
								"label": "energy",
								"offset": 0,
								"slot": "0",
								"type": "t_uint256"
							},
							{
								"astId": 9,
								"contract": "contracts/ResourceManager.sol:ResourceManager",
								"label": "gold",
								"offset": 0,
								"slot": "1",
								"type": "t_uint256"
							},
							{
								"astId": 11,
								"contract": "contracts/ResourceManager.sol:ResourceManager",
								"label": "level",
								"offset": 0,
								"slot": "2",
								"type": "t_uint256"
							}
						],
						"numberOfBytes": "96"
					},
					"t_uint256": {
						"encoding": "inplace",
						"label": "uint256",
						"numberOfBytes": "32"
					}
				}
			},
			"userdoc": {
				"kind": "user",
				"methods": {},
				"version": 1
			}
		}
	}
}