{
	"contracts/Knight.sol": {
		"Knight": {
			"abi": [
				{
					"inputs": [],
					"name": "attack",
					"outputs": [
						{
							"internalType": "uint256",
							"name": "",
							"type": "uint256"
						}
					],
					"stateMutability": "view",
					"type": "function"
				},
				{
					"inputs": [
						{
							"internalType": "address",
							"name": "user",
							"type": "address"
						}
					],
					"name": "isRegistered",
					"outputs": [
						{
							"internalType": "bool",
							"name": "",
							"type": "bool"
						}
					],
					"stateMutability": "view",
					"type": "function"
				},
				{
					"inputs": [],
					"name": "registerWarrior",
					"outputs": [],
					"stateMutability": "nonpayable",
					"type": "function"
				},
				{
					"inputs": [
						{
							"internalType": "address",
							"name": "",
							"type": "address"
						}
					],
					"name": "warriors",
					"outputs": [
						{
							"internalType": "bool",
							"name": "registered",
							"type": "bool"
						},
						{
							"internalType": "uint256",
							"name": "level",
							"type": "uint256"
						},
						{
							"internalType": "uint256",
							"name": "power",
							"type": "uint256"
						}
					],
					"stateMutability": "view",
					"type": "function"
				}
			],
			"devdoc": {
				"kind": "dev",
				"methods": {},
				"version": 1
			},
			"evm": {
				"assembly": "    /* \"contracts/Knight.sol\":87:387  contract Knight is WarriorGuild {... */\n  mstore(0x40, 0x80)\n  callvalue\n  dup1\n  iszero\n  tag_1\n  jumpi\n  revert(0x00, 0x00)\ntag_1:\n  pop\n  dataSize(sub_0)\n  dup1\n  dataOffset(sub_0)\n  0x00\n  codecopy\n  0x00\n  return\nstop\n\nsub_0: assembly {\n        /* \"contracts/Knight.sol\":87:387  contract Knight is WarriorGuild {... */\n      mstore(0x40, 0x80)\n      callvalue\n      dup1\n      iszero\n      tag_1\n      jumpi\n      revert(0x00, 0x00)\n    tag_1:\n      pop\n      jumpi(tag_2, lt(calldatasize, 0x04))\n      shr(0xe0, calldataload(0x00))\n      dup1\n      0x3d40327c\n      eq\n      tag_3\n      jumpi\n      dup1\n      0x7b4a3fe6\n      eq\n      tag_4\n      jumpi\n      dup1\n      0x9e5faafc\n      eq\n      tag_5\n      jumpi\n      dup1\n      0xc3c5a547\n      eq\n      tag_6\n      jumpi\n    tag_2:\n      revert(0x00, 0x00)\n        /* \"contracts/WarriorGuild.sol\":185:228  mapping(address => Warrior) public warriors */\n    tag_3:\n      tag_7\n      0x04\n      dup1\n      calldatasize\n      sub\n      dup2\n      add\n      swap1\n      tag_8\n      swap2\n      swap1\n      tag_9\n      jump\t// in\n    tag_8:\n      tag_10\n      jump\t// in\n    tag_7:\n      mload(0x40)\n      tag_11\n      swap4\n      swap3\n      swap2\n      swap1\n      tag_12\n      jump\t// in\n    tag_11:\n      mload(0x40)\n      dup1\n      swap2\n      sub\n      swap1\n      return\n        /* \"contracts/WarriorGuild.sol\":235:479  function registerWarrior() external {... */\n    tag_4:\n      tag_13\n      tag_14\n      jump\t// in\n    tag_13:\n      stop\n        /* \"contracts/Knight.sol\":126:385  function attack() public view override returns (uint256) {... */\n    tag_5:\n      tag_15\n      tag_16\n      jump\t// in\n    tag_15:\n      mload(0x40)\n      tag_17\n      swap2\n      swap1\n      tag_18\n      jump\t// in\n    tag_17:\n      mload(0x40)\n      dup1\n      swap2\n      sub\n      swap1\n      return\n        /* \"contracts/WarriorGuild.sol\":485:597  function isRegistered(address user) public view returns (bool) {... */\n    tag_6:\n      tag_19\n      0x04\n      dup1\n      calldatasize\n      sub\n      dup2\n      add\n      swap1\n      tag_20\n      swap2\n      swap1\n      tag_9\n      jump\t// in\n    tag_20:\n      tag_21\n      jump\t// in\n    tag_19:\n      mload(0x40)\n      tag_22\n      swap2\n      swap1\n      tag_23\n      jump\t// in\n    tag_22:\n      mload(0x40)\n      dup1\n      swap2\n      sub\n      swap1\n      return\n        /* \"contracts/WarriorGuild.sol\":185:228  mapping(address => Warrior) public warriors */\n    tag_10:\n      mstore(0x20, 0x00)\n      dup1\n      0x00\n      mstore\n      keccak256(0x00, 0x40)\n      0x00\n      swap2\n      pop\n      swap1\n      pop\n      dup1\n      0x00\n      add\n      0x00\n      swap1\n      sload\n      swap1\n      0x0100\n      exp\n      swap1\n      div\n      0xff\n      and\n      swap1\n      dup1\n      0x01\n      add\n      sload\n      swap1\n      dup1\n      0x02\n      add\n      sload\n      swap1\n      pop\n      dup4\n      jump\t// out\n        /* \"contracts/WarriorGuild.sol\":235:479  function registerWarrior() external {... */\n    tag_14:\n        /* \"contracts/WarriorGuild.sol\":290:298  warriors */\n      0x00\n        /* \"contracts/WarriorGuild.sol\":290:310  warriors[msg.sender] */\n      0x00\n        /* \"contracts/WarriorGuild.sol\":299:309  msg.sender */\n      caller\n        /* \"contracts/WarriorGuild.sol\":290:310  warriors[msg.sender] */\n      0xffffffffffffffffffffffffffffffffffffffff\n      and\n      0xffffffffffffffffffffffffffffffffffffffff\n      and\n      dup2\n      mstore\n      0x20\n      add\n      swap1\n      dup2\n      mstore\n      0x20\n      add\n      0x00\n      keccak256\n        /* \"contracts/WarriorGuild.sol\":290:321  warriors[msg.sender].registered */\n      0x00\n      add\n      0x00\n      swap1\n      sload\n      swap1\n      0x0100\n      exp\n      swap1\n      div\n      0xff\n      and\n        /* \"contracts/WarriorGuild.sol\":289:321  !warriors[msg.sender].registered */\n      iszero\n        /* \"contracts/WarriorGuild.sol\":281:344  require(!warriors[msg.sender].registered, \"Already registered\") */\n      tag_25\n      jumpi\n      mload(0x40)\n      0x08c379a000000000000000000000000000000000000000000000000000000000\n      dup2\n      mstore\n      0x04\n      add\n      tag_26\n      swap1\n      tag_27\n      jump\t// in\n    tag_26:\n      mload(0x40)\n      dup1\n      swap2\n      sub\n      swap1\n      revert\n    tag_25:\n        /* \"contracts/WarriorGuild.sol\":378:472  Warrior({... */\n      mload(0x40)\n      dup1\n      0x60\n      add\n      0x40\n      mstore\n      dup1\n        /* \"contracts/WarriorGuild.sol\":412:416  true */\n      0x01\n        /* \"contracts/WarriorGuild.sol\":378:472  Warrior({... */\n      iszero\n      iszero\n      dup2\n      mstore\n      0x20\n      add\n        /* \"contracts/WarriorGuild.sol\":437:438  1 */\n      0x01\n        /* \"contracts/WarriorGuild.sol\":378:472  Warrior({... */\n      dup2\n      mstore\n      0x20\n      add\n        /* \"contracts/WarriorGuild.sol\":459:461  10 */\n      0x0a\n        /* \"contracts/WarriorGuild.sol\":378:472  Warrior({... */\n      dup2\n      mstore\n      pop\n        /* \"contracts/WarriorGuild.sol\":355:363  warriors */\n      0x00\n        /* \"contracts/WarriorGuild.sol\":355:375  warriors[msg.sender] */\n      0x00\n        /* \"contracts/WarriorGuild.sol\":364:374  msg.sender */\n      caller\n        /* \"contracts/WarriorGuild.sol\":355:375  warriors[msg.sender] */\n      0xffffffffffffffffffffffffffffffffffffffff\n      and\n      0xffffffffffffffffffffffffffffffffffffffff\n      and\n      dup2\n      mstore\n      0x20\n      add\n      swap1\n      dup2\n      mstore\n      0x20\n      add\n      0x00\n      keccak256\n        /* \"contracts/WarriorGuild.sol\":355:472  warriors[msg.sender] = Warrior({... */\n      0x00\n      dup3\n      add\n      mload\n      dup2\n      0x00\n      add\n      exp(0x0100, 0x00)\n      dup2\n      sload\n      dup2\n      0xff\n      mul\n      not\n      and\n      swap1\n      dup4\n      iszero\n      iszero\n      mul\n      or\n      swap1\n      sstore\n      pop\n      0x20\n      dup3\n      add\n      mload\n      dup2\n      0x01\n      add\n      sstore\n      0x40\n      dup3\n      add\n      mload\n      dup2\n      0x02\n      add\n      sstore\n      swap1\n      pop\n      pop\n        /* \"contracts/WarriorGuild.sol\":235:479  function registerWarrior() external {... */\n      jump\t// out\n        /* \"contracts/Knight.sol\":126:385  function attack() public view override returns (uint256) {... */\n    tag_16:\n        /* \"contracts/Knight.sol\":174:181  uint256 */\n      0x00\n        /* \"contracts/Knight.sol\":201:225  isRegistered(msg.sender) */\n      tag_29\n        /* \"contracts/Knight.sol\":214:224  msg.sender */\n      caller\n        /* \"contracts/Knight.sol\":201:213  isRegistered */\n      tag_21\n        /* \"contracts/Knight.sol\":201:225  isRegistered(msg.sender) */\n      jump\t// in\n    tag_29:\n        /* \"contracts/Knight.sol\":193:243  require(isRegistered(msg.sender), \"Not a warrior\") */\n      tag_30\n      jumpi\n      mload(0x40)\n      0x08c379a000000000000000000000000000000000000000000000000000000000\n      dup2\n      mstore\n      0x04\n      add\n      tag_31\n      swap1\n      tag_32\n      jump\t// in\n    tag_31:\n      mload(0x40)\n      dup1\n      swap2\n      sub\n      swap1\n      revert\n    tag_30:\n        /* \"contracts/Knight.sol\":254:268  uint256 damage */\n      0x00\n        /* \"contracts/Knight.sol\":353:354  5 */\n      0x05\n        /* \"contracts/Knight.sol\":324:332  warriors */\n      0x00\n        /* \"contracts/Knight.sol\":324:344  warriors[msg.sender] */\n      0x00\n        /* \"contracts/Knight.sol\":333:343  msg.sender */\n      caller\n        /* \"contracts/Knight.sol\":324:344  warriors[msg.sender] */\n      0xffffffffffffffffffffffffffffffffffffffff\n      and\n      0xffffffffffffffffffffffffffffffffffffffff\n      and\n      dup2\n      mstore\n      0x20\n      add\n      swap1\n      dup2\n      mstore\n      0x20\n      add\n      0x00\n      keccak256\n        /* \"contracts/Knight.sol\":324:350  warriors[msg.sender].level */\n      0x01\n      add\n      sload\n        /* \"contracts/Knight.sol\":324:354  warriors[msg.sender].level * 5 */\n      tag_33\n      swap2\n      swap1\n      tag_34\n      jump\t// in\n    tag_33:\n        /* \"contracts/Knight.sol\":283:291  warriors */\n      0x00\n        /* \"contracts/Knight.sol\":283:303  warriors[msg.sender] */\n      0x00\n        /* \"contracts/Knight.sol\":292:302  msg.sender */\n      caller\n        /* \"contracts/Knight.sol\":283:303  warriors[msg.sender] */\n      0xffffffffffffffffffffffffffffffffffffffff\n      and\n      0xffffffffffffffffffffffffffffffffffffffff\n      and\n      dup2\n      mstore\n      0x20\n      add\n      swap1\n      dup2\n      mstore\n      0x20\n      add\n      0x00\n      keccak256\n        /* \"contracts/Knight.sol\":283:309  warriors[msg.sender].power */\n      0x02\n      add\n      sload\n        /* \"contracts/Knight.sol\":283:354  warriors[msg.sender].power +... */\n      tag_35\n      swap2\n      swap1\n      tag_36\n      jump\t// in\n    tag_35:\n        /* \"contracts/Knight.sol\":254:354  uint256 damage =... */\n      swap1\n      pop\n        /* \"contracts/Knight.sol\":372:378  damage */\n      dup1\n        /* \"contracts/Knight.sol\":365:378  return damage */\n      swap2\n      pop\n      pop\n        /* \"contracts/Knight.sol\":126:385  function attack() public view override returns (uint256) {... */\n      swap1\n      jump\t// out\n        /* \"contracts/WarriorGuild.sol\":485:597  function isRegistered(address user) public view returns (bool) {... */\n    tag_21:\n        /* \"contracts/WarriorGuild.sol\":542:546  bool */\n      0x00\n        /* \"contracts/WarriorGuild.sol\":565:573  warriors */\n      0x00\n        /* \"contracts/WarriorGuild.sol\":565:579  warriors[user] */\n      0x00\n        /* \"contracts/WarriorGuild.sol\":574:578  user */\n      dup4\n        /* \"contracts/WarriorGuild.sol\":565:579  warriors[user] */\n      0xffffffffffffffffffffffffffffffffffffffff\n      and\n      0xffffffffffffffffffffffffffffffffffffffff\n      and\n      dup2\n      mstore\n      0x20\n      add\n      swap1\n      dup2\n      mstore\n      0x20\n      add\n      0x00\n      keccak256\n        /* \"contracts/WarriorGuild.sol\":565:590  warriors[user].registered */\n      0x00\n      add\n      0x00\n      swap1\n      sload\n      swap1\n      0x0100\n      exp\n      swap1\n      div\n      0xff\n      and\n        /* \"contracts/WarriorGuild.sol\":558:590  return warriors[user].registered */\n      swap1\n      pop\n        /* \"contracts/WarriorGuild.sol\":485:597  function isRegistered(address user) public view returns (bool) {... */\n      swap2\n      swap1\n      pop\n      jump\t// out\n        /* \"#utility.yul\":88:205   */\n    tag_39:\n        /* \"#utility.yul\":197:198   */\n      0x00\n        /* \"#utility.yul\":194:195   */\n      0x00\n        /* \"#utility.yul\":187:199   */\n      revert\n        /* \"#utility.yul\":334:460   */\n    tag_41:\n        /* \"#utility.yul\":371:378   */\n      0x00\n        /* \"#utility.yul\":411:453   */\n      0xffffffffffffffffffffffffffffffffffffffff\n        /* \"#utility.yul\":404:409   */\n      dup3\n        /* \"#utility.yul\":400:454   */\n      and\n        /* \"#utility.yul\":389:454   */\n      swap1\n      pop\n        /* \"#utility.yul\":334:460   */\n      swap2\n      swap1\n      pop\n      jump\t// out\n        /* \"#utility.yul\":466:562   */\n    tag_42:\n        /* \"#utility.yul\":503:510   */\n      0x00\n        /* \"#utility.yul\":532:556   */\n      tag_61\n        /* \"#utility.yul\":550:555   */\n      dup3\n        /* \"#utility.yul\":532:556   */\n      tag_41\n      jump\t// in\n    tag_61:\n        /* \"#utility.yul\":521:556   */\n      swap1\n      pop\n        /* \"#utility.yul\":466:562   */\n      swap2\n      swap1\n      pop\n      jump\t// out\n        /* \"#utility.yul\":568:690   */\n    tag_43:\n        /* \"#utility.yul\":641:665   */\n      tag_63\n        /* \"#utility.yul\":659:664   */\n      dup2\n        /* \"#utility.yul\":641:665   */\n      tag_42\n      jump\t// in\n    tag_63:\n        /* \"#utility.yul\":634:639   */\n      dup2\n        /* \"#utility.yul\":631:666   */\n      eq\n        /* \"#utility.yul\":621:684   */\n      tag_64\n      jumpi\n        /* \"#utility.yul\":680:681   */\n      0x00\n        /* \"#utility.yul\":677:678   */\n      0x00\n        /* \"#utility.yul\":670:682   */\n      revert\n        /* \"#utility.yul\":621:684   */\n    tag_64:\n        /* \"#utility.yul\":568:690   */\n      pop\n      jump\t// out\n        /* \"#utility.yul\":696:835   */\n    tag_44:\n        /* \"#utility.yul\":742:747   */\n      0x00\n        /* \"#utility.yul\":780:786   */\n      dup2\n        /* \"#utility.yul\":767:787   */\n      calldataload\n        /* \"#utility.yul\":758:787   */\n      swap1\n      pop\n        /* \"#utility.yul\":796:829   */\n      tag_66\n        /* \"#utility.yul\":823:828   */\n      dup2\n        /* \"#utility.yul\":796:829   */\n      tag_43\n      jump\t// in\n    tag_66:\n        /* \"#utility.yul\":696:835   */\n      swap3\n      swap2\n      pop\n      pop\n      jump\t// out\n        /* \"#utility.yul\":841:1170   */\n    tag_9:\n        /* \"#utility.yul\":900:906   */\n      0x00\n        /* \"#utility.yul\":949:951   */\n      0x20\n        /* \"#utility.yul\":937:946   */\n      dup3\n        /* \"#utility.yul\":928:935   */\n      dup5\n        /* \"#utility.yul\":924:947   */\n      sub\n        /* \"#utility.yul\":920:952   */\n      slt\n        /* \"#utility.yul\":917:1036   */\n      iszero\n      tag_68\n      jumpi\n        /* \"#utility.yul\":955:1034   */\n      tag_69\n      tag_39\n      jump\t// in\n    tag_69:\n        /* \"#utility.yul\":917:1036   */\n    tag_68:\n        /* \"#utility.yul\":1075:1076   */\n      0x00\n        /* \"#utility.yul\":1100:1153   */\n      tag_70\n        /* \"#utility.yul\":1145:1152   */\n      dup5\n        /* \"#utility.yul\":1136:1142   */\n      dup3\n        /* \"#utility.yul\":1125:1134   */\n      dup6\n        /* \"#utility.yul\":1121:1143   */\n      add\n        /* \"#utility.yul\":1100:1153   */\n      tag_44\n      jump\t// in\n    tag_70:\n        /* \"#utility.yul\":1090:1153   */\n      swap2\n      pop\n        /* \"#utility.yul\":1046:1163   */\n      pop\n        /* \"#utility.yul\":841:1170   */\n      swap3\n      swap2\n      pop\n      pop\n      jump\t// out\n        /* \"#utility.yul\":1176:1266   */\n    tag_45:\n        /* \"#utility.yul\":1210:1217   */\n      0x00\n        /* \"#utility.yul\":1253:1258   */\n      dup2\n        /* \"#utility.yul\":1246:1259   */\n      iszero\n        /* \"#utility.yul\":1239:1260   */\n      iszero\n        /* \"#utility.yul\":1228:1260   */\n      swap1\n      pop\n        /* \"#utility.yul\":1176:1266   */\n      swap2\n      swap1\n      pop\n      jump\t// out\n        /* \"#utility.yul\":1272:1381   */\n    tag_46:\n        /* \"#utility.yul\":1353:1374   */\n      tag_73\n        /* \"#utility.yul\":1368:1373   */\n      dup2\n        /* \"#utility.yul\":1353:1374   */\n      tag_45\n      jump\t// in\n    tag_73:\n        /* \"#utility.yul\":1348:1351   */\n      dup3\n        /* \"#utility.yul\":1341:1375   */\n      mstore\n        /* \"#utility.yul\":1272:1381   */\n      pop\n      pop\n      jump\t// out\n        /* \"#utility.yul\":1387:1464   */\n    tag_47:\n        /* \"#utility.yul\":1424:1431   */\n      0x00\n        /* \"#utility.yul\":1453:1458   */\n      dup2\n        /* \"#utility.yul\":1442:1458   */\n      swap1\n      pop\n        /* \"#utility.yul\":1387:1464   */\n      swap2\n      swap1\n      pop\n      jump\t// out\n        /* \"#utility.yul\":1470:1588   */\n    tag_48:\n        /* \"#utility.yul\":1557:1581   */\n      tag_76\n        /* \"#utility.yul\":1575:1580   */\n      dup2\n        /* \"#utility.yul\":1557:1581   */\n      tag_47\n      jump\t// in\n    tag_76:\n        /* \"#utility.yul\":1552:1555   */\n      dup3\n        /* \"#utility.yul\":1545:1582   */\n      mstore\n        /* \"#utility.yul\":1470:1588   */\n      pop\n      pop\n      jump\t// out\n        /* \"#utility.yul\":1594:2024   */\n    tag_12:\n        /* \"#utility.yul\":1737:1741   */\n      0x00\n        /* \"#utility.yul\":1775:1777   */\n      0x60\n        /* \"#utility.yul\":1764:1773   */\n      dup3\n        /* \"#utility.yul\":1760:1778   */\n      add\n        /* \"#utility.yul\":1752:1778   */\n      swap1\n      pop\n        /* \"#utility.yul\":1788:1853   */\n      tag_78\n        /* \"#utility.yul\":1850:1851   */\n      0x00\n        /* \"#utility.yul\":1839:1848   */\n      dup4\n        /* \"#utility.yul\":1835:1852   */\n      add\n        /* \"#utility.yul\":1826:1832   */\n      dup7\n        /* \"#utility.yul\":1788:1853   */\n      tag_46\n      jump\t// in\n    tag_78:\n        /* \"#utility.yul\":1863:1935   */\n      tag_79\n        /* \"#utility.yul\":1931:1933   */\n      0x20\n        /* \"#utility.yul\":1920:1929   */\n      dup4\n        /* \"#utility.yul\":1916:1934   */\n      add\n        /* \"#utility.yul\":1907:1913   */\n      dup6\n        /* \"#utility.yul\":1863:1935   */\n      tag_48\n      jump\t// in\n    tag_79:\n        /* \"#utility.yul\":1945:2017   */\n      tag_80\n        /* \"#utility.yul\":2013:2015   */\n      0x40\n        /* \"#utility.yul\":2002:2011   */\n      dup4\n        /* \"#utility.yul\":1998:2016   */\n      add\n        /* \"#utility.yul\":1989:1995   */\n      dup5\n        /* \"#utility.yul\":1945:2017   */\n      tag_48\n      jump\t// in\n    tag_80:\n        /* \"#utility.yul\":1594:2024   */\n      swap5\n      swap4\n      pop\n      pop\n      pop\n      pop\n      jump\t// out\n        /* \"#utility.yul\":2030:2252   */\n    tag_18:\n        /* \"#utility.yul\":2123:2127   */\n      0x00\n        /* \"#utility.yul\":2161:2163   */\n      0x20\n        /* \"#utility.yul\":2150:2159   */\n      dup3\n        /* \"#utility.yul\":2146:2164   */\n      add\n        /* \"#utility.yul\":2138:2164   */\n      swap1\n      pop\n        /* \"#utility.yul\":2174:2245   */\n      tag_82\n        /* \"#utility.yul\":2242:2243   */\n      0x00\n        /* \"#utility.yul\":2231:2240   */\n      dup4\n        /* \"#utility.yul\":2227:2244   */\n      add\n        /* \"#utility.yul\":2218:2224   */\n      dup5\n        /* \"#utility.yul\":2174:2245   */\n      tag_48\n      jump\t// in\n    tag_82:\n        /* \"#utility.yul\":2030:2252   */\n      swap3\n      swap2\n      pop\n      pop\n      jump\t// out\n        /* \"#utility.yul\":2258:2468   */\n    tag_23:\n        /* \"#utility.yul\":2345:2349   */\n      0x00\n        /* \"#utility.yul\":2383:2385   */\n      0x20\n        /* \"#utility.yul\":2372:2381   */\n      dup3\n        /* \"#utility.yul\":2368:2386   */\n      add\n        /* \"#utility.yul\":2360:2386   */\n      swap1\n      pop\n        /* \"#utility.yul\":2396:2461   */\n      tag_84\n        /* \"#utility.yul\":2458:2459   */\n      0x00\n        /* \"#utility.yul\":2447:2456   */\n      dup4\n        /* \"#utility.yul\":2443:2460   */\n      add\n        /* \"#utility.yul\":2434:2440   */\n      dup5\n        /* \"#utility.yul\":2396:2461   */\n      tag_46\n      jump\t// in\n    tag_84:\n        /* \"#utility.yul\":2258:2468   */\n      swap3\n      swap2\n      pop\n      pop\n      jump\t// out\n        /* \"#utility.yul\":2474:2643   */\n    tag_49:\n        /* \"#utility.yul\":2558:2569   */\n      0x00\n        /* \"#utility.yul\":2592:2598   */\n      dup3\n        /* \"#utility.yul\":2587:2590   */\n      dup3\n        /* \"#utility.yul\":2580:2599   */\n      mstore\n        /* \"#utility.yul\":2632:2636   */\n      0x20\n        /* \"#utility.yul\":2627:2630   */\n      dup3\n        /* \"#utility.yul\":2623:2637   */\n      add\n        /* \"#utility.yul\":2608:2637   */\n      swap1\n      pop\n        /* \"#utility.yul\":2474:2643   */\n      swap3\n      swap2\n      pop\n      pop\n      jump\t// out\n        /* \"#utility.yul\":2649:2817   */\n    tag_50:\n        /* \"#utility.yul\":2789:2809   */\n      0x416c726561647920726567697374657265640000000000000000000000000000\n        /* \"#utility.yul\":2785:2786   */\n      0x00\n        /* \"#utility.yul\":2777:2783   */\n      dup3\n        /* \"#utility.yul\":2773:2787   */\n      add\n        /* \"#utility.yul\":2766:2810   */\n      mstore\n        /* \"#utility.yul\":2649:2817   */\n      pop\n      jump\t// out\n        /* \"#utility.yul\":2823:3189   */\n    tag_51:\n        /* \"#utility.yul\":2965:2968   */\n      0x00\n        /* \"#utility.yul\":2986:3053   */\n      tag_88\n        /* \"#utility.yul\":3050:3052   */\n      0x12\n        /* \"#utility.yul\":3045:3048   */\n      dup4\n        /* \"#utility.yul\":2986:3053   */\n      tag_49\n      jump\t// in\n    tag_88:\n        /* \"#utility.yul\":2979:3053   */\n      swap2\n      pop\n        /* \"#utility.yul\":3062:3155   */\n      tag_89\n        /* \"#utility.yul\":3151:3154   */\n      dup3\n        /* \"#utility.yul\":3062:3155   */\n      tag_50\n      jump\t// in\n    tag_89:\n        /* \"#utility.yul\":3180:3182   */\n      0x20\n        /* \"#utility.yul\":3175:3178   */\n      dup3\n        /* \"#utility.yul\":3171:3183   */\n      add\n        /* \"#utility.yul\":3164:3183   */\n      swap1\n      pop\n        /* \"#utility.yul\":2823:3189   */\n      swap2\n      swap1\n      pop\n      jump\t// out\n        /* \"#utility.yul\":3195:3614   */\n    tag_27:\n        /* \"#utility.yul\":3361:3365   */\n      0x00\n        /* \"#utility.yul\":3399:3401   */\n      0x20\n        /* \"#utility.yul\":3388:3397   */\n      dup3\n        /* \"#utility.yul\":3384:3402   */\n      add\n        /* \"#utility.yul\":3376:3402   */\n      swap1\n      pop\n        /* \"#utility.yul\":3448:3457   */\n      dup2\n        /* \"#utility.yul\":3442:3446   */\n      dup2\n        /* \"#utility.yul\":3438:3458   */\n      sub\n        /* \"#utility.yul\":3434:3435   */\n      0x00\n        /* \"#utility.yul\":3423:3432   */\n      dup4\n        /* \"#utility.yul\":3419:3436   */\n      add\n        /* \"#utility.yul\":3412:3459   */\n      mstore\n        /* \"#utility.yul\":3476:3607   */\n      tag_91\n        /* \"#utility.yul\":3602:3606   */\n      dup2\n        /* \"#utility.yul\":3476:3607   */\n      tag_51\n      jump\t// in\n    tag_91:\n        /* \"#utility.yul\":3468:3607   */\n      swap1\n      pop\n        /* \"#utility.yul\":3195:3614   */\n      swap2\n      swap1\n      pop\n      jump\t// out\n        /* \"#utility.yul\":3620:3783   */\n    tag_52:\n        /* \"#utility.yul\":3760:3775   */\n      0x4e6f7420612077617272696f7200000000000000000000000000000000000000\n        /* \"#utility.yul\":3756:3757   */\n      0x00\n        /* \"#utility.yul\":3748:3754   */\n      dup3\n        /* \"#utility.yul\":3744:3758   */\n      add\n        /* \"#utility.yul\":3737:3776   */\n      mstore\n        /* \"#utility.yul\":3620:3783   */\n      pop\n      jump\t// out\n        /* \"#utility.yul\":3789:4155   */\n    tag_53:\n        /* \"#utility.yul\":3931:3934   */\n      0x00\n        /* \"#utility.yul\":3952:4019   */\n      tag_94\n        /* \"#utility.yul\":4016:4018   */\n      0x0d\n        /* \"#utility.yul\":4011:4014   */\n      dup4\n        /* \"#utility.yul\":3952:4019   */\n      tag_49\n      jump\t// in\n    tag_94:\n        /* \"#utility.yul\":3945:4019   */\n      swap2\n      pop\n        /* \"#utility.yul\":4028:4121   */\n      tag_95\n        /* \"#utility.yul\":4117:4120   */\n      dup3\n        /* \"#utility.yul\":4028:4121   */\n      tag_52\n      jump\t// in\n    tag_95:\n        /* \"#utility.yul\":4146:4148   */\n      0x20\n        /* \"#utility.yul\":4141:4144   */\n      dup3\n        /* \"#utility.yul\":4137:4149   */\n      add\n        /* \"#utility.yul\":4130:4149   */\n      swap1\n      pop\n        /* \"#utility.yul\":3789:4155   */\n      swap2\n      swap1\n      pop\n      jump\t// out\n        /* \"#utility.yul\":4161:4580   */\n    tag_32:\n        /* \"#utility.yul\":4327:4331   */\n      0x00\n        /* \"#utility.yul\":4365:4367   */\n      0x20\n        /* \"#utility.yul\":4354:4363   */\n      dup3\n        /* \"#utility.yul\":4350:4368   */\n      add\n        /* \"#utility.yul\":4342:4368   */\n      swap1\n      pop\n        /* \"#utility.yul\":4414:4423   */\n      dup2\n        /* \"#utility.yul\":4408:4412   */\n      dup2\n        /* \"#utility.yul\":4404:4424   */\n      sub\n        /* \"#utility.yul\":4400:4401   */\n      0x00\n        /* \"#utility.yul\":4389:4398   */\n      dup4\n        /* \"#utility.yul\":4385:4402   */\n      add\n        /* \"#utility.yul\":4378:4425   */\n      mstore\n        /* \"#utility.yul\":4442:4573   */\n      tag_97\n        /* \"#utility.yul\":4568:4572   */\n      dup2\n        /* \"#utility.yul\":4442:4573   */\n      tag_53\n      jump\t// in\n    tag_97:\n        /* \"#utility.yul\":4434:4573   */\n      swap1\n      pop\n        /* \"#utility.yul\":4161:4580   */\n      swap2\n      swap1\n      pop\n      jump\t// out\n        /* \"#utility.yul\":4586:4766   */\n    tag_54:\n        /* \"#utility.yul\":4634:4711   */\n      0x4e487b7100000000000000000000000000000000000000000000000000000000\n        /* \"#utility.yul\":4631:4632   */\n      0x00\n        /* \"#utility.yul\":4624:4712   */\n      mstore\n        /* \"#utility.yul\":4731:4735   */\n      0x11\n        /* \"#utility.yul\":4728:4729   */\n      0x04\n        /* \"#utility.yul\":4721:4736   */\n      mstore\n        /* \"#utility.yul\":4755:4759   */\n      0x24\n        /* \"#utility.yul\":4752:4753   */\n      0x00\n        /* \"#utility.yul\":4745:4760   */\n      revert\n        /* \"#utility.yul\":4772:5182   */\n    tag_34:\n        /* \"#utility.yul\":4812:4819   */\n      0x00\n        /* \"#utility.yul\":4835:4855   */\n      tag_100\n        /* \"#utility.yul\":4853:4854   */\n      dup3\n        /* \"#utility.yul\":4835:4855   */\n      tag_47\n      jump\t// in\n    tag_100:\n        /* \"#utility.yul\":4830:4855   */\n      swap2\n      pop\n        /* \"#utility.yul\":4869:4889   */\n      tag_101\n        /* \"#utility.yul\":4887:4888   */\n      dup4\n        /* \"#utility.yul\":4869:4889   */\n      tag_47\n      jump\t// in\n    tag_101:\n        /* \"#utility.yul\":4864:4889   */\n      swap3\n      pop\n        /* \"#utility.yul\":4924:4925   */\n      dup3\n        /* \"#utility.yul\":4921:4922   */\n      dup3\n        /* \"#utility.yul\":4917:4926   */\n      mul\n        /* \"#utility.yul\":4946:4976   */\n      tag_102\n        /* \"#utility.yul\":4964:4975   */\n      dup2\n        /* \"#utility.yul\":4946:4976   */\n      tag_47\n      jump\t// in\n    tag_102:\n        /* \"#utility.yul\":4935:4976   */\n      swap2\n      pop\n        /* \"#utility.yul\":5125:5126   */\n      dup3\n        /* \"#utility.yul\":5116:5123   */\n      dup3\n        /* \"#utility.yul\":5112:5127   */\n      div\n        /* \"#utility.yul\":5109:5110   */\n      dup5\n        /* \"#utility.yul\":5106:5128   */\n      eq\n        /* \"#utility.yul\":5086:5087   */\n      dup4\n        /* \"#utility.yul\":5079:5088   */\n      iszero\n        /* \"#utility.yul\":5059:5142   */\n      or\n        /* \"#utility.yul\":5036:5175   */\n      tag_103\n      jumpi\n        /* \"#utility.yul\":5155:5173   */\n      tag_104\n      tag_54\n      jump\t// in\n    tag_104:\n        /* \"#utility.yul\":5036:5175   */\n    tag_103:\n        /* \"#utility.yul\":4820:5182   */\n      pop\n        /* \"#utility.yul\":4772:5182   */\n      swap3\n      swap2\n      pop\n      pop\n      jump\t// out\n        /* \"#utility.yul\":5188:5379   */\n    tag_36:\n        /* \"#utility.yul\":5228:5231   */\n      0x00\n        /* \"#utility.yul\":5247:5267   */\n      tag_106\n        /* \"#utility.yul\":5265:5266   */\n      dup3\n        /* \"#utility.yul\":5247:5267   */\n      tag_47\n      jump\t// in\n    tag_106:\n        /* \"#utility.yul\":5242:5267   */\n      swap2\n      pop\n        /* \"#utility.yul\":5281:5301   */\n      tag_107\n        /* \"#utility.yul\":5299:5300   */\n      dup4\n        /* \"#utility.yul\":5281:5301   */\n      tag_47\n      jump\t// in\n    tag_107:\n        /* \"#utility.yul\":5276:5301   */\n      swap3\n      pop\n        /* \"#utility.yul\":5324:5325   */\n      dup3\n        /* \"#utility.yul\":5321:5322   */\n      dup3\n        /* \"#utility.yul\":5317:5326   */\n      add\n        /* \"#utility.yul\":5310:5326   */\n      swap1\n      pop\n        /* \"#utility.yul\":5345:5348   */\n      dup1\n        /* \"#utility.yul\":5342:5343   */\n      dup3\n        /* \"#utility.yul\":5339:5349   */\n      gt\n        /* \"#utility.yul\":5336:5372   */\n      iszero\n      tag_108\n      jumpi\n        /* \"#utility.yul\":5352:5370   */\n      tag_109\n      tag_54\n      jump\t// in\n    tag_109:\n        /* \"#utility.yul\":5336:5372   */\n    tag_108:\n        /* \"#utility.yul\":5188:5379   */\n      swap3\n      swap2\n      pop\n      pop\n      jump\t// out\n\n    auxdata: 0xa2646970667358221220b51e20466ad3248a51d3ed879d88373e51d7faa332861824263d738250e649a664736f6c634300081e0033\n}\n",
				"bytecode": {
					"linkReferences": {},
					"object": "6080604052348015600e575f5ffd5b5061063b8061001c5f395ff3fe608060405234801561000f575f5ffd5b506004361061004a575f3560e01c80633d40327c1461004e5780637b4a3fe6146100805780639e5faafc1461008a578063c3c5a547146100a8575b5f5ffd5b610068600480360381019061006391906103c0565b6100d8565b6040516100779392919061041d565b60405180910390f35b610088610109565b005b610092610226565b60405161009f9190610452565b60405180910390f35b6100c260048036038101906100bd91906103c0565b61030f565b6040516100cf919061046b565b60405180910390f35b5f602052805f5260405f205f91509050805f015f9054906101000a900460ff16908060010154908060020154905083565b5f5f3373ffffffffffffffffffffffffffffffffffffffff1673ffffffffffffffffffffffffffffffffffffffff1681526020019081526020015f205f015f9054906101000a900460ff1615610194576040517f08c379a000000000000000000000000000000000000000000000000000000000815260040161018b906104de565b60405180910390fd5b604051806060016040528060011515815260200160018152602001600a8152505f5f3373ffffffffffffffffffffffffffffffffffffffff1673ffffffffffffffffffffffffffffffffffffffff1681526020019081526020015f205f820151815f015f6101000a81548160ff0219169083151502179055506020820151816001015560408201518160020155905050565b5f6102303361030f565b61026f576040517f08c379a000000000000000000000000000000000000000000000000000000000815260040161026690610546565b60405180910390fd5b5f60055f5f3373ffffffffffffffffffffffffffffffffffffffff1673ffffffffffffffffffffffffffffffffffffffff1681526020019081526020015f20600101546102bc9190610591565b5f5f3373ffffffffffffffffffffffffffffffffffffffff1673ffffffffffffffffffffffffffffffffffffffff1681526020019081526020015f206002015461030691906105d2565b90508091505090565b5f5f5f8373ffffffffffffffffffffffffffffffffffffffff1673ffffffffffffffffffffffffffffffffffffffff1681526020019081526020015f205f015f9054906101000a900460ff169050919050565b5f5ffd5b5f73ffffffffffffffffffffffffffffffffffffffff82169050919050565b5f61038f82610366565b9050919050565b61039f81610385565b81146103a9575f5ffd5b50565b5f813590506103ba81610396565b92915050565b5f602082840312156103d5576103d4610362565b5b5f6103e2848285016103ac565b91505092915050565b5f8115159050919050565b6103ff816103eb565b82525050565b5f819050919050565b61041781610405565b82525050565b5f6060820190506104305f8301866103f6565b61043d602083018561040e565b61044a604083018461040e565b949350505050565b5f6020820190506104655f83018461040e565b92915050565b5f60208201905061047e5f8301846103f6565b92915050565b5f82825260208201905092915050565b7f416c7265616479207265676973746572656400000000000000000000000000005f82015250565b5f6104c8601283610484565b91506104d382610494565b602082019050919050565b5f6020820190508181035f8301526104f5816104bc565b9050919050565b7f4e6f7420612077617272696f72000000000000000000000000000000000000005f82015250565b5f610530600d83610484565b915061053b826104fc565b602082019050919050565b5f6020820190508181035f83015261055d81610524565b9050919050565b7f4e487b71000000000000000000000000000000000000000000000000000000005f52601160045260245ffd5b5f61059b82610405565b91506105a683610405565b92508282026105b481610405565b915082820484148315176105cb576105ca610564565b5b5092915050565b5f6105dc82610405565b91506105e783610405565b92508282019050808211156105ff576105fe610564565b5b9291505056fea2646970667358221220b51e20466ad3248a51d3ed879d88373e51d7faa332861824263d738250e649a664736f6c634300081e0033",
					"opcodes": "PUSH1 0x80 PUSH1 0x40 MSTORE CALLVALUE DUP1 ISZERO PUSH1 0xE JUMPI PUSH0 PUSH0 REVERT JUMPDEST POP PUSH2 0x63B DUP1 PUSH2 0x1C PUSH0 CODECOPY PUSH0 RETURN INVALID PUSH1 0x80 PUSH1 0x40 MSTORE CALLVALUE DUP1 ISZERO PUSH2 0xF JUMPI PUSH0 PUSH0 REVERT JUMPDEST POP PUSH1 0x4 CALLDATASIZE LT PUSH2 0x4A JUMPI PUSH0 CALLDATALOAD PUSH1 0xE0 SHR DUP1 PUSH4 0x3D40327C EQ PUSH2 0x4E JUMPI DUP1 PUSH4 0x7B4A3FE6 EQ PUSH2 0x80 JUMPI DUP1 PUSH4 0x9E5FAAFC EQ PUSH2 0x8A JUMPI DUP1 PUSH4 0xC3C5A547 EQ PUSH2 0xA8 JUMPI JUMPDEST PUSH0 PUSH0 REVERT JUMPDEST PUSH2 0x68 PUSH1 0x4 DUP1 CALLDATASIZE SUB DUP2 ADD SWAP1 PUSH2 0x63 SWAP2 SWAP1 PUSH2 0x3C0 JUMP JUMPDEST PUSH2 0xD8 JUMP JUMPDEST PUSH1 0x40 MLOAD PUSH2 0x77 SWAP4 SWAP3 SWAP2 SWAP1 PUSH2 0x41D JUMP JUMPDEST PUSH1 0x40 MLOAD DUP1 SWAP2 SUB SWAP1 RETURN JUMPDEST PUSH2 0x88 PUSH2 0x109 JUMP JUMPDEST STOP JUMPDEST PUSH2 0x92 PUSH2 0x226 JUMP JUMPDEST PUSH1 0x40 MLOAD PUSH2 0x9F SWAP2 SWAP1 PUSH2 0x452 JUMP JUMPDEST PUSH1 0x40 MLOAD DUP1 SWAP2 SUB SWAP1 RETURN JUMPDEST PUSH2 0xC2 PUSH1 0x4 DUP1 CALLDATASIZE SUB DUP2 ADD SWAP1 PUSH2 0xBD SWAP2 SWAP1 PUSH2 0x3C0 JUMP JUMPDEST PUSH2 0x30F JUMP JUMPDEST PUSH1 0x40 MLOAD PUSH2 0xCF SWAP2 SWAP1 PUSH2 0x46B JUMP JUMPDEST PUSH1 0x40 MLOAD DUP1 SWAP2 SUB SWAP1 RETURN JUMPDEST PUSH0 PUSH1 0x20 MSTORE DUP1 PUSH0 MSTORE PUSH1 0x40 PUSH0 KECCAK256 PUSH0 SWAP2 POP SWAP1 POP DUP1 PUSH0 ADD PUSH0 SWAP1 SLOAD SWAP1 PUSH2 0x100 EXP SWAP1 DIV PUSH1 0xFF AND SWAP1 DUP1 PUSH1 0x1 ADD SLOAD SWAP1 DUP1 PUSH1 0x2 ADD SLOAD SWAP1 POP DUP4 JUMP JUMPDEST PUSH0 PUSH0 CALLER PUSH20 0xFFFFFFFFFFFFFFFFFFFFFFFFFFFFFFFFFFFFFFFF AND PUSH20 0xFFFFFFFFFFFFFFFFFFFFFFFFFFFFFFFFFFFFFFFF AND DUP2 MSTORE PUSH1 0x20 ADD SWAP1 DUP2 MSTORE PUSH1 0x20 ADD PUSH0 KECCAK256 PUSH0 ADD PUSH0 SWAP1 SLOAD SWAP1 PUSH2 0x100 EXP SWAP1 DIV PUSH1 0xFF AND ISZERO PUSH2 0x194 JUMPI PUSH1 0x40 MLOAD PUSH32 0x8C379A000000000000000000000000000000000000000000000000000000000 DUP2 MSTORE PUSH1 0x4 ADD PUSH2 0x18B SWAP1 PUSH2 0x4DE JUMP JUMPDEST PUSH1 0x40 MLOAD DUP1 SWAP2 SUB SWAP1 REVERT JUMPDEST PUSH1 0x40 MLOAD DUP1 PUSH1 0x60 ADD PUSH1 0x40 MSTORE DUP1 PUSH1 0x1 ISZERO ISZERO DUP2 MSTORE PUSH1 0x20 ADD PUSH1 0x1 DUP2 MSTORE PUSH1 0x20 ADD PUSH1 0xA DUP2 MSTORE POP PUSH0 PUSH0 CALLER PUSH20 0xFFFFFFFFFFFFFFFFFFFFFFFFFFFFFFFFFFFFFFFF AND PUSH20 0xFFFFFFFFFFFFFFFFFFFFFFFFFFFFFFFFFFFFFFFF AND DUP2 MSTORE PUSH1 0x20 ADD SWAP1 DUP2 MSTORE PUSH1 0x20 ADD PUSH0 KECCAK256 PUSH0 DUP3 ADD MLOAD DUP2 PUSH0 ADD PUSH0 PUSH2 0x100 EXP DUP2 SLOAD DUP2 PUSH1 0xFF MUL NOT AND SWAP1 DUP4 ISZERO ISZERO MUL OR SWAP1 SSTORE POP PUSH1 0x20 DUP3 ADD MLOAD DUP2 PUSH1 0x1 ADD SSTORE PUSH1 0x40 DUP3 ADD MLOAD DUP2 PUSH1 0x2 ADD SSTORE SWAP1 POP POP JUMP JUMPDEST PUSH0 PUSH2 0x230 CALLER PUSH2 0x30F JUMP JUMPDEST PUSH2 0x26F JUMPI PUSH1 0x40 MLOAD PUSH32 0x8C379A000000000000000000000000000000000000000000000000000000000 DUP2 MSTORE PUSH1 0x4 ADD PUSH2 0x266 SWAP1 PUSH2 0x546 JUMP JUMPDEST PUSH1 0x40 MLOAD DUP1 SWAP2 SUB SWAP1 REVERT JUMPDEST PUSH0 PUSH1 0x5 PUSH0 PUSH0 CALLER PUSH20 0xFFFFFFFFFFFFFFFFFFFFFFFFFFFFFFFFFFFFFFFF AND PUSH20 0xFFFFFFFFFFFFFFFFFFFFFFFFFFFFFFFFFFFFFFFF AND DUP2 MSTORE PUSH1 0x20 ADD SWAP1 DUP2 MSTORE PUSH1 0x20 ADD PUSH0 KECCAK256 PUSH1 0x1 ADD SLOAD PUSH2 0x2BC SWAP2 SWAP1 PUSH2 0x591 JUMP JUMPDEST PUSH0 PUSH0 CALLER PUSH20 0xFFFFFFFFFFFFFFFFFFFFFFFFFFFFFFFFFFFFFFFF AND PUSH20 0xFFFFFFFFFFFFFFFFFFFFFFFFFFFFFFFFFFFFFFFF AND DUP2 MSTORE PUSH1 0x20 ADD SWAP1 DUP2 MSTORE PUSH1 0x20 ADD PUSH0 KECCAK256 PUSH1 0x2 ADD SLOAD PUSH2 0x306 SWAP2 SWAP1 PUSH2 0x5D2 JUMP JUMPDEST SWAP1 POP DUP1 SWAP2 POP POP SWAP1 JUMP JUMPDEST PUSH0 PUSH0 PUSH0 DUP4 PUSH20 0xFFFFFFFFFFFFFFFFFFFFFFFFFFFFFFFFFFFFFFFF AND PUSH20 0xFFFFFFFFFFFFFFFFFFFFFFFFFFFFFFFFFFFFFFFF AND DUP2 MSTORE PUSH1 0x20 ADD SWAP1 DUP2 MSTORE PUSH1 0x20 ADD PUSH0 KECCAK256 PUSH0 ADD PUSH0 SWAP1 SLOAD SWAP1 PUSH2 0x100 EXP SWAP1 DIV PUSH1 0xFF AND SWAP1 POP SWAP2 SWAP1 POP JUMP JUMPDEST PUSH0 PUSH0 REVERT JUMPDEST PUSH0 PUSH20 0xFFFFFFFFFFFFFFFFFFFFFFFFFFFFFFFFFFFFFFFF DUP3 AND SWAP1 POP SWAP2 SWAP1 POP JUMP JUMPDEST PUSH0 PUSH2 0x38F DUP3 PUSH2 0x366 JUMP JUMPDEST SWAP1 POP SWAP2 SWAP1 POP JUMP JUMPDEST PUSH2 0x39F DUP2 PUSH2 0x385 JUMP JUMPDEST DUP2 EQ PUSH2 0x3A9 JUMPI PUSH0 PUSH0 REVERT JUMPDEST POP JUMP JUMPDEST PUSH0 DUP2 CALLDATALOAD SWAP1 POP PUSH2 0x3BA DUP2 PUSH2 0x396 JUMP JUMPDEST SWAP3 SWAP2 POP POP JUMP JUMPDEST PUSH0 PUSH1 0x20 DUP3 DUP5 SUB SLT ISZERO PUSH2 0x3D5 JUMPI PUSH2 0x3D4 PUSH2 0x362 JUMP JUMPDEST JUMPDEST PUSH0 PUSH2 0x3E2 DUP5 DUP3 DUP6 ADD PUSH2 0x3AC JUMP JUMPDEST SWAP2 POP POP SWAP3 SWAP2 POP POP JUMP JUMPDEST PUSH0 DUP2 ISZERO ISZERO SWAP1 POP SWAP2 SWAP1 POP JUMP JUMPDEST PUSH2 0x3FF DUP2 PUSH2 0x3EB JUMP JUMPDEST DUP3 MSTORE POP POP JUMP JUMPDEST PUSH0 DUP2 SWAP1 POP SWAP2 SWAP1 POP JUMP JUMPDEST PUSH2 0x417 DUP2 PUSH2 0x405 JUMP JUMPDEST DUP3 MSTORE POP POP JUMP JUMPDEST PUSH0 PUSH1 0x60 DUP3 ADD SWAP1 POP PUSH2 0x430 PUSH0 DUP4 ADD DUP7 PUSH2 0x3F6 JUMP JUMPDEST PUSH2 0x43D PUSH1 0x20 DUP4 ADD DUP6 PUSH2 0x40E JUMP JUMPDEST PUSH2 0x44A PUSH1 0x40 DUP4 ADD DUP5 PUSH2 0x40E JUMP JUMPDEST SWAP5 SWAP4 POP POP POP POP JUMP JUMPDEST PUSH0 PUSH1 0x20 DUP3 ADD SWAP1 POP PUSH2 0x465 PUSH0 DUP4 ADD DUP5 PUSH2 0x40E JUMP JUMPDEST SWAP3 SWAP2 POP POP JUMP JUMPDEST PUSH0 PUSH1 0x20 DUP3 ADD SWAP1 POP PUSH2 0x47E PUSH0 DUP4 ADD DUP5 PUSH2 0x3F6 JUMP JUMPDEST SWAP3 SWAP2 POP POP JUMP JUMPDEST PUSH0 DUP3 DUP3 MSTORE PUSH1 0x20 DUP3 ADD SWAP1 POP SWAP3 SWAP2 POP POP JUMP JUMPDEST PUSH32 0x416C726561647920726567697374657265640000000000000000000000000000 PUSH0 DUP3 ADD MSTORE POP JUMP JUMPDEST PUSH0 PUSH2 0x4C8 PUSH1 0x12 DUP4 PUSH2 0x484 JUMP JUMPDEST SWAP2 POP PUSH2 0x4D3 DUP3 PUSH2 0x494 JUMP JUMPDEST PUSH1 0x20 DUP3 ADD SWAP1 POP SWAP2 SWAP1 POP JUMP JUMPDEST PUSH0 PUSH1 0x20 DUP3 ADD SWAP1 POP DUP2 DUP2 SUB PUSH0 DUP4 ADD MSTORE PUSH2 0x4F5 DUP2 PUSH2 0x4BC JUMP JUMPDEST SWAP1 POP SWAP2 SWAP1 POP JUMP JUMPDEST PUSH32 0x4E6F7420612077617272696F7200000000000000000000000000000000000000 PUSH0 DUP3 ADD MSTORE POP JUMP JUMPDEST PUSH0 PUSH2 0x530 PUSH1 0xD DUP4 PUSH2 0x484 JUMP JUMPDEST SWAP2 POP PUSH2 0x53B DUP3 PUSH2 0x4FC JUMP JUMPDEST PUSH1 0x20 DUP3 ADD SWAP1 POP SWAP2 SWAP1 POP JUMP JUMPDEST PUSH0 PUSH1 0x20 DUP3 ADD SWAP1 POP DUP2 DUP2 SUB PUSH0 DUP4 ADD MSTORE PUSH2 0x55D DUP2 PUSH2 0x524 JUMP JUMPDEST SWAP1 POP SWAP2 SWAP1 POP JUMP JUMPDEST PUSH32 0x4E487B7100000000000000000000000000000000000000000000000000000000 PUSH0 MSTORE PUSH1 0x11 PUSH1 0x4 MSTORE PUSH1 0x24 PUSH0 REVERT JUMPDEST PUSH0 PUSH2 0x59B DUP3 PUSH2 0x405 JUMP JUMPDEST SWAP2 POP PUSH2 0x5A6 DUP4 PUSH2 0x405 JUMP JUMPDEST SWAP3 POP DUP3 DUP3 MUL PUSH2 0x5B4 DUP2 PUSH2 0x405 JUMP JUMPDEST SWAP2 POP DUP3 DUP3 DIV DUP5 EQ DUP4 ISZERO OR PUSH2 0x5CB JUMPI PUSH2 0x5CA PUSH2 0x564 JUMP JUMPDEST JUMPDEST POP SWAP3 SWAP2 POP POP JUMP JUMPDEST PUSH0 PUSH2 0x5DC DUP3 PUSH2 0x405 JUMP JUMPDEST SWAP2 POP PUSH2 0x5E7 DUP4 PUSH2 0x405 JUMP JUMPDEST SWAP3 POP DUP3 DUP3 ADD SWAP1 POP DUP1 DUP3 GT ISZERO PUSH2 0x5FF JUMPI PUSH2 0x5FE PUSH2 0x564 JUMP JUMPDEST JUMPDEST SWAP3 SWAP2 POP POP JUMP INVALID LOG2 PUSH5 0x6970667358 0x22 SLT KECCAK256 0xB5 0x1E KECCAK256 CHAINID PUSH11 0xD3248A51D3ED879D88373E MLOAD 0xD7 STATICCALL LOG3 ORIGIN DUP7 XOR 0x24 0x26 RETURNDATASIZE PUSH20 0x8250E649A664736F6C634300081E003300000000 "
				},
				"gasEstimates": {
					"creation": {
						"codeDepositCost": "319000",
						"executionCost": "353",
						"totalCost": "319353"
					},
					"external": {
						"attack()": "infinite",
						"isRegistered(address)": "2918",
						"registerWarrior()": "71089",
						"warriors(address)": "infinite"
					}
				},
				"methodIdentifiers": {
					"attack()": "9e5faafc",
					"isRegistered(address)": "c3c5a547",
					"registerWarrior()": "7b4a3fe6",
					"warriors(address)": "3d40327c"
				}
			},
			"storageLayout": {
				"storage": [
					{
						"astId": 52,
						"contract": "contracts/Knight.sol:Knight",
						"label": "warriors",
						"offset": 0,
						"slot": "0",
						"type": "t_mapping(t_address,t_struct(Warrior)47_storage)"
					}
				],
				"types": {
					"t_address": {
						"encoding": "inplace",
						"label": "address",
						"numberOfBytes": "20"
					},
					"t_bool": {
						"encoding": "inplace",
						"label": "bool",
						"numberOfBytes": "1"
					},
					"t_mapping(t_address,t_struct(Warrior)47_storage)": {
						"encoding": "mapping",
						"key": "t_address",
						"label": "mapping(address => struct WarriorGuild.Warrior)",
						"numberOfBytes": "32",
						"value": "t_struct(Warrior)47_storage"
					},
					"t_struct(Warrior)47_storage": {
						"encoding": "inplace",
						"label": "struct WarriorGuild.Warrior",
						"members": [
							{
								"astId": 42,
								"contract": "contracts/Knight.sol:Knight",
								"label": "registered",
								"offset": 0,
								"slot": "0",
								"type": "t_bool"
							},
							{
								"astId": 44,
								"contract": "contracts/Knight.sol:Knight",
								"label": "level",
								"offset": 0,
								"slot": "1",
								"type": "t_uint256"
							},
							{
								"astId": 46,
								"contract": "contracts/Knight.sol:Knight",
								"label": "power",
								"offset": 0,
								"slot": "2",
								"type": "t_uint256"
							}
						],
						"numberOfBytes": "96"
					},
					"t_uint256": {
						"encoding": "inplace",
						"label": "uint256",
						"numberOfBytes": "32"
					}
				}
			},
			"userdoc": {
				"kind": "user",
				"methods": {},
				"version": 1
			}
		}
	}
}